{"abi":[{"type":"constructor","inputs":[{"name":"_pancakeRouter","type":"address","internalType":"address"}],"stateMutability":"nonpayable"},{"type":"function","name":"pancakeRouter","inputs":[],"outputs":[{"name":"","type":"address","internalType":"contract IPancakeRouter"}],"stateMutability":"view"},{"type":"function","name":"swapTokens","inputs":[{"name":"amountIn","type":"uint256","internalType":"uint256"},{"name":"amountOutMin","type":"uint256","internalType":"uint256"},{"name":"path","type":"address[]","internalType":"address[]"},{"name":"to","type":"address","internalType":"address"},{"name":"deadline","type":"uint256","internalType":"uint256"}],"outputs":[{"name":"amounts","type":"uint256[]","internalType":"uint256[]"}],"stateMutability":"nonpayable"}],"bytecode":{"object":"0x6080604052348015600f57600080fd5b50604051610476380380610476833981016040819052602c916050565b600080546001600160a01b0319166001600160a01b0392909216919091179055607e565b600060208284031215606157600080fd5b81516001600160a01b0381168114607757600080fd5b9392505050565b6103e98061008d6000396000f3fe608060405234801561001057600080fd5b50600436106100365760003560e01c8063ad2afdae1461003b578063c21ebd0714610064575b600080fd5b61004e6100493660046101a0565b61008f565b60405161005b919061026b565b60405180910390f35b600054610077906001600160a01b031681565b6040516001600160a01b03909116815260200161005b565b6000546040516338ed173960e01b81526060916001600160a01b0316906338ed1739906100c890899089908990899089906004016102af565b6000604051808303816000875af11580156100e7573d6000803e3d6000fd5b505050506040513d6000823e601f3d908101601f1916820160405261010f9190810190610322565b9695505050505050565b634e487b7160e01b600052604160045260246000fd5b604051601f8201601f1916810167ffffffffffffffff8111828210171561015857610158610119565b604052919050565b600067ffffffffffffffff82111561017a5761017a610119565b5060051b60200190565b80356001600160a01b038116811461019b57600080fd5b919050565b600080600080600060a086880312156101b857600080fd5b853594506020808701359450604087013567ffffffffffffffff8111156101de57600080fd5b8701601f810189136101ef57600080fd5b80356102026101fd82610160565b61012f565b81815260059190911b8201830190838101908b83111561022157600080fd5b928401925b828410156102465761023784610184565b82529284019290840190610226565b809750505050505061025a60608701610184565b949793965091946080013592915050565b6020808252825182820181905260009190848201906040850190845b818110156102a357835183529284019291840191600101610287565b50909695505050505050565b600060a08201878352602087602085015260a0604085015281875180845260c08601915060208901935060005b818110156103015784516001600160a01b0316835293830193918301916001016102dc565b50506001600160a01b03969096166060850152505050608001529392505050565b6000602080838503121561033557600080fd5b825167ffffffffffffffff81111561034c57600080fd5b8301601f8101851361035d57600080fd5b805161036b6101fd82610160565b81815260059190911b8201830190838101908783111561038a57600080fd5b928401925b828410156103a85783518252928401929084019061038f565b97965050505050505056fea2646970667358221220107f0c62ea6d67ac571417a989084938ab6a18ac3c8148b0560f8072d5f5a22664736f6c63430008190033","linkReferences":{}},"methodIdentifiers":{"pancakeRouter()":"c21ebd07","swapTokens(uint256,uint256,address[],address,uint256)":"ad2afdae"},"id":7}