{"abi":[{"type":"constructor","inputs":[{"name":"_assetnft","type":"address","internalType":"address"}],"stateMutability":"nonpayable"},{"type":"function","name":"AssetNFT","inputs":[],"outputs":[{"name":"","type":"address","internalType":"address"}],"stateMutability":"view"},{"type":"function","name":"balance","inputs":[{"name":"tokenId","type":"uint256","internalType":"uint256"}],"outputs":[{"name":"","type":"address","internalType":"address"}],"stateMutability":"view"},{"type":"function","name":"fractionalize","inputs":[{"name":"tokenId","type":"uint256","internalType":"uint256"},{"name":"_assetName","type":"string","internalType":"string"},{"name":"_assetSymbol","type":"string","internalType":"string"},{"name":"_assetPrice","type":"uint256","internalType":"uint256"},{"name":"_paymentToken","type":"address","internalType":"address"},{"name":"_description","type":"string","internalType":"string"},{"name":"_uri","type":"string","internalType":"string"},{"name":"_totalSupply","type":"uint256","internalType":"uint256"},{"name":"_pool","type":"address","internalType":"address"},{"name":"_owner","type":"address","internalType":"address"}],"outputs":[],"stateMutability":"nonpayable"},{"type":"function","name":"fractionalizerChekcer","inputs":[{"name":"","type":"uint256","internalType":"uint256"}],"outputs":[{"name":"","type":"bool","internalType":"bool"}],"stateMutability":"view"},{"type":"function","name":"fractionalizers","inputs":[{"name":"","type":"uint256","internalType":"uint256"}],"outputs":[{"name":"","type":"address","internalType":"address"}],"stateMutability":"view"},{"type":"function","name":"onERC721Received","inputs":[{"name":"operator","type":"address","internalType":"address"},{"name":"from","type":"address","internalType":"address"},{"name":"tokenId","type":"uint256","internalType":"uint256"},{"name":"data","type":"bytes","internalType":"bytes"}],"outputs":[{"name":"","type":"bytes4","internalType":"bytes4"}],"stateMutability":"nonpayable"},{"type":"event","name":"FractionalizerCreated","inputs":[{"name":"fractionalizer","type":"address","indexed":false,"internalType":"address"},{"name":"tokenId","type":"uint256","indexed":false,"internalType":"uint256"}],"anonymous":false}],"bytecode":{"object":"0x60a060405234801561001057600080fd5b506040516127bb3803806127bb83398101604081905261002f91610040565b6001600160a01b0316608052610070565b60006020828403121561005257600080fd5b81516001600160a01b038116811461006957600080fd5b9392505050565b6080516127226100996000396000818161012a01528181610221015261048301526127226000f3fe60806040523480156200001157600080fd5b50600436106200006a5760003560e01c80630e67832b146200006f578063150b7a02146200008857806347bb89f014620000c857806367deef2414620000f8578063e43889971462000124578063ef53cd67146200014c575b600080fd5b6200008662000080366004620005e3565b62000183565b005b620000aa62000099366004620006f4565b630a85bd0160e11b95945050505050565b6040516001600160e01b031990911681526020015b60405180910390f35b620000df620000d93660046200079c565b6200046a565b6040516001600160a01b039091168152602001620000bf565b620000df620001093660046200079c565b6000602081905290815260409020546001600160a01b031681565b620000df7f000000000000000000000000000000000000000000000000000000000000000081565b620001726200015d3660046200079c565b60016020526000908152604090205460ff1681565b6040519015158152602001620000bf565b60008a8152602081905260409020546001600160a01b0316156200020b5760405162461bcd60e51b815260206004820152603460248201527f4672616374696f6e616c697a6572466163746f72793a206672616374696f6e616044820152736c697a657220616c72656164792065786973747360601b60648201526084015b60405180910390fd5b6040516331a9108f60e11b8152600481018b90527f00000000000000000000000000000000000000000000000000000000000000006001600160a01b031690636352211e90602401602060405180830381865afa15801562000271573d6000803e3d6000fd5b505050506040513d601f19601f82011682018060405250810190620002979190620007b6565b6001600160a01b0316306001600160a01b0316146200031f5760405162461bcd60e51b815260206004820152603b60248201527f4672616374696f6e616c697a6572466163746f72793a2063616c6c657220697360448201527f206e6f7420746865206f776e6572206f662074686520746f6b656e0000000000606482015260840162000202565b60008a81526001602052604090205460ff1615620003995760405162461bcd60e51b815260206004820152603060248201527f4672616374696f6e6c697a6572466163746f72793a20746f6b656e20616c726560448201526f18591e48199c9858dd1a5bdb9a5e995960821b606482015260840162000202565b6000898989898989898989604051620003b290620004ff565b620003c69998979695949392919062000825565b604051809103906000f080158015620003e3573d6000803e3d6000fd5b5060008c81526020818152604080832080546001600160a01b0319166001600160a01b038616908117909155600180845293829020805460ff191690941790935580519283529082018e90529192507fcb24d0b1b49f0fd474adce17491d3982ce9977d512031c3d06ae4647629d526d910160405180910390a15050505050505050505050565b6040516331a9108f60e11b8152600481018290526000907f00000000000000000000000000000000000000000000000000000000000000006001600160a01b031690636352211e90602401602060405180830381865afa158015620004d3573d6000803e3d6000fd5b505050506040513d601f19601f82011682018060405250810190620004f99190620007b6565b92915050565b611e3280620008bb83390190565b634e487b7160e01b600052604160045260246000fd5b600082601f8301126200053557600080fd5b813567ffffffffffffffff808211156200055357620005536200050d565b604051601f8301601f19908116603f011681019082821181831017156200057e576200057e6200050d565b816040528381528660208588010111156200059857600080fd5b836020870160208301376000602085830101528094505050505092915050565b6001600160a01b0381168114620005ce57600080fd5b50565b8035620005de81620005b8565b919050565b6000806000806000806000806000806101408b8d0312156200060457600080fd5b8a35995060208b013567ffffffffffffffff808211156200062457600080fd5b620006328e838f0162000523565b9a5060408d01359150808211156200064957600080fd5b620006578e838f0162000523565b995060608d013598506200066e60808e01620005d1565b975060a08d01359150808211156200068557600080fd5b620006938e838f0162000523565b965060c08d0135915080821115620006aa57600080fd5b50620006b98d828e0162000523565b94505060e08b01359250620006d26101008c01620005d1565b9150620006e36101208c01620005d1565b90509295989b9194979a5092959850565b6000806000806000608086880312156200070d57600080fd5b85356200071a81620005b8565b945060208601356200072c81620005b8565b935060408601359250606086013567ffffffffffffffff808211156200075157600080fd5b818801915088601f8301126200076657600080fd5b8135818111156200077657600080fd5b8960208285010111156200078957600080fd5b9699959850939650602001949392505050565b600060208284031215620007af57600080fd5b5035919050565b600060208284031215620007c957600080fd5b8151620007d681620005b8565b9392505050565b6000815180845260005b818110156200080557602081850181015186830182015201620007e7565b506000602082860101526020601f19601f83011685010191505092915050565b60006101208083526200083b8184018d620007dd565b9050828103602084015262000851818c620007dd565b604084018b90526001600160a01b038a8116606086015284820360808601529091506200087f828a620007dd565b915083820360a0850152620008958289620007dd565b60c085019790975294851660e08401525050911661010090910152969550505050505056fe6101606040523480156200001257600080fd5b5060405162001e3238038062001e328339810160408190526200003591620003cf565b808980604051806040016040528060018152602001603160f81b8152508c8c816003908162000065919062000565565b50600462000074828262000565565b50506005805460ff19169055506200008e82600662000217565b610120526200009f81600762000217565b61014052815160208084019190912060e052815190820120610100524660a0526200012d60e05161010051604080517f8b73c3c69bb8fe3d512ecc4cf759cc79239f7b179b0ffacaa9a75d522b39400f60208201529081019290925260608201524660808201523060a082015260009060c00160405160208183030381529060405280519060200120905090565b60805250503060c052506001600160a01b0381166200016757604051631e4fbdf760e01b8152600060048201526024015b60405180910390fd5b620001728162000250565b50600a879055600b80546001600160a01b0319166001600160a01b0388161790556040805160608101825286815260208101869052600091810191909152600c80620001bf888262000565565b5060208201516001820190620001d6908262000565565b506040919091015160029091015550600f91909155601080546001600160a01b0319166001600160a01b03909216919091179055506200068b945050505050565b600060208351101562000237576200022f83620002a2565b90506200024a565b8162000244848262000565565b5060ff90505b92915050565b600980546001600160a01b038381166001600160a01b0319831681179093556040519116919082907f8be0079c531659141344cd1fd0a4f28419497f9722a3daafe3b4186f6b6457e090600090a35050565b600080829050601f81511115620002d0578260405163305a27a960e01b81526004016200015e919062000631565b8051620002dd8262000666565b179392505050565b634e487b7160e01b600052604160045260246000fd5b60005b8381101562000318578181015183820152602001620002fe565b50506000910152565b600082601f8301126200033357600080fd5b81516001600160401b0380821115620003505762000350620002e5565b604051601f8301601f19908116603f011681019082821181831017156200037b576200037b620002e5565b816040528381528660208588010111156200039557600080fd5b620003a8846020830160208901620002fb565b9695505050505050565b80516001600160a01b0381168114620003ca57600080fd5b919050565b60008060008060008060008060006101208a8c031215620003ef57600080fd5b89516001600160401b03808211156200040757600080fd5b620004158d838e0162000321565b9a5060208c01519150808211156200042c57600080fd5b6200043a8d838e0162000321565b995060408c015198506200045160608d01620003b2565b975060808c01519150808211156200046857600080fd5b620004768d838e0162000321565b965060a08c01519150808211156200048d57600080fd5b506200049c8c828d0162000321565b94505060c08a01519250620004b460e08b01620003b2565b9150620004c56101008b01620003b2565b90509295985092959850929598565b600181811c90821680620004e957607f821691505b6020821081036200050a57634e487b7160e01b600052602260045260246000fd5b50919050565b601f82111562000560576000816000526020600020601f850160051c810160208610156200053b5750805b601f850160051c820191505b818110156200055c5782815560010162000547565b5050505b505050565b81516001600160401b03811115620005815762000581620002e5565b6200059981620005928454620004d4565b8462000510565b602080601f831160018114620005d15760008415620005b85750858301515b600019600386901b1c1916600185901b1785556200055c565b600085815260208120601f198616915b828110156200060257888601518255948401946001909101908401620005e1565b5085821015620006215787850151600019600388901b60f8161c191681555b5050505050600190811b01905550565b602081526000825180602084015262000652816040850160208701620002fb565b601f01601f19169190910160400192915050565b805160208083015191908110156200050a5760001960209190910360031b1b16919050565b60805160a05160c05160e05161010051610120516101405161174c620006e66000396000610c2d01526000610c0001526000610a9a01526000610a72015260006109cd015260006109f701526000610a21015261174c6000f3fe608060405234801561001057600080fd5b50600436106101735760003560e01c80637ecebe00116100de578063b2fdd80911610097578063d505accf11610071578063d505accf14610303578063dd62ed3e14610316578063e9e15b4f1461034f578063f2fde38b1461036257600080fd5b8063b2fdd809146102df578063b49f4afd146102f2578063d24378eb146102fa57600080fd5b80637ecebe001461027d5780638456cb591461029057806384b0196e146102985780638da5cb5b146102b357806395d89b41146102c4578063a9059cbb146102cc57600080fd5b80633644e515116101305780633644e51514610218578063392f37e9146102205780633f4ba83a146102375780635c975abb1461024157806370a082311461024c578063715018a61461027557600080fd5b806306fdde0314610178578063095ea7b31461019657806318160ddd146101b957806323b872dd146101cb5780633013ce29146101de578063313ce56714610209575b600080fd5b610180610375565b60405161018d9190611423565b60405180910390f35b6101a96101a4366004611452565b610407565b604051901515815260200161018d565b6002545b60405190815260200161018d565b6101a96101d936600461147c565b610421565b600b546101f1906001600160a01b031681565b6040516001600160a01b03909116815260200161018d565b6040516012815260200161018d565b6101bd610447565b610228610456565b60405161018d939291906114b8565b61023f61057c565b005b60055460ff166101a9565b6101bd61025a3660046114ee565b6001600160a01b031660009081526020819052604090205490565b61023f610586565b6101bd61028b3660046114ee565b610598565b61023f6105b6565b6102a06105be565b60405161018d9796959493929190611509565b6009546001600160a01b03166101f1565b610180610604565b6101a96102da366004611452565b610613565b61023f6102ed366004611452565b610621565b600a546101bd565b6101bd600a5481565b61023f6103113660046115a2565b610734565b6101bd610324366004611615565b6001600160a01b03918216600090815260016020908152604080832093909416825291909152205490565b61023f61035d3660046114ee565b61086e565b61023f6103703660046114ee565b610898565b60606003805461038490611648565b80601f01602080910402602001604051908101604052809291908181526020018280546103b090611648565b80156103fd5780601f106103d2576101008083540402835291602001916103fd565b820191906000526020600020905b8154815290600101906020018083116103e057829003601f168201915b5050505050905090565b6000336104158185856108d6565b60019150505b92915050565b60003361042f8582856108e3565b61043a858585610961565b60019150505b9392505050565b60006104516109c0565b905090565b600c8054819061046590611648565b80601f016020809104026020016040519081016040528092919081815260200182805461049190611648565b80156104de5780601f106104b3576101008083540402835291602001916104de565b820191906000526020600020905b8154815290600101906020018083116104c157829003601f168201915b5050505050908060010180546104f390611648565b80601f016020809104026020016040519081016040528092919081815260200182805461051f90611648565b801561056c5780601f106105415761010080835404028352916020019161056c565b820191906000526020600020905b81548152906001019060200180831161054f57829003601f168201915b5050505050908060020154905083565b610584610aeb565b565b61058e610b3d565b6105846000610b6a565b6001600160a01b03811660009081526008602052604081205461041b565b610584610bbc565b6000606080600080600060606105d2610bf9565b6105da610c26565b60408051600080825260208201909252600f60f81b9b939a50919850469750309650945092509050565b60606004805461038490611648565b600033610415818585610961565b600f548161062e60025490565b6106389190611698565b111561068b5760405162461bcd60e51b815260206004820152601e60248201527f4672616374696f6e616c697a65723a20417373657420736f6c64206f7574000060448201526064015b60405180910390fd5b806000036106ac576040516302fabfd360e01b815260040160405180910390fd5b6000600a54826106bc91906116ab565b601054600b549192506106de916001600160a01b039081169133911684610c53565b601054600a546040519081526001600160a01b039091169033907ffd1e8bfe848eb381d4fc18065422d43bd948210142a4b5d6f53f71403582118b9060200160405180910390a361072f8383610cad565b505050565b834211156107585760405163313c898160e11b815260048101859052602401610682565b60007f6e71edae12b1b97f4d1f60370fef10105fa2faae0126114a169c64845d6126c98888886107a58c6001600160a01b0316600090815260086020526040902080546001810190915590565b6040805160208101969096526001600160a01b0394851690860152929091166060840152608083015260a082015260c0810186905260e001604051602081830303815290604052805190602001209050600061080082610ce7565b9050600061081082878787610d14565b9050896001600160a01b0316816001600160a01b031614610857576040516325c0072360e11b81526001600160a01b0380831660048301528b166024820152604401610682565b6108628a8a8a6108d6565b50505050505050505050565b610876610b3d565b601080546001600160a01b0319166001600160a01b0392909216919091179055565b6108a0610b3d565b6001600160a01b0381166108ca57604051631e4fbdf760e01b815260006004820152602401610682565b6108d381610b6a565b50565b61072f8383836001610d42565b6001600160a01b03838116600090815260016020908152604080832093861683529290522054600019811461095b578181101561094c57604051637dc7a0d960e11b81526001600160a01b03841660048201526024810182905260448101839052606401610682565b61095b84848484036000610d42565b50505050565b6001600160a01b03831661098b57604051634b637e8f60e11b815260006004820152602401610682565b6001600160a01b0382166109b55760405163ec442f0560e01b815260006004820152602401610682565b61072f838383610e17565b6000306001600160a01b037f000000000000000000000000000000000000000000000000000000000000000016148015610a1957507f000000000000000000000000000000000000000000000000000000000000000046145b15610a4357507f000000000000000000000000000000000000000000000000000000000000000090565b610451604080517f8b73c3c69bb8fe3d512ecc4cf759cc79239f7b179b0ffacaa9a75d522b39400f60208201527f0000000000000000000000000000000000000000000000000000000000000000918101919091527f000000000000000000000000000000000000000000000000000000000000000060608201524660808201523060a082015260009060c00160405160208183030381529060405280519060200120905090565b610af3610e22565b6005805460ff191690557f5db9ee0a495bf2e6ff9c91a7834c1ba4fdd244a5e8aa4e537bd38aeae4b073aa335b6040516001600160a01b03909116815260200160405180910390a1565b6009546001600160a01b031633146105845760405163118cdaa760e01b8152336004820152602401610682565b600980546001600160a01b038381166001600160a01b0319831681179093556040519116919082907f8be0079c531659141344cd1fd0a4f28419497f9722a3daafe3b4186f6b6457e090600090a35050565b610bc4610e45565b6005805460ff191660011790557f62e78cea01bee320cd4e420270b5ea74000d11b0c9f74754ebdbfc544b05a258610b203390565b60606104517f00000000000000000000000000000000000000000000000000000000000000006006610e69565b60606104517f00000000000000000000000000000000000000000000000000000000000000006007610e69565b604080516001600160a01b0385811660248301528416604482015260648082018490528251808303909101815260849091019091526020810180516001600160e01b03166323b872dd60e01b17905261095b908590610f14565b6001600160a01b038216610cd75760405163ec442f0560e01b815260006004820152602401610682565b610ce360008383610e17565b5050565b600061041b610cf46109c0565b8360405161190160f01b8152600281019290925260228201526042902090565b600080600080610d2688888888610f77565b925092509250610d368282611046565b50909695505050505050565b6001600160a01b038416610d6c5760405163e602df0560e01b815260006004820152602401610682565b6001600160a01b038316610d9657604051634a1406b160e11b815260006004820152602401610682565b6001600160a01b038085166000908152600160209081526040808320938716835292905220829055801561095b57826001600160a01b0316846001600160a01b03167f8c5be1e5ebec7d5bd14f71427d1e84f3dd0314c0f7b2291e5b200ac8c7c3b92584604051610e0991815260200190565b60405180910390a350505050565b61072f8383836110ff565b60055460ff1661058457604051638dfc202b60e01b815260040160405180910390fd5b60055460ff16156105845760405163d93c066560e01b815260040160405180910390fd5b606060ff8314610e8357610e7c83611112565b905061041b565b818054610e8f90611648565b80601f0160208091040260200160405190810160405280929190818152602001828054610ebb90611648565b8015610f085780601f10610edd57610100808354040283529160200191610f08565b820191906000526020600020905b815481529060010190602001808311610eeb57829003601f168201915b5050505050905061041b565b6000610f296001600160a01b03841683611151565b90508051600014158015610f4e575080806020019051810190610f4c91906116c2565b155b1561072f57604051635274afe760e01b81526001600160a01b0384166004820152602401610682565b600080807f7fffffffffffffffffffffffffffffff5d576e7357a4501ddfe92f46681b20a0841115610fb2575060009150600390508261103c565b604080516000808252602082018084528a905260ff891692820192909252606081018790526080810186905260019060a0016020604051602081039080840390855afa158015611006573d6000803e3d6000fd5b5050604051601f1901519150506001600160a01b0381166110325750600092506001915082905061103c565b9250600091508190505b9450945094915050565b600082600381111561105a5761105a6116e4565b03611063575050565b6001826003811115611077576110776116e4565b036110955760405163f645eedf60e01b815260040160405180910390fd5b60028260038111156110a9576110a96116e4565b036110ca5760405163fce698f760e01b815260048101829052602401610682565b60038260038111156110de576110de6116e4565b03610ce3576040516335e2f38360e21b815260048101829052602401610682565b611107610e45565b61072f83838361115f565b6060600061111f83611289565b604080516020808252818301909252919250600091906020820181803683375050509182525060208101929092525090565b6060610440838360006112b1565b6001600160a01b03831661118a57806002600082825461117f9190611698565b909155506111fc9050565b6001600160a01b038316600090815260208190526040902054818110156111dd5760405163391434e360e21b81526001600160a01b03851660048201526024810182905260448101839052606401610682565b6001600160a01b03841660009081526020819052604090209082900390555b6001600160a01b03821661121857600280548290039055611237565b6001600160a01b03821660009081526020819052604090208054820190555b816001600160a01b0316836001600160a01b03167fddf252ad1be2c89b69c2b068fc378daa952ba7f163c4a11628f55a4df523b3ef8360405161127c91815260200190565b60405180910390a3505050565b600060ff8216601f81111561041b57604051632cd44ac360e21b815260040160405180910390fd5b6060814710156112d65760405163cd78605960e01b8152306004820152602401610682565b600080856001600160a01b031684866040516112f291906116fa565b60006040518083038185875af1925050503d806000811461132f576040519150601f19603f3d011682016040523d82523d6000602084013e611334565b606091505b509150915061134486838361134e565b9695505050505050565b6060826113635761135e826113aa565b610440565b815115801561137a57506001600160a01b0384163b155b156113a357604051639996b31560e01b81526001600160a01b0385166004820152602401610682565b5080610440565b8051156113ba5780518082602001fd5b604051630a12f52160e11b815260040160405180910390fd5b60005b838110156113ee5781810151838201526020016113d6565b50506000910152565b6000815180845261140f8160208601602086016113d3565b601f01601f19169290920160200192915050565b60208152600061044060208301846113f7565b80356001600160a01b038116811461144d57600080fd5b919050565b6000806040838503121561146557600080fd5b61146e83611436565b946020939093013593505050565b60008060006060848603121561149157600080fd5b61149a84611436565b92506114a860208501611436565b9150604084013590509250925092565b6060815260006114cb60608301866113f7565b82810360208401526114dd81866113f7565b915050826040830152949350505050565b60006020828403121561150057600080fd5b61044082611436565b60ff60f81b881681526000602060e0602084015261152a60e084018a6113f7565b838103604085015261153c818a6113f7565b606085018990526001600160a01b038816608086015260a0850187905284810360c08601528551808252602080880193509091019060005b8181101561159057835183529284019291840191600101611574565b50909c9b505050505050505050505050565b600080600080600080600060e0888a0312156115bd57600080fd5b6115c688611436565b96506115d460208901611436565b95506040880135945060608801359350608088013560ff811681146115f857600080fd5b9699959850939692959460a0840135945060c09093013592915050565b6000806040838503121561162857600080fd5b61163183611436565b915061163f60208401611436565b90509250929050565b600181811c9082168061165c57607f821691505b60208210810361167c57634e487b7160e01b600052602260045260246000fd5b50919050565b634e487b7160e01b600052601160045260246000fd5b8082018082111561041b5761041b611682565b808202811582820484141761041b5761041b611682565b6000602082840312156116d457600080fd5b8151801515811461044057600080fd5b634e487b7160e01b600052602160045260246000fd5b6000825161170c8184602087016113d3565b919091019291505056fea26469706673582212203617c8107f844e1bcf0dd4385ab00816fee500f304666f6e77d8ee66e81ea12e64736f6c63430008170033a264697066735822122024a3e5bba3b3c8f5885605a04ce3440909def0e917027f82c2b33f7c966b2dde64736f6c63430008170033","linkReferences":{}},"methodIdentifiers":{"AssetNFT()":"e4388997","balance(uint256)":"47bb89f0","fractionalize(uint256,string,string,uint256,address,string,string,uint256,address,address)":"0e67832b","fractionalizerChekcer(uint256)":"ef53cd67","fractionalizers(uint256)":"67deef24","onERC721Received(address,address,uint256,bytes)":"150b7a02"},"id":0}