{"abi":[{"type":"function","name":"createOrder","inputs":[{"name":"_asset","type":"address","internalType":"address"},{"name":"_amount","type":"uint256","internalType":"uint256"},{"name":"_price","type":"uint256","internalType":"uint256"},{"name":"_paymentToken","type":"address","internalType":"address"},{"name":"_isBuy","type":"bool","internalType":"bool"}],"outputs":[],"stateMutability":"nonpayable"},{"type":"function","name":"fillOrder","inputs":[{"name":"_orderId","type":"uint256","internalType":"uint256"}],"outputs":[],"stateMutability":"nonpayable"},{"type":"function","name":"getOrderCount","inputs":[],"outputs":[{"name":"","type":"uint256","internalType":"uint256"}],"stateMutability":"view"},{"type":"function","name":"getOrders","inputs":[],"outputs":[{"name":"","type":"tuple[]","internalType":"struct FractionOrderBook.Order[]","components":[{"name":"owner","type":"address","internalType":"address"},{"name":"asset","type":"address","internalType":"address"},{"name":"amount","type":"uint256","internalType":"uint256"},{"name":"price","type":"uint256","internalType":"uint256"},{"name":"paymentToken","type":"address","internalType":"address"},{"name":"isBuy","type":"bool","internalType":"bool"},{"name":"isFilled","type":"bool","internalType":"bool"},{"name":"isTerminated","type":"bool","internalType":"bool"}]}],"stateMutability":"view"},{"type":"function","name":"terminateOrder","inputs":[{"name":"_orderId","type":"uint256","internalType":"uint256"}],"outputs":[],"stateMutability":"nonpayable"},{"type":"event","name":"OrderCreated","inputs":[{"name":"owner","type":"address","indexed":true,"internalType":"address"},{"name":"asset","type":"address","indexed":true,"internalType":"address"},{"name":"amount","type":"uint256","indexed":false,"internalType":"uint256"},{"name":"price","type":"uint256","indexed":false,"internalType":"uint256"},{"name":"paymentToken","type":"address","indexed":false,"internalType":"address"},{"name":"isBuy","type":"bool","indexed":false,"internalType":"bool"},{"name":"isFilled","type":"bool","indexed":false,"internalType":"bool"},{"name":"isTerminated","type":"bool","indexed":false,"internalType":"bool"}],"anonymous":false}],"bytecode":{"object":"0x6080604052348015600f57600080fd5b506108258061001f6000396000f3fe608060405234801561001057600080fd5b50600436106100575760003560e01c80632e2dc43e1461005c57806333f387be1461007a57806367b830ad1461008f5780638d0a5fbb146100a25780639d2ae42b146100b3575b600080fd5b6100646100c6565b6040516100719190610634565b60405180910390f35b61008d610088366004610704565b61021c565b005b61008d61009d36600461075f565b6103d7565b600154604051908152602001610071565b61008d6100c136600461075f565b6105b8565b60015460609060008167ffffffffffffffff8111156100e7576100e7610778565b60405190808252806020026020018201604052801561015657816020015b604080516101008101825260008082526020808301829052928201819052606082018190526080820181905260a0820181905260c0820181905260e082015282526000199092019101816101055790505b50905060005b82811015610215576000818152602081815260409182902082516101008101845281546001600160a01b03908116825260018301548116938201939093526002820154938101939093526003810154606084015260040154908116608083015260ff600160a01b82048116151560a0840152600160a81b82048116151560c0840152600160b01b90910416151560e082015282518390839081106102025761020261078e565b602090810291909101015260010161015c565b5092915050565b60408051610100810182523381526001600160a01b038781166020808401918252838501898152606085018981528885166080870190815288151560a08801908152600060c0890181815260e08a01828152600180548452978390529a82208a518154908b166001600160a01b031991821617825598518189018054918c1691909a161790985594516002880155925160038701559051600490950180549151935198511515600160b01b0260ff60b01b19991515600160a81b029990991661ffff60a81b19941515600160a01b026001600160a81b0319909316969097169590951717919091169390931794909417905582549192918291906103219083906107a4565b9250508190555080602001516001600160a01b031681600001516001600160a01b03167f6255df24dd984583f50a6a119045e425f2c9f1565e6edb01a8e13faecd9bbb548360400151846060015185608001518660a001518760c001518860e001516040516103c79695949392919095865260208601949094526001600160a01b039290921660408501521515606084015215156080830152151560a082015260c00190565b60405180910390a3505050505050565b60008181526020819052604090206004810154600160a81b900460ff161561043d5760405162461bcd60e51b815260206004820152601460248201527313dc99195c88185b1c9958591e48199a5b1b195960621b60448201526064015b60405180910390fd5b6004810154600160b01b900460ff16156104945760405162461bcd60e51b815260206004820152601860248201527713dc99195c88185b1c9958591e481d195c9b5a5b985d195960421b6044820152606401610434565b6001810154815460028301546040516323b872dd60e01b81526001600160a01b03928316600482015233602482015260448101919091529116906323b872dd906064016020604051808303816000875af11580156104f6573d6000803e3d6000fd5b505050506040513d601f19601f8201168201806040525081019061051a91906107cb565b50600481810154825460038401546040516323b872dd60e01b815233948101949094526001600160a01b039182166024850152604484015216906323b872dd906064016020604051808303816000875af115801561057c573d6000803e3d6000fd5b505050506040513d601f19601f820116820180604052508101906105a091906107cb565b50600401805460ff60a81b1916600160a81b17905550565b60008181526020819052604090206004810154600160b01b900460ff161561061d5760405162461bcd60e51b815260206004820152601860248201527713dc99195c88185b1c9958591e481d195c9b5a5b985d195960421b6044820152606401610434565b600401805460ff60b01b1916600160b01b17905550565b602080825282518282018190526000919060409081850190868401855b828110156106ca57815180516001600160a01b039081168652878201518116888701528682015187870152606080830151908701526080808301519091169086015260a08082015115159086015260c08082015115159086015260e0908101511515908501526101009093019290850190600101610651565b5091979650505050505050565b80356001600160a01b03811681146106ee57600080fd5b919050565b801515811461070157600080fd5b50565b600080600080600060a0868803121561071c57600080fd5b610725866106d7565b94506020860135935060408601359250610741606087016106d7565b91506080860135610751816106f3565b809150509295509295909350565b60006020828403121561077157600080fd5b5035919050565b634e487b7160e01b600052604160045260246000fd5b634e487b7160e01b600052603260045260246000fd5b808201808211156107c557634e487b7160e01b600052601160045260246000fd5b92915050565b6000602082840312156107dd57600080fd5b81516107e8816106f3565b939250505056fea2646970667358221220b3b6a245c813eb0a3619039fb65aaa89bc505a24551bcd1a819557450b97edae64736f6c63430008190033","linkReferences":{}},"methodIdentifiers":{"createOrder(address,uint256,uint256,address,bool)":"33f387be","fillOrder(uint256)":"67b830ad","getOrderCount()":"8d0a5fbb","getOrders()":"2e2dc43e","terminateOrder(uint256)":"9d2ae42b"},"id":45}