{"abi":[{"type":"function","name":"createOrder","inputs":[{"name":"_asset","type":"address","internalType":"address"},{"name":"_amount","type":"uint256","internalType":"uint256"},{"name":"_price","type":"uint256","internalType":"uint256"},{"name":"_paymentToken","type":"address","internalType":"address"},{"name":"_isBuy","type":"bool","internalType":"bool"}],"outputs":[],"stateMutability":"nonpayable"},{"type":"function","name":"fillOrder","inputs":[{"name":"_orderId","type":"uint256","internalType":"uint256"}],"outputs":[],"stateMutability":"nonpayable"},{"type":"function","name":"orderCount","inputs":[],"outputs":[{"name":"","type":"uint256","internalType":"uint256"}],"stateMutability":"view"},{"type":"function","name":"orders","inputs":[{"name":"","type":"uint256","internalType":"uint256"}],"outputs":[{"name":"owner","type":"address","internalType":"address"},{"name":"asset","type":"address","internalType":"address"},{"name":"amount","type":"uint256","internalType":"uint256"},{"name":"price","type":"uint256","internalType":"uint256"},{"name":"paymentToken","type":"address","internalType":"address"},{"name":"isBuy","type":"bool","internalType":"bool"},{"name":"isFilled","type":"bool","internalType":"bool"},{"name":"isTerminated","type":"bool","internalType":"bool"}],"stateMutability":"view"},{"type":"function","name":"terminateOrder","inputs":[{"name":"_orderId","type":"uint256","internalType":"uint256"}],"outputs":[],"stateMutability":"nonpayable"},{"type":"event","name":"OrderCreated","inputs":[{"name":"owner","type":"address","indexed":true,"internalType":"address"},{"name":"asset","type":"address","indexed":true,"internalType":"address"},{"name":"amount","type":"uint256","indexed":false,"internalType":"uint256"},{"name":"price","type":"uint256","indexed":false,"internalType":"uint256"},{"name":"paymentToken","type":"address","indexed":false,"internalType":"address"},{"name":"isBuy","type":"bool","indexed":false,"internalType":"bool"},{"name":"isFilled","type":"bool","indexed":false,"internalType":"bool"},{"name":"isTerminated","type":"bool","indexed":false,"internalType":"bool"}],"anonymous":false}],"bytecode":{"object":"0x608060405234801561001057600080fd5b506106a7806100206000396000f3fe608060405234801561001057600080fd5b50600436106100575760003560e01c80632453ffa81461005c57806333f387be1461007857806367b830ad1461008d5780639d2ae42b146100a0578063a85c38ef146100b3575b600080fd5b61006560015481565b6040519081526020015b60405180910390f35b61008b6100863660046105b2565b61016d565b005b61008b61009b36600461060d565b610328565b61008b6100ae36600461060d565b610509565b61011e6100c136600461060d565b600060208190529081526040902080546001820154600283015460038401546004909401546001600160a01b03938416949284169391929181169060ff600160a01b8204811691600160a81b8104821691600160b01b9091041688565b604080516001600160a01b03998a168152978916602089015287019590955260608601939093529416608084015292151560a083015291151560c082015290151560e08201526101000161006f565b60408051610100810182523381526001600160a01b038781166020808401918252838501898152606085018981528885166080870190815288151560a08801908152600060c0890181815260e08a01828152600180548452978390529a82208a518154908b166001600160a01b031991821617825598518189018054918c1691909a161790985594516002880155925160038701559051600490950180549151935198511515600160b01b0260ff60b01b19991515600160a81b029990991661ffff60a81b19941515600160a01b026001600160a81b031990931696909716959095171791909116939093179490941790558254919291829190610272908390610626565b9250508190555080602001516001600160a01b031681600001516001600160a01b03167f6255df24dd984583f50a6a119045e425f2c9f1565e6edb01a8e13faecd9bbb548360400151846060015185608001518660a001518760c001518860e001516040516103189695949392919095865260208601949094526001600160a01b039290921660408501521515606084015215156080830152151560a082015260c00190565b60405180910390a3505050505050565b60008181526020819052604090206004810154600160a81b900460ff161561038e5760405162461bcd60e51b815260206004820152601460248201527313dc99195c88185b1c9958591e48199a5b1b195960621b60448201526064015b60405180910390fd5b6004810154600160b01b900460ff16156103e55760405162461bcd60e51b815260206004820152601860248201527713dc99195c88185b1c9958591e481d195c9b5a5b985d195960421b6044820152606401610385565b6001810154815460028301546040516323b872dd60e01b81526001600160a01b03928316600482015233602482015260448101919091529116906323b872dd906064016020604051808303816000875af1158015610447573d6000803e3d6000fd5b505050506040513d601f19601f8201168201806040525081019061046b919061064d565b50600481810154825460038401546040516323b872dd60e01b815233948101949094526001600160a01b039182166024850152604484015216906323b872dd906064016020604051808303816000875af11580156104cd573d6000803e3d6000fd5b505050506040513d601f19601f820116820180604052508101906104f1919061064d565b50600401805460ff60a81b1916600160a81b17905550565b60008181526020819052604090206004810154600160b01b900460ff161561056e5760405162461bcd60e51b815260206004820152601860248201527713dc99195c88185b1c9958591e481d195c9b5a5b985d195960421b6044820152606401610385565b600401805460ff60b01b1916600160b01b17905550565b80356001600160a01b038116811461059c57600080fd5b919050565b80151581146105af57600080fd5b50565b600080600080600060a086880312156105ca57600080fd5b6105d386610585565b945060208601359350604086013592506105ef60608701610585565b915060808601356105ff816105a1565b809150509295509295909350565b60006020828403121561061f57600080fd5b5035919050565b8082018082111561064757634e487b7160e01b600052601160045260246000fd5b92915050565b60006020828403121561065f57600080fd5b815161066a816105a1565b939250505056fea264697066735822122014e5f870bd79c64581948d8deb494a0a85b81ccd5625753c93cc4b97122ea4ba64736f6c63430008170033","linkReferences":{}},"methodIdentifiers":{"createOrder(address,uint256,uint256,address,bool)":"33f387be","fillOrder(uint256)":"67b830ad","orderCount()":"2453ffa8","orders(uint256)":"a85c38ef","terminateOrder(uint256)":"9d2ae42b"},"id":45}