{"abi":[{"type":"constructor","inputs":[{"name":"_assetFactory","type":"address","internalType":"address"},{"name":"_paymentToken","type":"address","internalType":"address"}],"stateMutability":"nonpayable"},{"type":"function","name":"borrow","inputs":[{"name":"_fractionalizedToken","type":"address","internalType":"address"},{"name":"_unitToDeposit","type":"uint256","internalType":"uint256"},{"name":"_loanAmount","type":"uint256","internalType":"uint256"},{"name":"_time","type":"uint8","internalType":"enum LendingContract.TimePeriod"}],"outputs":[],"stateMutability":"nonpayable"},{"type":"function","name":"debt","inputs":[{"name":"","type":"address","internalType":"address"},{"name":"","type":"uint256","internalType":"uint256"}],"outputs":[{"name":"","type":"uint256","internalType":"uint256"}],"stateMutability":"view"},{"type":"function","name":"getLoanInfo","inputs":[{"name":"num","type":"uint256","internalType":"uint256"}],"outputs":[{"name":"","type":"tuple","internalType":"struct LendingContract.Loan","components":[{"name":"borrower","type":"address","internalType":"address"},{"name":"amount","type":"uint256","internalType":"uint256"},{"name":"dueDate","type":"uint256","internalType":"uint256"},{"name":"unit","type":"uint256","internalType":"uint256"},{"name":"fractonalizedToken","type":"address","internalType":"address"}]}],"stateMutability":"view"},{"type":"function","name":"getTimeInterpreter","inputs":[{"name":"_num","type":"uint8","internalType":"enum LendingContract.TimePeriod"}],"outputs":[{"name":"","type":"uint256","internalType":"uint256"}],"stateMutability":"pure"},{"type":"function","name":"liquidate","inputs":[{"name":"_debtId","type":"uint256","internalType":"uint256"}],"outputs":[],"stateMutability":"nonpayable"},{"type":"function","name":"loanInfo","inputs":[{"name":"","type":"uint256","internalType":"uint256"}],"outputs":[{"name":"borrower","type":"address","internalType":"address"},{"name":"amount","type":"uint256","internalType":"uint256"},{"name":"dueDate","type":"uint256","internalType":"uint256"},{"name":"unit","type":"uint256","internalType":"uint256"},{"name":"fractonalizedToken","type":"address","internalType":"address"}],"stateMutability":"view"},{"type":"function","name":"paydebt","inputs":[{"name":"_debtId","type":"uint256","internalType":"uint256"}],"outputs":[],"stateMutability":"nonpayable"},{"type":"error","name":"AddressEmptyCode","inputs":[{"name":"target","type":"address","internalType":"address"}]},{"type":"error","name":"AddressInsufficientBalance","inputs":[{"name":"account","type":"address","internalType":"address"}]},{"type":"error","name":"FailedInnerCall","inputs":[]},{"type":"error","name":"SafeERC20FailedOperation","inputs":[{"name":"token","type":"address","internalType":"address"}]}],"bytecode":{"object":"0x6080604052348015600f57600080fd5b50604051610e64380380610e64833981016040819052602c916077565b600380546001600160a01b039384166001600160a01b0319918216179091556004805492909316911617905560a5565b80516001600160a01b0381168114607257600080fd5b919050565b60008060408385031215608957600080fd5b609083605c565b9150609c60208401605c565b90509250929050565b610db0806100b46000396000f3fe608060405234801561001057600080fd5b506004361061007d5760003560e01c806348f59d5f1161005b57806348f59d5f1461010f5780638349d6be14610122578063c97899c61461019e578063d0230e55146101bf57600080fd5b80630714012c146100825780632adfb217146100e7578063415f1240146100fc575b600080fd5b610095610090366004610b9f565b6101d2565b6040516100de919081516001600160a01b039081168252602080840151908301526040808401519083015260608084015190830152608092830151169181019190915260a00190565b60405180910390f35b6100fa6100f5366004610bde565b61026d565b005b6100fa61010a366004610b9f565b6105b5565b6100fa61011d366004610b9f565b61071c565b61016a610130366004610b9f565b600060208190529081526040902080546001820154600283015460038401546004909401546001600160a01b039384169492939192911685565b604080516001600160a01b03968716815260208101959095528401929092526060830152909116608082015260a0016100de565b6101b16101ac366004610c24565b61085d565b6040519081526020016100de565b6101b16101cd366004610c4e565b61088e565b6102166040518060a0016040528060006001600160a01b0316815260200160008152602001600081526020016000815260200160006001600160a01b031681525090565b5060009081526020818152604091829020825160a08101845281546001600160a01b039081168252600183015493820193909352600282015493810193909352600381015460608401526004015416608082015290565b60035460405163bbeab0f360e01b81526001600160a01b0386811660048301529091169063bbeab0f390602401602060405180830381865afa1580156102b7573d6000803e3d6000fd5b505050506040513d601f19601f820116820180604052508101906102db9190610c69565b15156001146103315760405162461bcd60e51b815260206004820152601760248201527f746f6b656e206973206e6f74206672616374696f6e656400000000000000000060448201526064015b60405180910390fd5b6040516370a0823160e01b815233600482015283906001600160a01b038616906370a0823190602401602060405180830381865afa158015610377573d6000803e3d6000fd5b505050506040513d601f19601f8201168201806040525081019061039b9190610c8b565b10156103df5760405162461bcd60e51b8152602060048201526013602482015272796f7520646f6e74206861766520756e69747360681b6044820152606401610328565b8183856001600160a01b031663b49f4afd6040518163ffffffff1660e01b8152600401602060405180830381865afa15801561041f573d6000803e3d6000fd5b505050506040513d601f19601f820116820180604052508101906104439190610c8b565b61044d9190610cba565b146104a65760405162461bcd60e51b815260206004820152602360248201527f796f752063616e6e6f7420626f72726f77206d6f7265207468616e20796f752060448201526237bbb760e91b6064820152608401610328565b6104bb6001600160a01b03851633308661095e565b60006040518060a00160405280336001600160a01b031681526020018481526020016104e68461088e565b6104f09042610cd1565b815260208082018790526001600160a01b0380891660409384015233600081815260018085528582206002805482548085018455928552878520909201919091558054835282865291869020875181549086166001600160a01b03199182161782559588015191810191909155948601519085015560608501516003850155608085015160049485018054918416919094161790925591549293506105999290911690856109cb565b600280549060006105a983610ce4565b91905055505050505050565b600081815260208190526040902060028101544210156106065760405162461bcd60e51b815260206004820152600c60248201526b44656274206e6f742064756560a01b6044820152606401610328565b60018101546000606461061a83600a610cba565b6106249190610cfd565b905061064f333083866001015461063b9190610cd1565b6004546001600160a01b031692919061095e565b336000908152600160205260408120905b81548110156106b6578582828154811061067c5761067c610d1f565b9060005260206000200154036106ae5781818154811061069e5761069e610d1f565b60009182526020822001556106b6565b600101610660565b50600384015460048501546106d8916001600160a01b039091169033906109cb565b50505060009182525060208190526040812080546001600160a01b031990811682556001820183905560028201839055600382019290925560040180549091169055565b600081815260208190526040902060028101544211156107715760405162461bcd60e51b815260206004820152601060248201526f4465627420616c72656164792064756560801b6044820152606401610328565b6001810154600454610792916001600160a01b03909116903390309061095e565b336000908152600160205260408120905b81548110156107f957838282815481106107bf576107bf610d1f565b9060005260206000200154036107f1578181815481106107e1576107e1610d1f565b60009182526020822001556107f9565b6001016107a3565b506003820154600483015461081b916001600160a01b039091169033906109cb565b5050600090815260208190526040812080546001600160a01b031990811682556001820183905560028201839055600382019290925560040180549091169055565b6001602052816000526040600020818154811061087957600080fd5b90600052602060002001600091509150505481565b6000808260038111156108a3576108a3610d35565b036108b2575062127500919050565b60018260038111156108c6576108c6610d35565b036108d5575062278d00919050565b60028260038111156108e9576108e9610d35565b036108f85750624f1a00919050565b600382600381111561090c5761090c610d35565b0361091b575062ed4e00919050565b60405162461bcd60e51b8152602060048201526013602482015272125b9d985b1a59081d1a5b59481c195c9a5bd9606a1b6044820152606401610328565b919050565b6040516001600160a01b0384811660248301528381166044830152606482018390526109c59186918216906323b872dd906084015b604051602081830303815290604052915060e01b6020820180516001600160e01b038381831617835250505050610a01565b50505050565b6040516001600160a01b038381166024830152604482018390526109fc91859182169063a9059cbb90606401610993565b505050565b6000610a166001600160a01b03841683610a64565b90508051600014158015610a3b575080806020019051810190610a399190610c69565b155b156109fc57604051635274afe760e01b81526001600160a01b0384166004820152602401610328565b6060610a7283836000610a7b565b90505b92915050565b606081471015610aa05760405163cd78605960e01b8152306004820152602401610328565b600080856001600160a01b03168486604051610abc9190610d4b565b60006040518083038185875af1925050503d8060008114610af9576040519150601f19603f3d011682016040523d82523d6000602084013e610afe565b606091505b5091509150610b0e868383610b1a565b925050505b9392505050565b606082610b2f57610b2a82610b76565b610b13565b8151158015610b4657506001600160a01b0384163b155b15610b6f57604051639996b31560e01b81526001600160a01b0385166004820152602401610328565b5080610b13565b805115610b865780518082602001fd5b604051630a12f52160e11b815260040160405180910390fd5b600060208284031215610bb157600080fd5b5035919050565b80356001600160a01b038116811461095957600080fd5b80356004811061095957600080fd5b60008060008060808587031215610bf457600080fd5b610bfd85610bb8565b93506020850135925060408501359150610c1960608601610bcf565b905092959194509250565b60008060408385031215610c3757600080fd5b610c4083610bb8565b946020939093013593505050565b600060208284031215610c6057600080fd5b610a7282610bcf565b600060208284031215610c7b57600080fd5b81518015158114610b1357600080fd5b600060208284031215610c9d57600080fd5b5051919050565b634e487b7160e01b600052601160045260246000fd5b8082028115828204841417610a7557610a75610ca4565b80820180821115610a7557610a75610ca4565b600060018201610cf657610cf6610ca4565b5060010190565b600082610d1a57634e487b7160e01b600052601260045260246000fd5b500490565b634e487b7160e01b600052603260045260246000fd5b634e487b7160e01b600052602160045260246000fd5b6000825160005b81811015610d6c5760208186018101518583015201610d52565b50600092019182525091905056fea2646970667358221220f7fa666df45631d0d0f32ea8f821655174de460a90117de5250337f5b8e02c9d64736f6c63430008190033","linkReferences":{}},"methodIdentifiers":{"borrow(address,uint256,uint256,uint8)":"2adfb217","debt(address,uint256)":"c97899c6","getLoanInfo(uint256)":"0714012c","getTimeInterpreter(uint8)":"d0230e55","liquidate(uint256)":"415f1240","loanInfo(uint256)":"8349d6be","paydebt(uint256)":"48f59d5f"},"id":5}