{"abi":[{"type":"constructor","inputs":[{"name":"_pancakeRouter","type":"address","internalType":"address"},{"name":"_WBNBAddress","type":"address","internalType":"address"}],"stateMutability":"nonpayable"},{"type":"function","name":"WBNBAddress","inputs":[],"outputs":[{"name":"","type":"address","internalType":"address"}],"stateMutability":"view"},{"type":"function","name":"pancakeRouter","inputs":[],"outputs":[{"name":"","type":"address","internalType":"contract IPancakeRouter"}],"stateMutability":"view"},{"type":"function","name":"swapTokens","inputs":[{"name":"amountIn","type":"uint256","internalType":"uint256"},{"name":"amountOutMin","type":"uint256","internalType":"uint256"},{"name":"path","type":"address[]","internalType":"address[]"},{"name":"to","type":"address","internalType":"address"},{"name":"deadline","type":"uint256","internalType":"uint256"}],"outputs":[{"name":"amounts","type":"uint256[]","internalType":"uint256[]"}],"stateMutability":"nonpayable"},{"type":"function","name":"swapTokensToBNB","inputs":[{"name":"amountIn","type":"uint256","internalType":"uint256"},{"name":"amountOutMin","type":"uint256","internalType":"uint256"},{"name":"path","type":"address[]","internalType":"address[]"},{"name":"to","type":"address","internalType":"address"},{"name":"deadline","type":"uint256","internalType":"uint256"}],"outputs":[],"stateMutability":"nonpayable"}],"bytecode":{"object":"0x608060405234801561001057600080fd5b5060405161056838038061056883398101604081905261002f9161007c565b600080546001600160a01b039384166001600160a01b031991821617909155600180549290931691161790556100af565b80516001600160a01b038116811461007757600080fd5b919050565b6000806040838503121561008f57600080fd5b61009883610060565b91506100a660208401610060565b90509250929050565b6104aa806100be6000396000f3fe608060405234801561001057600080fd5b506004361061004c5760003560e01c80634eb2586e1461005157806370081fb914610066578063ad2afdae14610096578063c21ebd07146100b6575b600080fd5b61006461005f366004610261565b6100c9565b005b600154610079906001600160a01b031681565b6040516001600160a01b0390911681526020015b60405180910390f35b6100a96100a4366004610261565b610150565b60405161008d919061032c565b600054610079906001600160a01b031681565b6000546040516318cbafe560e01b81526001600160a01b03909116906318cbafe5906101019088908890889088908890600401610370565b6000604051808303816000875af1158015610120573d6000803e3d6000fd5b505050506040513d6000823e601f3d908101601f1916820160405261014891908101906103e3565b505050505050565b6000546040516338ed173960e01b81526060916001600160a01b0316906338ed1739906101899089908990899089908990600401610370565b6000604051808303816000875af11580156101a8573d6000803e3d6000fd5b505050506040513d6000823e601f3d908101601f191682016040526101d091908101906103e3565b9695505050505050565b634e487b7160e01b600052604160045260246000fd5b604051601f8201601f1916810167ffffffffffffffff81118282101715610219576102196101da565b604052919050565b600067ffffffffffffffff82111561023b5761023b6101da565b5060051b60200190565b80356001600160a01b038116811461025c57600080fd5b919050565b600080600080600060a0868803121561027957600080fd5b853594506020808701359450604087013567ffffffffffffffff81111561029f57600080fd5b8701601f810189136102b057600080fd5b80356102c36102be82610221565b6101f0565b81815260059190911b8201830190838101908b8311156102e257600080fd5b928401925b82841015610307576102f884610245565b825292840192908401906102e7565b809750505050505061031b60608701610245565b949793965091946080013592915050565b6020808252825182820181905260009190848201906040850190845b8181101561036457835183529284019291840191600101610348565b50909695505050505050565b600060a08201878352602087602085015260a0604085015281875180845260c08601915060208901935060005b818110156103c25784516001600160a01b03168352938301939183019160010161039d565b50506001600160a01b03969096166060850152505050608001529392505050565b600060208083850312156103f657600080fd5b825167ffffffffffffffff81111561040d57600080fd5b8301601f8101851361041e57600080fd5b805161042c6102be82610221565b81815260059190911b8201830190838101908783111561044b57600080fd5b928401925b8284101561046957835182529284019290840190610450565b97965050505050505056fea2646970667358221220edf4e72eb2bd488a91796971df1789b45c4be8975202d1237332244e84537ba364736f6c63430008170033","linkReferences":{}},"methodIdentifiers":{"WBNBAddress()":"70081fb9","pancakeRouter()":"c21ebd07","swapTokens(uint256,uint256,address[],address,uint256)":"ad2afdae","swapTokensToBNB(uint256,uint256,address[],address,uint256)":"4eb2586e"},"id":60}