{"abi":[{"type":"constructor","inputs":[{"name":"assetName","type":"string","internalType":"string"},{"name":"assetSymbol","type":"string","internalType":"string"},{"name":"_assetPrice","type":"uint256","internalType":"uint256"},{"name":"_paymentToken","type":"address","internalType":"address"},{"name":"_description","type":"string","internalType":"string"},{"name":"_uri","type":"string","internalType":"string"},{"name":"_totalSupply","type":"uint256","internalType":"uint256"},{"name":"_pool","type":"address","internalType":"address"},{"name":"_owner","type":"address","internalType":"address"}],"stateMutability":"nonpayable"},{"type":"function","name":"DOMAIN_SEPARATOR","inputs":[],"outputs":[{"name":"","type":"bytes32","internalType":"bytes32"}],"stateMutability":"view"},{"type":"function","name":"allowance","inputs":[{"name":"owner","type":"address","internalType":"address"},{"name":"spender","type":"address","internalType":"address"}],"outputs":[{"name":"","type":"uint256","internalType":"uint256"}],"stateMutability":"view"},{"type":"function","name":"approve","inputs":[{"name":"spender","type":"address","internalType":"address"},{"name":"value","type":"uint256","internalType":"uint256"}],"outputs":[{"name":"","type":"bool","internalType":"bool"}],"stateMutability":"nonpayable"},{"type":"function","name":"assetPrice","inputs":[],"outputs":[{"name":"","type":"uint256","internalType":"uint256"}],"stateMutability":"view"},{"type":"function","name":"balanceOf","inputs":[{"name":"account","type":"address","internalType":"address"}],"outputs":[{"name":"","type":"uint256","internalType":"uint256"}],"stateMutability":"view"},{"type":"function","name":"buyFraction","inputs":[{"name":"_to","type":"address","internalType":"address"},{"name":"amount","type":"uint256","internalType":"uint256"}],"outputs":[],"stateMutability":"nonpayable"},{"type":"function","name":"decimals","inputs":[],"outputs":[{"name":"","type":"uint8","internalType":"uint8"}],"stateMutability":"view"},{"type":"function","name":"eip712Domain","inputs":[],"outputs":[{"name":"fields","type":"bytes1","internalType":"bytes1"},{"name":"name","type":"string","internalType":"string"},{"name":"version","type":"string","internalType":"string"},{"name":"chainId","type":"uint256","internalType":"uint256"},{"name":"verifyingContract","type":"address","internalType":"address"},{"name":"salt","type":"bytes32","internalType":"bytes32"},{"name":"extensions","type":"uint256[]","internalType":"uint256[]"}],"stateMutability":"view"},{"type":"function","name":"getBasePrice","inputs":[],"outputs":[{"name":"","type":"uint256","internalType":"uint256"}],"stateMutability":"view"},{"type":"function","name":"metadata","inputs":[],"outputs":[{"name":"description","type":"string","internalType":"string"},{"name":"uri","type":"string","internalType":"string"},{"name":"metadataHash","type":"bytes32","internalType":"bytes32"}],"stateMutability":"view"},{"type":"function","name":"name","inputs":[],"outputs":[{"name":"","type":"string","internalType":"string"}],"stateMutability":"view"},{"type":"function","name":"nonces","inputs":[{"name":"owner","type":"address","internalType":"address"}],"outputs":[{"name":"","type":"uint256","internalType":"uint256"}],"stateMutability":"view"},{"type":"function","name":"owner","inputs":[],"outputs":[{"name":"","type":"address","internalType":"address"}],"stateMutability":"view"},{"type":"function","name":"pause","inputs":[],"outputs":[],"stateMutability":"nonpayable"},{"type":"function","name":"paused","inputs":[],"outputs":[{"name":"","type":"bool","internalType":"bool"}],"stateMutability":"view"},{"type":"function","name":"paymentToken","inputs":[],"outputs":[{"name":"","type":"address","internalType":"address"}],"stateMutability":"view"},{"type":"function","name":"permit","inputs":[{"name":"owner","type":"address","internalType":"address"},{"name":"spender","type":"address","internalType":"address"},{"name":"value","type":"uint256","internalType":"uint256"},{"name":"deadline","type":"uint256","internalType":"uint256"},{"name":"v","type":"uint8","internalType":"uint8"},{"name":"r","type":"bytes32","internalType":"bytes32"},{"name":"s","type":"bytes32","internalType":"bytes32"}],"outputs":[],"stateMutability":"nonpayable"},{"type":"function","name":"renounceOwnership","inputs":[],"outputs":[],"stateMutability":"nonpayable"},{"type":"function","name":"setPoolAddress","inputs":[{"name":"_poolAddress","type":"address","internalType":"address"}],"outputs":[],"stateMutability":"nonpayable"},{"type":"function","name":"symbol","inputs":[],"outputs":[{"name":"","type":"string","internalType":"string"}],"stateMutability":"view"},{"type":"function","name":"totalSupply","inputs":[],"outputs":[{"name":"","type":"uint256","internalType":"uint256"}],"stateMutability":"view"},{"type":"function","name":"transfer","inputs":[{"name":"to","type":"address","internalType":"address"},{"name":"value","type":"uint256","internalType":"uint256"}],"outputs":[{"name":"","type":"bool","internalType":"bool"}],"stateMutability":"nonpayable"},{"type":"function","name":"transferFrom","inputs":[{"name":"from","type":"address","internalType":"address"},{"name":"to","type":"address","internalType":"address"},{"name":"value","type":"uint256","internalType":"uint256"}],"outputs":[{"name":"","type":"bool","internalType":"bool"}],"stateMutability":"nonpayable"},{"type":"function","name":"transferOwnership","inputs":[{"name":"newOwner","type":"address","internalType":"address"}],"outputs":[],"stateMutability":"nonpayable"},{"type":"function","name":"unpause","inputs":[],"outputs":[],"stateMutability":"nonpayable"},{"type":"function","name":"updateAssetPrice","inputs":[{"name":"newPrice","type":"uint256","internalType":"uint256"}],"outputs":[],"stateMutability":"nonpayable"},{"type":"event","name":"Approval","inputs":[{"name":"owner","type":"address","indexed":true,"internalType":"address"},{"name":"spender","type":"address","indexed":true,"internalType":"address"},{"name":"value","type":"uint256","indexed":false,"internalType":"uint256"}],"anonymous":false},{"type":"event","name":"BuyFractionalized","inputs":[{"name":"from","type":"address","indexed":true,"internalType":"address"},{"name":"to","type":"address","indexed":true,"internalType":"address"},{"name":"amount","type":"uint256","indexed":false,"internalType":"uint256"}],"anonymous":false},{"type":"event","name":"EIP712DomainChanged","inputs":[],"anonymous":false},{"type":"event","name":"OwnershipTransferred","inputs":[{"name":"previousOwner","type":"address","indexed":true,"internalType":"address"},{"name":"newOwner","type":"address","indexed":true,"internalType":"address"}],"anonymous":false},{"type":"event","name":"Paused","inputs":[{"name":"account","type":"address","indexed":false,"internalType":"address"}],"anonymous":false},{"type":"event","name":"Transfer","inputs":[{"name":"from","type":"address","indexed":true,"internalType":"address"},{"name":"to","type":"address","indexed":true,"internalType":"address"},{"name":"value","type":"uint256","indexed":false,"internalType":"uint256"}],"anonymous":false},{"type":"event","name":"Unpaused","inputs":[{"name":"account","type":"address","indexed":false,"internalType":"address"}],"anonymous":false},{"type":"error","name":"AddressEmptyCode","inputs":[{"name":"target","type":"address","internalType":"address"}]},{"type":"error","name":"AddressInsufficientBalance","inputs":[{"name":"account","type":"address","internalType":"address"}]},{"type":"error","name":"AssetFractionaliser__AmountCannotBeZero","inputs":[]},{"type":"error","name":"ECDSAInvalidSignature","inputs":[]},{"type":"error","name":"ECDSAInvalidSignatureLength","inputs":[{"name":"length","type":"uint256","internalType":"uint256"}]},{"type":"error","name":"ECDSAInvalidSignatureS","inputs":[{"name":"s","type":"bytes32","internalType":"bytes32"}]},{"type":"error","name":"ERC20InsufficientAllowance","inputs":[{"name":"spender","type":"address","internalType":"address"},{"name":"allowance","type":"uint256","internalType":"uint256"},{"name":"needed","type":"uint256","internalType":"uint256"}]},{"type":"error","name":"ERC20InsufficientBalance","inputs":[{"name":"sender","type":"address","internalType":"address"},{"name":"balance","type":"uint256","internalType":"uint256"},{"name":"needed","type":"uint256","internalType":"uint256"}]},{"type":"error","name":"ERC20InvalidApprover","inputs":[{"name":"approver","type":"address","internalType":"address"}]},{"type":"error","name":"ERC20InvalidReceiver","inputs":[{"name":"receiver","type":"address","internalType":"address"}]},{"type":"error","name":"ERC20InvalidSender","inputs":[{"name":"sender","type":"address","internalType":"address"}]},{"type":"error","name":"ERC20InvalidSpender","inputs":[{"name":"spender","type":"address","internalType":"address"}]},{"type":"error","name":"ERC2612ExpiredSignature","inputs":[{"name":"deadline","type":"uint256","internalType":"uint256"}]},{"type":"error","name":"ERC2612InvalidSigner","inputs":[{"name":"signer","type":"address","internalType":"address"},{"name":"owner","type":"address","internalType":"address"}]},{"type":"error","name":"EnforcedPause","inputs":[]},{"type":"error","name":"ExpectedPause","inputs":[]},{"type":"error","name":"FailedInnerCall","inputs":[]},{"type":"error","name":"InvalidAccountNonce","inputs":[{"name":"account","type":"address","internalType":"address"},{"name":"currentNonce","type":"uint256","internalType":"uint256"}]},{"type":"error","name":"InvalidShortString","inputs":[]},{"type":"error","name":"OwnableInvalidOwner","inputs":[{"name":"owner","type":"address","internalType":"address"}]},{"type":"error","name":"OwnableUnauthorizedAccount","inputs":[{"name":"account","type":"address","internalType":"address"}]},{"type":"error","name":"SafeERC20FailedOperation","inputs":[{"name":"token","type":"address","internalType":"address"}]},{"type":"error","name":"StringTooLong","inputs":[{"name":"str","type":"string","internalType":"string"}]}],"bytecode":{"object":"0x6101606040523480156200001257600080fd5b5060405162001e8638038062001e868339810160408190526200003591620003cf565b808980604051806040016040528060018152602001603160f81b8152508c8c816003908162000065919062000565565b50600462000074828262000565565b50506005805460ff19169055506200008e82600662000217565b610120526200009f81600762000217565b61014052815160208084019190912060e052815190820120610100524660a0526200012d60e05161010051604080517f8b73c3c69bb8fe3d512ecc4cf759cc79239f7b179b0ffacaa9a75d522b39400f60208201529081019290925260608201524660808201523060a082015260009060c00160405160208183030381529060405280519060200120905090565b60805250503060c052506001600160a01b0381166200016757604051631e4fbdf760e01b8152600060048201526024015b60405180910390fd5b620001728162000250565b50600a879055600b80546001600160a01b0319166001600160a01b0388161790556040805160608101825286815260208101869052600091810191909152600c80620001bf888262000565565b5060208201516001820190620001d6908262000565565b506040919091015160029091015550600f91909155601080546001600160a01b0319166001600160a01b03909216919091179055506200068b945050505050565b600060208351101562000237576200022f83620002a2565b90506200024a565b8162000244848262000565565b5060ff90505b92915050565b600980546001600160a01b038381166001600160a01b0319831681179093556040519116919082907f8be0079c531659141344cd1fd0a4f28419497f9722a3daafe3b4186f6b6457e090600090a35050565b600080829050601f81511115620002d0578260405163305a27a960e01b81526004016200015e919062000631565b8051620002dd8262000666565b179392505050565b634e487b7160e01b600052604160045260246000fd5b60005b8381101562000318578181015183820152602001620002fe565b50506000910152565b600082601f8301126200033357600080fd5b81516001600160401b0380821115620003505762000350620002e5565b604051601f8301601f19908116603f011681019082821181831017156200037b576200037b620002e5565b816040528381528660208588010111156200039557600080fd5b620003a8846020830160208901620002fb565b9695505050505050565b80516001600160a01b0381168114620003ca57600080fd5b919050565b60008060008060008060008060006101208a8c031215620003ef57600080fd5b89516001600160401b03808211156200040757600080fd5b620004158d838e0162000321565b9a5060208c01519150808211156200042c57600080fd5b6200043a8d838e0162000321565b995060408c015198506200045160608d01620003b2565b975060808c01519150808211156200046857600080fd5b620004768d838e0162000321565b965060a08c01519150808211156200048d57600080fd5b506200049c8c828d0162000321565b94505060c08a01519250620004b460e08b01620003b2565b9150620004c56101008b01620003b2565b90509295985092959850929598565b600181811c90821680620004e957607f821691505b6020821081036200050a57634e487b7160e01b600052602260045260246000fd5b50919050565b601f82111562000560576000816000526020600020601f850160051c810160208610156200053b5750805b601f850160051c820191505b818110156200055c5782815560010162000547565b5050505b505050565b81516001600160401b03811115620005815762000581620002e5565b6200059981620005928454620004d4565b8462000510565b602080601f831160018114620005d15760008415620005b85750858301515b600019600386901b1c1916600185901b1785556200055c565b600085815260208120601f198616915b828110156200060257888601518255948401946001909101908401620005e1565b5085821015620006215787850151600019600388901b60f8161c191681555b5050505050600190811b01905550565b602081526000825180602084015262000652816040850160208701620002fb565b601f01601f19169190910160400192915050565b805160208083015191908110156200050a5760001960209190910360031b1b16919050565b60805160a05160c05160e0516101005161012051610140516117a0620006e66000396000610c6801526000610c3b01526000610ad501526000610aad01526000610a0801526000610a3201526000610a5c01526117a06000f3fe608060405234801561001057600080fd5b506004361061018e5760003560e01c80638456cb59116100de578063b2fdd80911610097578063d505accf11610071578063d505accf14610331578063dd62ed3e14610344578063e9e15b4f1461037d578063f2fde38b1461039057600080fd5b8063b2fdd8091461030d578063b49f4afd14610320578063d24378eb1461032857600080fd5b80638456cb59146102ab57806384b0196e146102b35780638da5cb5b146102ce5780638eccc8ce146102df57806395d89b41146102f2578063a9059cbb146102fa57600080fd5b80633644e5151161014b5780635c975abb116101255780635c975abb1461025c57806370a0823114610267578063715018a6146102905780637ecebe001461029857600080fd5b80633644e51514610233578063392f37e91461023b5780633f4ba83a1461025257600080fd5b806306fdde0314610193578063095ea7b3146101b157806318160ddd146101d457806323b872dd146101e65780633013ce29146101f9578063313ce56714610224575b600080fd5b61019b6103a3565b6040516101a8919061145e565b60405180910390f35b6101c46101bf36600461148d565b610435565b60405190151581526020016101a8565b6002545b6040519081526020016101a8565b6101c46101f43660046114b7565b61044f565b600b5461020c906001600160a01b031681565b6040516001600160a01b0390911681526020016101a8565b604051601281526020016101a8565b6101d8610475565b610243610484565b6040516101a8939291906114f3565b61025a6105aa565b005b60055460ff166101c4565b6101d8610275366004611529565b6001600160a01b031660009081526020819052604090205490565b61025a6105b4565b6101d86102a6366004611529565b6105c6565b61025a6105e4565b6102bb6105ec565b6040516101a89796959493929190611544565b6009546001600160a01b031661020c565b61025a6102ed3660046115dd565b610632565b61019b61063f565b6101c461030836600461148d565b61064e565b61025a61031b36600461148d565b61065c565b600a546101d8565b6101d8600a5481565b61025a61033f3660046115f6565b61076f565b6101d8610352366004611669565b6001600160a01b03918216600090815260016020908152604080832093909416825291909152205490565b61025a61038b366004611529565b6108a9565b61025a61039e366004611529565b6108d3565b6060600380546103b29061169c565b80601f01602080910402602001604051908101604052809291908181526020018280546103de9061169c565b801561042b5780601f106104005761010080835404028352916020019161042b565b820191906000526020600020905b81548152906001019060200180831161040e57829003601f168201915b5050505050905090565b600033610443818585610911565b60019150505b92915050565b60003361045d85828561091e565b61046885858561099c565b60019150505b9392505050565b600061047f6109fb565b905090565b600c805481906104939061169c565b80601f01602080910402602001604051908101604052809291908181526020018280546104bf9061169c565b801561050c5780601f106104e15761010080835404028352916020019161050c565b820191906000526020600020905b8154815290600101906020018083116104ef57829003601f168201915b5050505050908060010180546105219061169c565b80601f016020809104026020016040519081016040528092919081815260200182805461054d9061169c565b801561059a5780601f1061056f5761010080835404028352916020019161059a565b820191906000526020600020905b81548152906001019060200180831161057d57829003601f168201915b5050505050908060020154905083565b6105b2610b26565b565b6105bc610b78565b6105b26000610ba5565b6001600160a01b038116600090815260086020526040812054610449565b6105b2610bf7565b600060608060008060006060610600610c34565b610608610c61565b60408051600080825260208201909252600f60f81b9b939a50919850469750309650945092509050565b61063a610b78565b600a55565b6060600480546103b29061169c565b60003361044381858561099c565b600f548161066960025490565b61067391906116ec565b11156106c65760405162461bcd60e51b815260206004820152601e60248201527f4672616374696f6e616c697a65723a20417373657420736f6c64206f7574000060448201526064015b60405180910390fd5b806000036106e7576040516302fabfd360e01b815260040160405180910390fd5b6000600a54826106f791906116ff565b601054600b54919250610719916001600160a01b039081169133911684610c8e565b601054600a546040519081526001600160a01b039091169033907ffd1e8bfe848eb381d4fc18065422d43bd948210142a4b5d6f53f71403582118b9060200160405180910390a361076a8383610ce8565b505050565b834211156107935760405163313c898160e11b8152600481018590526024016106bd565b60007f6e71edae12b1b97f4d1f60370fef10105fa2faae0126114a169c64845d6126c98888886107e08c6001600160a01b0316600090815260086020526040902080546001810190915590565b6040805160208101969096526001600160a01b0394851690860152929091166060840152608083015260a082015260c0810186905260e001604051602081830303815290604052805190602001209050600061083b82610d22565b9050600061084b82878787610d4f565b9050896001600160a01b0316816001600160a01b031614610892576040516325c0072360e11b81526001600160a01b0380831660048301528b1660248201526044016106bd565b61089d8a8a8a610911565b50505050505050505050565b6108b1610b78565b601080546001600160a01b0319166001600160a01b0392909216919091179055565b6108db610b78565b6001600160a01b03811661090557604051631e4fbdf760e01b8152600060048201526024016106bd565b61090e81610ba5565b50565b61076a8383836001610d7d565b6001600160a01b038381166000908152600160209081526040808320938616835292905220546000198114610996578181101561098757604051637dc7a0d960e11b81526001600160a01b038416600482015260248101829052604481018390526064016106bd565b61099684848484036000610d7d565b50505050565b6001600160a01b0383166109c657604051634b637e8f60e11b8152600060048201526024016106bd565b6001600160a01b0382166109f05760405163ec442f0560e01b8152600060048201526024016106bd565b61076a838383610e52565b6000306001600160a01b037f000000000000000000000000000000000000000000000000000000000000000016148015610a5457507f000000000000000000000000000000000000000000000000000000000000000046145b15610a7e57507f000000000000000000000000000000000000000000000000000000000000000090565b61047f604080517f8b73c3c69bb8fe3d512ecc4cf759cc79239f7b179b0ffacaa9a75d522b39400f60208201527f0000000000000000000000000000000000000000000000000000000000000000918101919091527f000000000000000000000000000000000000000000000000000000000000000060608201524660808201523060a082015260009060c00160405160208183030381529060405280519060200120905090565b610b2e610e5d565b6005805460ff191690557f5db9ee0a495bf2e6ff9c91a7834c1ba4fdd244a5e8aa4e537bd38aeae4b073aa335b6040516001600160a01b03909116815260200160405180910390a1565b6009546001600160a01b031633146105b25760405163118cdaa760e01b81523360048201526024016106bd565b600980546001600160a01b038381166001600160a01b0319831681179093556040519116919082907f8be0079c531659141344cd1fd0a4f28419497f9722a3daafe3b4186f6b6457e090600090a35050565b610bff610e80565b6005805460ff191660011790557f62e78cea01bee320cd4e420270b5ea74000d11b0c9f74754ebdbfc544b05a258610b5b3390565b606061047f7f00000000000000000000000000000000000000000000000000000000000000006006610ea4565b606061047f7f00000000000000000000000000000000000000000000000000000000000000006007610ea4565b604080516001600160a01b0385811660248301528416604482015260648082018490528251808303909101815260849091019091526020810180516001600160e01b03166323b872dd60e01b179052610996908590610f4f565b6001600160a01b038216610d125760405163ec442f0560e01b8152600060048201526024016106bd565b610d1e60008383610e52565b5050565b6000610449610d2f6109fb565b8360405161190160f01b8152600281019290925260228201526042902090565b600080600080610d6188888888610fb2565b925092509250610d718282611081565b50909695505050505050565b6001600160a01b038416610da75760405163e602df0560e01b8152600060048201526024016106bd565b6001600160a01b038316610dd157604051634a1406b160e11b8152600060048201526024016106bd565b6001600160a01b038085166000908152600160209081526040808320938716835292905220829055801561099657826001600160a01b0316846001600160a01b03167f8c5be1e5ebec7d5bd14f71427d1e84f3dd0314c0f7b2291e5b200ac8c7c3b92584604051610e4491815260200190565b60405180910390a350505050565b61076a83838361113a565b60055460ff166105b257604051638dfc202b60e01b815260040160405180910390fd5b60055460ff16156105b25760405163d93c066560e01b815260040160405180910390fd5b606060ff8314610ebe57610eb78361114d565b9050610449565b818054610eca9061169c565b80601f0160208091040260200160405190810160405280929190818152602001828054610ef69061169c565b8015610f435780601f10610f1857610100808354040283529160200191610f43565b820191906000526020600020905b815481529060010190602001808311610f2657829003601f168201915b50505050509050610449565b6000610f646001600160a01b0384168361118c565b90508051600014158015610f89575080806020019051810190610f879190611716565b155b1561076a57604051635274afe760e01b81526001600160a01b03841660048201526024016106bd565b600080807f7fffffffffffffffffffffffffffffff5d576e7357a4501ddfe92f46681b20a0841115610fed5750600091506003905082611077565b604080516000808252602082018084528a905260ff891692820192909252606081018790526080810186905260019060a0016020604051602081039080840390855afa158015611041573d6000803e3d6000fd5b5050604051601f1901519150506001600160a01b03811661106d57506000925060019150829050611077565b9250600091508190505b9450945094915050565b600082600381111561109557611095611738565b0361109e575050565b60018260038111156110b2576110b2611738565b036110d05760405163f645eedf60e01b815260040160405180910390fd5b60028260038111156110e4576110e4611738565b036111055760405163fce698f760e01b8152600481018290526024016106bd565b600382600381111561111957611119611738565b03610d1e576040516335e2f38360e21b8152600481018290526024016106bd565b611142610e80565b61076a83838361119a565b6060600061115a836112c4565b604080516020808252818301909252919250600091906020820181803683375050509182525060208101929092525090565b606061046e838360006112ec565b6001600160a01b0383166111c55780600260008282546111ba91906116ec565b909155506112379050565b6001600160a01b038316600090815260208190526040902054818110156112185760405163391434e360e21b81526001600160a01b038516600482015260248101829052604481018390526064016106bd565b6001600160a01b03841660009081526020819052604090209082900390555b6001600160a01b03821661125357600280548290039055611272565b6001600160a01b03821660009081526020819052604090208054820190555b816001600160a01b0316836001600160a01b03167fddf252ad1be2c89b69c2b068fc378daa952ba7f163c4a11628f55a4df523b3ef836040516112b791815260200190565b60405180910390a3505050565b600060ff8216601f81111561044957604051632cd44ac360e21b815260040160405180910390fd5b6060814710156113115760405163cd78605960e01b81523060048201526024016106bd565b600080856001600160a01b0316848660405161132d919061174e565b60006040518083038185875af1925050503d806000811461136a576040519150601f19603f3d011682016040523d82523d6000602084013e61136f565b606091505b509150915061137f868383611389565b9695505050505050565b60608261139e57611399826113e5565b61046e565b81511580156113b557506001600160a01b0384163b155b156113de57604051639996b31560e01b81526001600160a01b03851660048201526024016106bd565b508061046e565b8051156113f55780518082602001fd5b604051630a12f52160e11b815260040160405180910390fd5b60005b83811015611429578181015183820152602001611411565b50506000910152565b6000815180845261144a81602086016020860161140e565b601f01601f19169290920160200192915050565b60208152600061046e6020830184611432565b80356001600160a01b038116811461148857600080fd5b919050565b600080604083850312156114a057600080fd5b6114a983611471565b946020939093013593505050565b6000806000606084860312156114cc57600080fd5b6114d584611471565b92506114e360208501611471565b9150604084013590509250925092565b6060815260006115066060830186611432565b82810360208401526115188186611432565b915050826040830152949350505050565b60006020828403121561153b57600080fd5b61046e82611471565b60ff60f81b881681526000602060e0602084015261156560e084018a611432565b8381036040850152611577818a611432565b606085018990526001600160a01b038816608086015260a0850187905284810360c08601528551808252602080880193509091019060005b818110156115cb578351835292840192918401916001016115af565b50909c9b505050505050505050505050565b6000602082840312156115ef57600080fd5b5035919050565b600080600080600080600060e0888a03121561161157600080fd5b61161a88611471565b965061162860208901611471565b95506040880135945060608801359350608088013560ff8116811461164c57600080fd5b9699959850939692959460a0840135945060c09093013592915050565b6000806040838503121561167c57600080fd5b61168583611471565b915061169360208401611471565b90509250929050565b600181811c908216806116b057607f821691505b6020821081036116d057634e487b7160e01b600052602260045260246000fd5b50919050565b634e487b7160e01b600052601160045260246000fd5b80820180821115610449576104496116d6565b8082028115828204841417610449576104496116d6565b60006020828403121561172857600080fd5b8151801515811461046e57600080fd5b634e487b7160e01b600052602160045260246000fd5b6000825161176081846020870161140e565b919091019291505056fea2646970667358221220038235980f2ec3262980f2cc0666156ad74b947acf00fd50eff4bae9834dc15e64736f6c63430008170033","linkReferences":{}},"methodIdentifiers":{"DOMAIN_SEPARATOR()":"3644e515","allowance(address,address)":"dd62ed3e","approve(address,uint256)":"095ea7b3","assetPrice()":"d24378eb","balanceOf(address)":"70a08231","buyFraction(address,uint256)":"b2fdd809","decimals()":"313ce567","eip712Domain()":"84b0196e","getBasePrice()":"b49f4afd","metadata()":"392f37e9","name()":"06fdde03","nonces(address)":"7ecebe00","owner()":"8da5cb5b","pause()":"8456cb59","paused()":"5c975abb","paymentToken()":"3013ce29","permit(address,address,uint256,uint256,uint8,bytes32,bytes32)":"d505accf","renounceOwnership()":"715018a6","setPoolAddress(address)":"e9e15b4f","symbol()":"95d89b41","totalSupply()":"18160ddd","transfer(address,uint256)":"a9059cbb","transferFrom(address,address,uint256)":"23b872dd","transferOwnership(address)":"f2fde38b","unpause()":"3f4ba83a","updateAssetPrice(uint256)":"8eccc8ce"},"id":55}