{"abi":[{"type":"constructor","inputs":[],"stateMutability":"nonpayable"},{"type":"function","name":"FractionalizerFactory","inputs":[],"outputs":[{"name":"","type":"address","internalType":"address"}],"stateMutability":"view"},{"type":"function","name":"addAuditorTeam","inputs":[{"name":"_auditorTeam","type":"address","internalType":"address"}],"outputs":[],"stateMutability":"nonpayable"},{"type":"function","name":"addLegalTeam","inputs":[{"name":"_legalTeam","type":"address","internalType":"address"}],"outputs":[],"stateMutability":"nonpayable"},{"type":"function","name":"approve","inputs":[{"name":"to","type":"address","internalType":"address"},{"name":"tokenId","type":"uint256","internalType":"uint256"}],"outputs":[],"stateMutability":"nonpayable"},{"type":"function","name":"assetList","inputs":[{"name":"","type":"uint256","internalType":"uint256"}],"outputs":[{"name":"name","type":"string","internalType":"string"},{"name":"value","type":"uint256","internalType":"uint256"},{"name":"owner","type":"address","internalType":"address"},{"name":"verify","type":"bool","internalType":"bool"},{"name":"tokenid","type":"uint256","internalType":"uint256"},{"name":"uri","type":"string","internalType":"string"}],"stateMutability":"view"},{"type":"function","name":"audtiorTeam","inputs":[{"name":"","type":"address","internalType":"address"}],"outputs":[{"name":"","type":"address","internalType":"address"}],"stateMutability":"view"},{"type":"function","name":"balanceOf","inputs":[{"name":"owner","type":"address","internalType":"address"}],"outputs":[{"name":"","type":"uint256","internalType":"uint256"}],"stateMutability":"view"},{"type":"function","name":"burn","inputs":[{"name":"tokenId","type":"uint256","internalType":"uint256"}],"outputs":[],"stateMutability":"nonpayable"},{"type":"function","name":"createAsset","inputs":[{"name":"_owner","type":"address","internalType":"address"},{"name":"_assetName","type":"string","internalType":"string"},{"name":"_assertUri","type":"string","internalType":"string"}],"outputs":[{"name":"","type":"bool","internalType":"bool"}],"stateMutability":"nonpayable"},{"type":"function","name":"getApproved","inputs":[{"name":"tokenId","type":"uint256","internalType":"uint256"}],"outputs":[{"name":"","type":"address","internalType":"address"}],"stateMutability":"view"},{"type":"function","name":"getAsset","inputs":[{"name":"tokenId","type":"uint256","internalType":"uint256"}],"outputs":[{"name":"","type":"tuple","internalType":"struct AssetVerification.Asset","components":[{"name":"name","type":"string","internalType":"string"},{"name":"value","type":"uint256","internalType":"uint256"},{"name":"owner","type":"address","internalType":"address"},{"name":"verify","type":"bool","internalType":"bool"},{"name":"tokenid","type":"uint256","internalType":"uint256"},{"name":"uri","type":"string","internalType":"string"}]}],"stateMutability":"view"},{"type":"function","name":"isApprovedForAll","inputs":[{"name":"owner","type":"address","internalType":"address"},{"name":"operator","type":"address","internalType":"address"}],"outputs":[{"name":"","type":"bool","internalType":"bool"}],"stateMutability":"view"},{"type":"function","name":"legalTeam","inputs":[{"name":"","type":"address","internalType":"address"}],"outputs":[{"name":"","type":"address","internalType":"address"}],"stateMutability":"view"},{"type":"function","name":"name","inputs":[],"outputs":[{"name":"","type":"string","internalType":"string"}],"stateMutability":"view"},{"type":"function","name":"owner","inputs":[],"outputs":[{"name":"","type":"address","internalType":"address"}],"stateMutability":"view"},{"type":"function","name":"ownerOf","inputs":[{"name":"tokenId","type":"uint256","internalType":"uint256"}],"outputs":[{"name":"","type":"address","internalType":"address"}],"stateMutability":"view"},{"type":"function","name":"pause","inputs":[],"outputs":[],"stateMutability":"nonpayable"},{"type":"function","name":"paused","inputs":[],"outputs":[{"name":"","type":"bool","internalType":"bool"}],"stateMutability":"view"},{"type":"function","name":"renounceOwnership","inputs":[],"outputs":[],"stateMutability":"nonpayable"},{"type":"function","name":"safeTransferFrom","inputs":[{"name":"from","type":"address","internalType":"address"},{"name":"to","type":"address","internalType":"address"},{"name":"tokenId","type":"uint256","internalType":"uint256"}],"outputs":[],"stateMutability":"nonpayable"},{"type":"function","name":"safeTransferFrom","inputs":[{"name":"from","type":"address","internalType":"address"},{"name":"to","type":"address","internalType":"address"},{"name":"tokenId","type":"uint256","internalType":"uint256"},{"name":"data","type":"bytes","internalType":"bytes"}],"outputs":[],"stateMutability":"nonpayable"},{"type":"function","name":"setApprovalForAll","inputs":[{"name":"operator","type":"address","internalType":"address"},{"name":"approved","type":"bool","internalType":"bool"}],"outputs":[],"stateMutability":"nonpayable"},{"type":"function","name":"setFactoryContractaddress","inputs":[{"name":"_factoryContract","type":"address","internalType":"address"}],"outputs":[],"stateMutability":"nonpayable"},{"type":"function","name":"supportsInterface","inputs":[{"name":"interfaceId","type":"bytes4","internalType":"bytes4"}],"outputs":[{"name":"","type":"bool","internalType":"bool"}],"stateMutability":"view"},{"type":"function","name":"symbol","inputs":[],"outputs":[{"name":"","type":"string","internalType":"string"}],"stateMutability":"view"},{"type":"function","name":"tokenURI","inputs":[{"name":"tokenId","type":"uint256","internalType":"uint256"}],"outputs":[{"name":"","type":"string","internalType":"string"}],"stateMutability":"view"},{"type":"function","name":"transferFrom","inputs":[{"name":"from","type":"address","internalType":"address"},{"name":"to","type":"address","internalType":"address"},{"name":"tokenId","type":"uint256","internalType":"uint256"}],"outputs":[],"stateMutability":"nonpayable"},{"type":"function","name":"transferOwnership","inputs":[{"name":"newOwner","type":"address","internalType":"address"}],"outputs":[],"stateMutability":"nonpayable"},{"type":"function","name":"unpause","inputs":[],"outputs":[],"stateMutability":"nonpayable"},{"type":"function","name":"updateAsset","inputs":[{"name":"_tokenId","type":"uint256","internalType":"uint256"},{"name":"_value","type":"uint256","internalType":"uint256"}],"outputs":[{"name":"","type":"bool","internalType":"bool"}],"stateMutability":"nonpayable"},{"type":"event","name":"Approval","inputs":[{"name":"owner","type":"address","indexed":true,"internalType":"address"},{"name":"approved","type":"address","indexed":true,"internalType":"address"},{"name":"tokenId","type":"uint256","indexed":true,"internalType":"uint256"}],"anonymous":false},{"type":"event","name":"ApprovalForAll","inputs":[{"name":"owner","type":"address","indexed":true,"internalType":"address"},{"name":"operator","type":"address","indexed":true,"internalType":"address"},{"name":"approved","type":"bool","indexed":false,"internalType":"bool"}],"anonymous":false},{"type":"event","name":"AssetCreated","inputs":[{"name":"owner","type":"address","indexed":true,"internalType":"address"},{"name":"tokenId","type":"uint256","indexed":true,"internalType":"uint256"},{"name":"uri","type":"string","indexed":false,"internalType":"string"}],"anonymous":false},{"type":"event","name":"AssetUpdated","inputs":[{"name":"value","type":"uint256","indexed":true,"internalType":"uint256"},{"name":"owner","type":"address","indexed":true,"internalType":"address"}],"anonymous":false},{"type":"event","name":"BatchMetadataUpdate","inputs":[{"name":"_fromTokenId","type":"uint256","indexed":false,"internalType":"uint256"},{"name":"_toTokenId","type":"uint256","indexed":false,"internalType":"uint256"}],"anonymous":false},{"type":"event","name":"MetadataUpdate","inputs":[{"name":"_tokenId","type":"uint256","indexed":false,"internalType":"uint256"}],"anonymous":false},{"type":"event","name":"OwnershipTransferred","inputs":[{"name":"previousOwner","type":"address","indexed":true,"internalType":"address"},{"name":"newOwner","type":"address","indexed":true,"internalType":"address"}],"anonymous":false},{"type":"event","name":"Paused","inputs":[{"name":"account","type":"address","indexed":false,"internalType":"address"}],"anonymous":false},{"type":"event","name":"Transfer","inputs":[{"name":"from","type":"address","indexed":true,"internalType":"address"},{"name":"to","type":"address","indexed":true,"internalType":"address"},{"name":"tokenId","type":"uint256","indexed":true,"internalType":"uint256"}],"anonymous":false},{"type":"event","name":"Unpaused","inputs":[{"name":"account","type":"address","indexed":false,"internalType":"address"}],"anonymous":false},{"type":"error","name":"AssetVerification__AddressCanNotBeZero","inputs":[]},{"type":"error","name":"AssetVerification__OnlyAuditorTeamCanVerifyAssets","inputs":[]},{"type":"error","name":"AssetVerification__OnlyLegalTeamCanVerifyAssets","inputs":[]},{"type":"error","name":"ERC721IncorrectOwner","inputs":[{"name":"sender","type":"address","internalType":"address"},{"name":"tokenId","type":"uint256","internalType":"uint256"},{"name":"owner","type":"address","internalType":"address"}]},{"type":"error","name":"ERC721InsufficientApproval","inputs":[{"name":"operator","type":"address","internalType":"address"},{"name":"tokenId","type":"uint256","internalType":"uint256"}]},{"type":"error","name":"ERC721InvalidApprover","inputs":[{"name":"approver","type":"address","internalType":"address"}]},{"type":"error","name":"ERC721InvalidOperator","inputs":[{"name":"operator","type":"address","internalType":"address"}]},{"type":"error","name":"ERC721InvalidOwner","inputs":[{"name":"owner","type":"address","internalType":"address"}]},{"type":"error","name":"ERC721InvalidReceiver","inputs":[{"name":"receiver","type":"address","internalType":"address"}]},{"type":"error","name":"ERC721InvalidSender","inputs":[{"name":"sender","type":"address","internalType":"address"}]},{"type":"error","name":"ERC721NonexistentToken","inputs":[{"name":"tokenId","type":"uint256","internalType":"uint256"}]},{"type":"error","name":"EnforcedPause","inputs":[]},{"type":"error","name":"ExpectedPause","inputs":[]},{"type":"error","name":"OwnableInvalidOwner","inputs":[{"name":"owner","type":"address","internalType":"address"}]},{"type":"error","name":"OwnableUnauthorizedAccount","inputs":[{"name":"account","type":"address","internalType":"address"}]}],"bytecode":{"object":"0x608060405234801561001057600080fd5b50336040518060400160405280601081526020016f149150530815d3d49311081054d4d15560821b815250604051806040016040528060038152602001621415d160ea1b815250816000908161006691906101b8565b50600161007382826101b8565b50506007805460ff19169055506001600160a01b0381166100ae57604051631e4fbdf760e01b81526000600482015260240160405180910390fd5b6100b7816100bd565b50610277565b600780546001600160a01b03838116610100818102610100600160a81b031985161790945560405193909204169182907f8be0079c531659141344cd1fd0a4f28419497f9722a3daafe3b4186f6b6457e090600090a35050565b634e487b7160e01b600052604160045260246000fd5b600181811c9082168061014157607f821691505b60208210810361016157634e487b7160e01b600052602260045260246000fd5b50919050565b601f8211156101b3576000816000526020600020601f850160051c810160208610156101905750805b601f850160051c820191505b818110156101af5782815560010161019c565b5050505b505050565b81516001600160401b038111156101d1576101d1610117565b6101e5816101df845461012d565b84610167565b602080601f83116001811461021a57600084156102025750858301515b600019600386901b1c1916600185901b1785556101af565b600085815260208120601f198616915b828110156102495788860151825594840194600190910190840161022a565b50858210156102675787850151600019600388901b60f8161c191681555b5050505050600190811b01905550565b611f17806102866000396000f3fe608060405234801561001057600080fd5b50600436106101da5760003560e01c80636352211e11610104578063a0b4b301116100a2578063c87b56dd11610071578063c87b56dd14610419578063e985e9c51461042c578063eac8f5b81461043f578063f2fde38b1461045f57600080fd5b8063a0b4b301146103bb578063a22cb465146103e0578063a5858300146103f3578063b88d4fde1461040657600080fd5b8063715018a6116100de578063715018a61461038d5780638456cb59146103955780638da5cb5b1461039d57806395d89b41146103b357600080fd5b80636352211e14610346578063669b90081461035957806370a082311461036c57600080fd5b806323b872dd1161017c5780633f4ba83a1161014b5780633f4ba83a1461030d57806342842e0e1461031557806342966c68146103285780635c975abb1461033b57600080fd5b806323b872dd146102ab578063251f46e8146102be5780632ab8a3d0146102d15780633e2ea398146102fa57600080fd5b8063095ea7b3116101b8578063095ea7b314610247578063098762501461025c5780630a57cd501461028557806315c645751461029857600080fd5b806301ffc9a7146101df57806306fdde0314610207578063081812fc1461021c575b600080fd5b6101f26101ed366004611850565b610472565b60405190151581526020015b60405180910390f35b61020f610483565b6040516101fe91906118bd565b61022f61022a3660046118d0565b610515565b6040516001600160a01b0390911681526020016101fe565b61025a610255366004611905565b61053e565b005b61022f61026a36600461192f565b600c602052600090815260409020546001600160a01b031681565b61025a61029336600461192f565b61054d565b60085461022f906001600160a01b031681565b61025a6102b936600461194a565b61057f565b6101f26102cc366004611a32565b61060f565b61022f6102df36600461192f565b600b602052600090815260409020546001600160a01b031681565b61025a61030836600461192f565b610811565b61025a61085c565b61025a61032336600461194a565b61086e565b61025a6103363660046118d0565b61088e565b60075460ff166101f2565b61022f6103543660046118d0565b61089a565b6101f2610367366004611aa6565b6108a5565b61037f61037a36600461192f565b610936565b6040519081526020016101fe565b61025a61097e565b61025a610990565b60075461010090046001600160a01b031661022f565b61020f6109a0565b6103ce6103c93660046118d0565b6109af565b6040516101fe96959493929190611ac8565b61025a6103ee366004611b1f565b610b06565b61025a61040136600461192f565b610b11565b61025a610414366004611b5b565b610b43565b61020f6104273660046118d0565b610b5a565b6101f261043a366004611bd7565b610b65565b61045261044d3660046118d0565b610b93565b6040516101fe9190611c0a565b61025a61046d36600461192f565b610d57565b600061047d82610d95565b92915050565b60606000805461049290611c7e565b80601f01602080910402602001604051908101604052809291908181526020018280546104be90611c7e565b801561050b5780601f106104e05761010080835404028352916020019161050b565b820191906000526020600020905b8154815290600101906020018083116104ee57829003601f168201915b5050505050905090565b600061052082610dba565b506000828152600460205260409020546001600160a01b031661047d565b610549828233610df3565b5050565b610555610e00565b6001600160a01b03166000818152600b6020526040902080546001600160a01b0319169091179055565b6001600160a01b0382166105ae57604051633250574960e11b8152600060048201526024015b60405180910390fd5b60006105bb838333610e33565b9050836001600160a01b0316816001600160a01b031614610609576040516364283d7b60e01b81526001600160a01b03808616600483015260248201849052821660448201526064016105a5565b50505050565b336000908152600b60205260408120546001600160a01b03166106455760405163546cfb5d60e11b815260040160405180910390fd5b836001600160a01b03811661066d57604051634409b67360e11b815260040160405180910390fd5b6008546001600160a01b031661069657604051634409b67360e11b815260040160405180910390fd5b6106a4600980546001019055565b60006106af60095490565b6000818152600a60205260409020909150806106cb8782611d08565b506008546002820180546001600160a81b0319166001600160a01b0390921691909117600160a01b179055600381018290556004810161070b8682611d08565b50600854610722906001600160a01b031683610e48565b6107b88282600401805461073590611c7e565b80601f016020809104026020016040519081016040528092919081815260200182805461076190611c7e565b80156107ae5780601f10610783576101008083540402835291602001916107ae565b820191906000526020600020905b81548152906001019060200180831161079157829003601f168201915b5050505050610e62565b600281015460405183916001600160a01b0316907f59b2e6618bc86b0b11c508924ed07eea4554c0772580d974c564ab4d446f7eab906107fc906004860190611dc8565b60405180910390a35060019695505050505050565b806001600160a01b03811661083957604051634409b67360e11b815260040160405180910390fd5b50600880546001600160a01b0319166001600160a01b0392909216919091179055565b610864610e00565b61086c610eb2565b565b61088983838360405180602001604052806000815250610b43565b505050565b61054960008233610e33565b600061047d82610dba565b336000908152600c60205260408120546001600160a01b03166108db57604051630e97e14f60e01b815260040160405180910390fd5b6000838152600a6020526040808220600181018590556002810154915190926001600160a01b039092169185917fc2df6c5a19f8e42206c974d00007ad34d98483a97c5218c3d9141aebf387678c9190a35060019392505050565b60006001600160a01b038216610962576040516322718ad960e21b8152600060048201526024016105a5565b506001600160a01b031660009081526003602052604090205490565b610986610e00565b61086c6000610f04565b610998610e00565b61086c610f5e565b60606001805461049290611c7e565b600a602052600090815260409020805481906109ca90611c7e565b80601f01602080910402602001604051908101604052809291908181526020018280546109f690611c7e565b8015610a435780601f10610a1857610100808354040283529160200191610a43565b820191906000526020600020905b815481529060010190602001808311610a2657829003601f168201915b50505050600183015460028401546003850154600486018054959693956001600160a01b0384169550600160a01b90930460ff16939192610a8390611c7e565b80601f0160208091040260200160405190810160405280929190818152602001828054610aaf90611c7e565b8015610afc5780601f10610ad157610100808354040283529160200191610afc565b820191906000526020600020905b815481529060010190602001808311610adf57829003601f168201915b5050505050905086565b610549338383610f9b565b610b19610e00565b6001600160a01b03166000818152600c6020526040902080546001600160a01b0319169091179055565b610b4e84848461057f565b6106098484848461103a565b606061047d82611163565b6001600160a01b03918216600090815260056020908152604080832093909416825291909152205460ff1690565b610bd76040518060c00160405280606081526020016000815260200160006001600160a01b0316815260200160001515815260200160008152602001606081525090565b6000828152600a602052604090819020815160c08101909252805482908290610bff90611c7e565b80601f0160208091040260200160405190810160405280929190818152602001828054610c2b90611c7e565b8015610c785780601f10610c4d57610100808354040283529160200191610c78565b820191906000526020600020905b815481529060010190602001808311610c5b57829003601f168201915b50505091835250506001820154602082015260028201546001600160a01b0381166040830152600160a01b900460ff16151560608201526003820154608082015260048201805460a090920191610cce90611c7e565b80601f0160208091040260200160405190810160405280929190818152602001828054610cfa90611c7e565b8015610d475780601f10610d1c57610100808354040283529160200191610d47565b820191906000526020600020905b815481529060010190602001808311610d2a57829003601f168201915b5050505050815250509050919050565b610d5f610e00565b6001600160a01b038116610d8957604051631e4fbdf760e01b8152600060048201526024016105a5565b610d9281610f04565b50565b60006001600160e01b03198216632483248360e11b148061047d575061047d8261126c565b6000818152600260205260408120546001600160a01b03168061047d57604051637e27328960e01b8152600481018490526024016105a5565b61088983838360016112bc565b6007546001600160a01b0361010090910416331461086c5760405163118cdaa760e01b81523360048201526024016105a5565b6000610e408484846113c2565b949350505050565b6105498282604051806020016040528060008152506113d7565b6000828152600660205260409020610e7a8282611d08565b506040518281527ff8e1a15aba9398e019f0b49df1a4fde98ee17ae345cb5f6b5e2c27f5033e8ce79060200160405180910390a15050565b610eba6113ee565b6007805460ff191690557f5db9ee0a495bf2e6ff9c91a7834c1ba4fdd244a5e8aa4e537bd38aeae4b073aa335b6040516001600160a01b03909116815260200160405180910390a1565b600780546001600160a01b03838116610100818102610100600160a81b031985161790945560405193909204169182907f8be0079c531659141344cd1fd0a4f28419497f9722a3daafe3b4186f6b6457e090600090a35050565b610f66611411565b6007805460ff191660011790557f62e78cea01bee320cd4e420270b5ea74000d11b0c9f74754ebdbfc544b05a258610ee73390565b6001600160a01b038216610fcd57604051630b61174360e31b81526001600160a01b03831660048201526024016105a5565b6001600160a01b03838116600081815260056020908152604080832094871680845294825291829020805460ff191686151590811790915591519182527f17307eab39ab6107e8899845ad3d59bd9653f200f220920489ca2b5937696c31910160405180910390a3505050565b6001600160a01b0383163b1561060957604051630a85bd0160e11b81526001600160a01b0384169063150b7a029061107c903390889087908790600401611e58565b6020604051808303816000875af19250505080156110b7575060408051601f3d908101601f191682019092526110b491810190611e95565b60015b611120573d8080156110e5576040519150601f19603f3d011682016040523d82523d6000602084013e6110ea565b606091505b50805160000361111857604051633250574960e11b81526001600160a01b03851660048201526024016105a5565b805181602001fd5b6001600160e01b03198116630a85bd0160e11b1461115c57604051633250574960e11b81526001600160a01b03851660048201526024016105a5565b5050505050565b606061116e82610dba565b506000828152600660205260408120805461118890611c7e565b80601f01602080910402602001604051908101604052809291908181526020018280546111b490611c7e565b80156112015780601f106111d657610100808354040283529160200191611201565b820191906000526020600020905b8154815290600101906020018083116111e457829003601f168201915b50505050509050600061121f60408051602081019091526000815290565b90508051600003611231575092915050565b81511561126357808260405160200161124b929190611eb2565b60405160208183030381529060405292505050919050565b610e4084611435565b60006001600160e01b031982166380ac58cd60e01b148061129d57506001600160e01b03198216635b5e139f60e01b145b8061047d57506301ffc9a760e01b6001600160e01b031983161461047d565b80806112d057506001600160a01b03821615155b156113925760006112e084610dba565b90506001600160a01b0383161580159061130c5750826001600160a01b0316816001600160a01b031614155b801561131f575061131d8184610b65565b155b156113485760405163a9fbf51f60e01b81526001600160a01b03841660048201526024016105a5565b81156113905783856001600160a01b0316826001600160a01b03167f8c5be1e5ebec7d5bd14f71427d1e84f3dd0314c0f7b2291e5b200ac8c7c3b92560405160405180910390a45b505b5050600090815260046020526040902080546001600160a01b0319166001600160a01b0392909216919091179055565b60006113cc611411565b610e408484846114aa565b6113e183836115a3565b610889600084848461103a565b60075460ff1661086c57604051638dfc202b60e01b815260040160405180910390fd5b60075460ff161561086c5760405163d93c066560e01b815260040160405180910390fd5b606061144082610dba565b50600061145860408051602081019091526000815290565b9050600081511161147857604051806020016040528060008152506114a3565b8061148284611608565b604051602001611493929190611eb2565b6040516020818303038152906040525b9392505050565b6000828152600260205260408120546001600160a01b03908116908316156114d7576114d781848661169b565b6001600160a01b03811615611515576114f46000856000806112bc565b6001600160a01b038116600090815260036020526040902080546000190190555b6001600160a01b03851615611544576001600160a01b0385166000908152600360205260409020805460010190555b60008481526002602052604080822080546001600160a01b0319166001600160a01b0389811691821790925591518793918516917fddf252ad1be2c89b69c2b068fc378daa952ba7f163c4a11628f55a4df523b3ef91a4949350505050565b6001600160a01b0382166115cd57604051633250574960e11b8152600060048201526024016105a5565b60006115db83836000610e33565b90506001600160a01b03811615610889576040516339e3563760e11b8152600060048201526024016105a5565b60606000611615836116ff565b600101905060008167ffffffffffffffff81111561163557611635611986565b6040519080825280601f01601f19166020018201604052801561165f576020820181803683370190505b5090508181016020015b600019016f181899199a1a9b1b9c1cb0b131b232b360811b600a86061a8153600a850494508461166957509392505050565b6116a68383836117d7565b610889576001600160a01b0383166116d457604051637e27328960e01b8152600481018290526024016105a5565b60405163177e802f60e01b81526001600160a01b0383166004820152602481018290526044016105a5565b60008072184f03e93ff9f4daa797ed6e38ed64bf6a1f0160401b831061173e5772184f03e93ff9f4daa797ed6e38ed64bf6a1f0160401b830492506040015b6d04ee2d6d415b85acef8100000000831061176a576d04ee2d6d415b85acef8100000000830492506020015b662386f26fc10000831061178857662386f26fc10000830492506010015b6305f5e10083106117a0576305f5e100830492506008015b61271083106117b457612710830492506004015b606483106117c6576064830492506002015b600a831061047d5760010192915050565b60006001600160a01b03831615801590610e405750826001600160a01b0316846001600160a01b0316148061181157506118118484610b65565b80610e405750506000908152600460205260409020546001600160a01b03908116911614919050565b6001600160e01b031981168114610d9257600080fd5b60006020828403121561186257600080fd5b81356114a38161183a565b60005b83811015611888578181015183820152602001611870565b50506000910152565b600081518084526118a981602086016020860161186d565b601f01601f19169290920160200192915050565b6020815260006114a36020830184611891565b6000602082840312156118e257600080fd5b5035919050565b80356001600160a01b038116811461190057600080fd5b919050565b6000806040838503121561191857600080fd5b611921836118e9565b946020939093013593505050565b60006020828403121561194157600080fd5b6114a3826118e9565b60008060006060848603121561195f57600080fd5b611968846118e9565b9250611976602085016118e9565b9150604084013590509250925092565b634e487b7160e01b600052604160045260246000fd5b600067ffffffffffffffff808411156119b7576119b7611986565b604051601f8501601f19908116603f011681019082821181831017156119df576119df611986565b816040528093508581528686860111156119f857600080fd5b858560208301376000602087830101525050509392505050565b600082601f830112611a2357600080fd5b6114a38383356020850161199c565b600080600060608486031215611a4757600080fd5b611a50846118e9565b9250602084013567ffffffffffffffff80821115611a6d57600080fd5b611a7987838801611a12565b93506040860135915080821115611a8f57600080fd5b50611a9c86828701611a12565b9150509250925092565b60008060408385031215611ab957600080fd5b50508035926020909101359150565b60c081526000611adb60c0830189611891565b602083018890526001600160a01b038716604084015285151560608401526080830185905282810360a0840152611b128185611891565b9998505050505050505050565b60008060408385031215611b3257600080fd5b611b3b836118e9565b915060208301358015158114611b5057600080fd5b809150509250929050565b60008060008060808587031215611b7157600080fd5b611b7a856118e9565b9350611b88602086016118e9565b925060408501359150606085013567ffffffffffffffff811115611bab57600080fd5b8501601f81018713611bbc57600080fd5b611bcb8782356020840161199c565b91505092959194509250565b60008060408385031215611bea57600080fd5b611bf3836118e9565b9150611c01602084016118e9565b90509250929050565b602081526000825160c06020840152611c2660e0840182611891565b90506020840151604084015260018060a01b036040850151166060840152606084015115156080840152608084015160a084015260a0840151601f198483030160c0850152611c758282611891565b95945050505050565b600181811c90821680611c9257607f821691505b602082108103611cb257634e487b7160e01b600052602260045260246000fd5b50919050565b601f821115610889576000816000526020600020601f850160051c81016020861015611ce15750805b601f850160051c820191505b81811015611d0057828155600101611ced565b505050505050565b815167ffffffffffffffff811115611d2257611d22611986565b611d3681611d308454611c7e565b84611cb8565b602080601f831160018114611d6b5760008415611d535750858301515b600019600386901b1c1916600185901b178555611d00565b600085815260208120601f198616915b82811015611d9a57888601518255948401946001909101908401611d7b565b5085821015611db85787850151600019600388901b60f8161c191681555b5050505050600190811b01905550565b6000602080835260008454611ddc81611c7e565b8060208701526040600180841660008114611dfe5760018114611e1a57611e4a565b60ff19851660408a0152604084151560051b8a01019550611e4a565b89600052602060002060005b85811015611e415781548b8201860152908301908801611e26565b8a016040019650505b509398975050505050505050565b6001600160a01b0385811682528416602082015260408101839052608060608201819052600090611e8b90830184611891565b9695505050505050565b600060208284031215611ea757600080fd5b81516114a38161183a565b60008351611ec481846020880161186d565b835190830190611ed881836020880161186d565b0194935050505056fea26469706673582212203649c5912ab9416b081df3e70043773690aaa0a7a4fe2a11fb315b27c743cf4764736f6c63430008190033","linkReferences":{}},"methodIdentifiers":{"FractionalizerFactory()":"15c64575","addAuditorTeam(address)":"a5858300","addLegalTeam(address)":"0a57cd50","approve(address,uint256)":"095ea7b3","assetList(uint256)":"a0b4b301","audtiorTeam(address)":"09876250","balanceOf(address)":"70a08231","burn(uint256)":"42966c68","createAsset(address,string,string)":"251f46e8","getApproved(uint256)":"081812fc","getAsset(uint256)":"eac8f5b8","isApprovedForAll(address,address)":"e985e9c5","legalTeam(address)":"2ab8a3d0","name()":"06fdde03","owner()":"8da5cb5b","ownerOf(uint256)":"6352211e","pause()":"8456cb59","paused()":"5c975abb","renounceOwnership()":"715018a6","safeTransferFrom(address,address,uint256)":"42842e0e","safeTransferFrom(address,address,uint256,bytes)":"b88d4fde","setApprovalForAll(address,bool)":"a22cb465","setFactoryContractaddress(address)":"3e2ea398","supportsInterface(bytes4)":"01ffc9a7","symbol()":"95d89b41","tokenURI(uint256)":"c87b56dd","transferFrom(address,address,uint256)":"23b872dd","transferOwnership(address)":"f2fde38b","unpause()":"3f4ba83a","updateAsset(uint256,uint256)":"669b9008"},"id":3}