{"abi":[{"type":"constructor","inputs":[{"name":"_owner","type":"address","internalType":"address"}],"stateMutability":"nonpayable"},{"type":"function","name":"FractionalizerFactory","inputs":[],"outputs":[{"name":"","type":"address","internalType":"address"}],"stateMutability":"view"},{"type":"function","name":"addAuditorTeam","inputs":[{"name":"_auditorTeam","type":"address","internalType":"address"}],"outputs":[],"stateMutability":"nonpayable"},{"type":"function","name":"addLegalTeam","inputs":[{"name":"_legalTeam","type":"address","internalType":"address"}],"outputs":[],"stateMutability":"nonpayable"},{"type":"function","name":"approve","inputs":[{"name":"to","type":"address","internalType":"address"},{"name":"tokenId","type":"uint256","internalType":"uint256"}],"outputs":[],"stateMutability":"nonpayable"},{"type":"function","name":"assetList","inputs":[{"name":"","type":"uint256","internalType":"uint256"}],"outputs":[{"name":"name","type":"string","internalType":"string"},{"name":"value","type":"uint256","internalType":"uint256"},{"name":"owner","type":"address","internalType":"address"},{"name":"verify","type":"bool","internalType":"bool"},{"name":"tokenid","type":"uint256","internalType":"uint256"},{"name":"uri","type":"string","internalType":"string"}],"stateMutability":"view"},{"type":"function","name":"audtiorTeam","inputs":[{"name":"","type":"address","internalType":"address"}],"outputs":[{"name":"","type":"address","internalType":"address"}],"stateMutability":"view"},{"type":"function","name":"balanceOf","inputs":[{"name":"owner","type":"address","internalType":"address"}],"outputs":[{"name":"","type":"uint256","internalType":"uint256"}],"stateMutability":"view"},{"type":"function","name":"burn","inputs":[{"name":"tokenId","type":"uint256","internalType":"uint256"}],"outputs":[],"stateMutability":"nonpayable"},{"type":"function","name":"createAsset","inputs":[{"name":"_owner","type":"address","internalType":"address"},{"name":"_assetName","type":"string","internalType":"string"},{"name":"_assertUri","type":"string","internalType":"string"}],"outputs":[{"name":"","type":"bool","internalType":"bool"}],"stateMutability":"nonpayable"},{"type":"function","name":"getApproved","inputs":[{"name":"tokenId","type":"uint256","internalType":"uint256"}],"outputs":[{"name":"","type":"address","internalType":"address"}],"stateMutability":"view"},{"type":"function","name":"isApprovedForAll","inputs":[{"name":"owner","type":"address","internalType":"address"},{"name":"operator","type":"address","internalType":"address"}],"outputs":[{"name":"","type":"bool","internalType":"bool"}],"stateMutability":"view"},{"type":"function","name":"legalTeam","inputs":[{"name":"","type":"address","internalType":"address"}],"outputs":[{"name":"","type":"address","internalType":"address"}],"stateMutability":"view"},{"type":"function","name":"name","inputs":[],"outputs":[{"name":"","type":"string","internalType":"string"}],"stateMutability":"view"},{"type":"function","name":"owner","inputs":[],"outputs":[{"name":"","type":"address","internalType":"address"}],"stateMutability":"view"},{"type":"function","name":"ownerOf","inputs":[{"name":"tokenId","type":"uint256","internalType":"uint256"}],"outputs":[{"name":"","type":"address","internalType":"address"}],"stateMutability":"view"},{"type":"function","name":"pause","inputs":[],"outputs":[],"stateMutability":"nonpayable"},{"type":"function","name":"paused","inputs":[],"outputs":[{"name":"","type":"bool","internalType":"bool"}],"stateMutability":"view"},{"type":"function","name":"renounceOwnership","inputs":[],"outputs":[],"stateMutability":"nonpayable"},{"type":"function","name":"safeTransferFrom","inputs":[{"name":"from","type":"address","internalType":"address"},{"name":"to","type":"address","internalType":"address"},{"name":"tokenId","type":"uint256","internalType":"uint256"}],"outputs":[],"stateMutability":"nonpayable"},{"type":"function","name":"safeTransferFrom","inputs":[{"name":"from","type":"address","internalType":"address"},{"name":"to","type":"address","internalType":"address"},{"name":"tokenId","type":"uint256","internalType":"uint256"},{"name":"data","type":"bytes","internalType":"bytes"}],"outputs":[],"stateMutability":"nonpayable"},{"type":"function","name":"setApprovalForAll","inputs":[{"name":"operator","type":"address","internalType":"address"},{"name":"approved","type":"bool","internalType":"bool"}],"outputs":[],"stateMutability":"nonpayable"},{"type":"function","name":"setFactoryContractaddress","inputs":[{"name":"_factoryContract","type":"address","internalType":"address"}],"outputs":[],"stateMutability":"nonpayable"},{"type":"function","name":"supportsInterface","inputs":[{"name":"interfaceId","type":"bytes4","internalType":"bytes4"}],"outputs":[{"name":"","type":"bool","internalType":"bool"}],"stateMutability":"view"},{"type":"function","name":"symbol","inputs":[],"outputs":[{"name":"","type":"string","internalType":"string"}],"stateMutability":"view"},{"type":"function","name":"tokenURI","inputs":[{"name":"tokenId","type":"uint256","internalType":"uint256"}],"outputs":[{"name":"","type":"string","internalType":"string"}],"stateMutability":"view"},{"type":"function","name":"transferFrom","inputs":[{"name":"from","type":"address","internalType":"address"},{"name":"to","type":"address","internalType":"address"},{"name":"tokenId","type":"uint256","internalType":"uint256"}],"outputs":[],"stateMutability":"nonpayable"},{"type":"function","name":"transferOwnership","inputs":[{"name":"newOwner","type":"address","internalType":"address"}],"outputs":[],"stateMutability":"nonpayable"},{"type":"function","name":"unpause","inputs":[],"outputs":[],"stateMutability":"nonpayable"},{"type":"function","name":"updateAsset","inputs":[{"name":"_tokenId","type":"uint256","internalType":"uint256"},{"name":"_value","type":"uint256","internalType":"uint256"}],"outputs":[{"name":"","type":"bool","internalType":"bool"}],"stateMutability":"nonpayable"},{"type":"event","name":"Approval","inputs":[{"name":"owner","type":"address","indexed":true,"internalType":"address"},{"name":"approved","type":"address","indexed":true,"internalType":"address"},{"name":"tokenId","type":"uint256","indexed":true,"internalType":"uint256"}],"anonymous":false},{"type":"event","name":"ApprovalForAll","inputs":[{"name":"owner","type":"address","indexed":true,"internalType":"address"},{"name":"operator","type":"address","indexed":true,"internalType":"address"},{"name":"approved","type":"bool","indexed":false,"internalType":"bool"}],"anonymous":false},{"type":"event","name":"AssetCreated","inputs":[{"name":"owner","type":"address","indexed":true,"internalType":"address"},{"name":"tokenId","type":"uint256","indexed":true,"internalType":"uint256"},{"name":"uri","type":"string","indexed":false,"internalType":"string"}],"anonymous":false},{"type":"event","name":"AssetUpdated","inputs":[{"name":"value","type":"uint256","indexed":true,"internalType":"uint256"},{"name":"owner","type":"address","indexed":true,"internalType":"address"}],"anonymous":false},{"type":"event","name":"BatchMetadataUpdate","inputs":[{"name":"_fromTokenId","type":"uint256","indexed":false,"internalType":"uint256"},{"name":"_toTokenId","type":"uint256","indexed":false,"internalType":"uint256"}],"anonymous":false},{"type":"event","name":"MetadataUpdate","inputs":[{"name":"_tokenId","type":"uint256","indexed":false,"internalType":"uint256"}],"anonymous":false},{"type":"event","name":"OwnershipTransferred","inputs":[{"name":"previousOwner","type":"address","indexed":true,"internalType":"address"},{"name":"newOwner","type":"address","indexed":true,"internalType":"address"}],"anonymous":false},{"type":"event","name":"Paused","inputs":[{"name":"account","type":"address","indexed":false,"internalType":"address"}],"anonymous":false},{"type":"event","name":"Transfer","inputs":[{"name":"from","type":"address","indexed":true,"internalType":"address"},{"name":"to","type":"address","indexed":true,"internalType":"address"},{"name":"tokenId","type":"uint256","indexed":true,"internalType":"uint256"}],"anonymous":false},{"type":"event","name":"Unpaused","inputs":[{"name":"account","type":"address","indexed":false,"internalType":"address"}],"anonymous":false},{"type":"error","name":"AssetVerification__AddressCanNotBeZero","inputs":[]},{"type":"error","name":"AssetVerification__OnlyAuditorTeamCanVerifyAssets","inputs":[]},{"type":"error","name":"AssetVerification__OnlyLegalTeamCanVerifyAssets","inputs":[]},{"type":"error","name":"ERC721IncorrectOwner","inputs":[{"name":"sender","type":"address","internalType":"address"},{"name":"tokenId","type":"uint256","internalType":"uint256"},{"name":"owner","type":"address","internalType":"address"}]},{"type":"error","name":"ERC721InsufficientApproval","inputs":[{"name":"operator","type":"address","internalType":"address"},{"name":"tokenId","type":"uint256","internalType":"uint256"}]},{"type":"error","name":"ERC721InvalidApprover","inputs":[{"name":"approver","type":"address","internalType":"address"}]},{"type":"error","name":"ERC721InvalidOperator","inputs":[{"name":"operator","type":"address","internalType":"address"}]},{"type":"error","name":"ERC721InvalidOwner","inputs":[{"name":"owner","type":"address","internalType":"address"}]},{"type":"error","name":"ERC721InvalidReceiver","inputs":[{"name":"receiver","type":"address","internalType":"address"}]},{"type":"error","name":"ERC721InvalidSender","inputs":[{"name":"sender","type":"address","internalType":"address"}]},{"type":"error","name":"ERC721NonexistentToken","inputs":[{"name":"tokenId","type":"uint256","internalType":"uint256"}]},{"type":"error","name":"EnforcedPause","inputs":[]},{"type":"error","name":"ExpectedPause","inputs":[]},{"type":"error","name":"OwnableInvalidOwner","inputs":[{"name":"owner","type":"address","internalType":"address"}]},{"type":"error","name":"OwnableUnauthorizedAccount","inputs":[{"name":"account","type":"address","internalType":"address"}]}],"bytecode":{"object":"0x60806040523480156200001157600080fd5b5060405162001fac38038062001fac833981016040819052620000349162000143565b806040518060400160405280601081526020016f149150530815d3d49311081054d4d15560821b815250604051806040016040528060038152602001621415d160ea1b81525081600090816200008b91906200021c565b5060016200009a82826200021c565b50506007805460ff19169055506001600160a01b038116620000d657604051631e4fbdf760e01b81526000600482015260240160405180910390fd5b620000e181620000e9565b5050620002e8565b600780546001600160a01b03838116610100818102610100600160a81b031985161790945560405193909204169182907f8be0079c531659141344cd1fd0a4f28419497f9722a3daafe3b4186f6b6457e090600090a35050565b6000602082840312156200015657600080fd5b81516001600160a01b03811681146200016e57600080fd5b9392505050565b634e487b7160e01b600052604160045260246000fd5b600181811c90821680620001a057607f821691505b602082108103620001c157634e487b7160e01b600052602260045260246000fd5b50919050565b601f82111562000217576000816000526020600020601f850160051c81016020861015620001f25750805b601f850160051c820191505b818110156200021357828155600101620001fe565b5050505b505050565b81516001600160401b0381111562000238576200023862000175565b62000250816200024984546200018b565b84620001c7565b602080601f8311600181146200028857600084156200026f5750858301515b600019600386901b1c1916600185901b17855562000213565b600085815260208120601f198616915b82811015620002b95788860151825594840194600190910190840162000298565b5085821015620002d85787850151600019600388901b60f8161c191681555b5050505050600190811b01905550565b611cb480620002f86000396000f3fe608060405234801561001057600080fd5b50600436106101cf5760003560e01c80635c975abb1161010457806395d89b41116100a2578063b88d4fde11610071578063b88d4fde146103fb578063c87b56dd1461040e578063e985e9c514610421578063f2fde38b1461043457600080fd5b806395d89b41146103a8578063a0b4b301146103b0578063a22cb465146103d5578063a5858300146103e857600080fd5b806370a08231116100de57806370a0823114610361578063715018a6146103825780638456cb591461038a5780638da5cb5b1461039257600080fd5b80635c975abb146103305780636352211e1461033b578063669b90081461034e57600080fd5b806323b872dd116101715780633e2ea3981161014b5780633e2ea398146102ef5780633f4ba83a1461030257806342842e0e1461030a57806342966c681461031d57600080fd5b806323b872dd146102a0578063251f46e8146102b35780632ab8a3d0146102c657600080fd5b8063095ea7b3116101ad578063095ea7b31461023c57806309876250146102515780630a57cd501461027a57806315c645751461028d57600080fd5b806301ffc9a7146101d457806306fdde03146101fc578063081812fc14610211575b600080fd5b6101e76101e2366004611661565b610447565b60405190151581526020015b60405180910390f35b610204610458565b6040516101f391906116ce565b61022461021f3660046116e1565b6104ea565b6040516001600160a01b0390911681526020016101f3565b61024f61024a366004611716565b610513565b005b61022461025f366004611740565b600c602052600090815260409020546001600160a01b031681565b61024f610288366004611740565b610522565b600854610224906001600160a01b031681565b61024f6102ae36600461175b565b610554565b6101e76102c1366004611843565b6105e4565b6102246102d4366004611740565b600b602052600090815260409020546001600160a01b031681565b61024f6102fd366004611740565b6107e6565b61024f610831565b61024f61031836600461175b565b610843565b61024f61032b3660046116e1565b610863565b60075460ff166101e7565b6102246103493660046116e1565b61086f565b6101e761035c3660046118b7565b61087a565b61037461036f366004611740565b61090b565b6040519081526020016101f3565b61024f610953565b61024f610965565b60075461010090046001600160a01b0316610224565b610204610975565b6103c36103be3660046116e1565b610984565b6040516101f3969594939291906118d9565b61024f6103e3366004611930565b610adb565b61024f6103f6366004611740565b610ae6565b61024f61040936600461196c565b610b18565b61020461041c3660046116e1565b610b2f565b6101e761042f3660046119e8565b610b3a565b61024f610442366004611740565b610b68565b600061045282610ba6565b92915050565b60606000805461046790611a1b565b80601f016020809104026020016040519081016040528092919081815260200182805461049390611a1b565b80156104e05780601f106104b5576101008083540402835291602001916104e0565b820191906000526020600020905b8154815290600101906020018083116104c357829003601f168201915b5050505050905090565b60006104f582610bcb565b506000828152600460205260409020546001600160a01b0316610452565b61051e828233610c04565b5050565b61052a610c11565b6001600160a01b03166000818152600b6020526040902080546001600160a01b0319169091179055565b6001600160a01b03821661058357604051633250574960e11b8152600060048201526024015b60405180910390fd5b6000610590838333610c44565b9050836001600160a01b0316816001600160a01b0316146105de576040516364283d7b60e01b81526001600160a01b038086166004830152602482018490528216604482015260640161057a565b50505050565b336000908152600b60205260408120546001600160a01b031661061a5760405163546cfb5d60e11b815260040160405180910390fd5b836001600160a01b03811661064257604051634409b67360e11b815260040160405180910390fd5b6008546001600160a01b031661066b57604051634409b67360e11b815260040160405180910390fd5b610679600980546001019055565b600061068460095490565b6000818152600a60205260409020909150806106a08782611aa5565b506008546002820180546001600160a81b0319166001600160a01b0390921691909117600160a01b17905560038101829055600481016106e08682611aa5565b506008546106f7906001600160a01b031683610c59565b61078d8282600401805461070a90611a1b565b80601f016020809104026020016040519081016040528092919081815260200182805461073690611a1b565b80156107835780601f1061075857610100808354040283529160200191610783565b820191906000526020600020905b81548152906001019060200180831161076657829003601f168201915b5050505050610c73565b600281015460405183916001600160a01b0316907f59b2e6618bc86b0b11c508924ed07eea4554c0772580d974c564ab4d446f7eab906107d1906004860190611b65565b60405180910390a35060019695505050505050565b806001600160a01b03811661080e57604051634409b67360e11b815260040160405180910390fd5b50600880546001600160a01b0319166001600160a01b0392909216919091179055565b610839610c11565b610841610cc3565b565b61085e83838360405180602001604052806000815250610b18565b505050565b61051e60008233610c44565b600061045282610bcb565b336000908152600c60205260408120546001600160a01b03166108b057604051630e97e14f60e01b815260040160405180910390fd5b6000838152600a6020526040808220600181018590556002810154915190926001600160a01b039092169185917fc2df6c5a19f8e42206c974d00007ad34d98483a97c5218c3d9141aebf387678c9190a35060019392505050565b60006001600160a01b038216610937576040516322718ad960e21b81526000600482015260240161057a565b506001600160a01b031660009081526003602052604090205490565b61095b610c11565b6108416000610d15565b61096d610c11565b610841610d6f565b60606001805461046790611a1b565b600a6020526000908152604090208054819061099f90611a1b565b80601f01602080910402602001604051908101604052809291908181526020018280546109cb90611a1b565b8015610a185780601f106109ed57610100808354040283529160200191610a18565b820191906000526020600020905b8154815290600101906020018083116109fb57829003601f168201915b50505050600183015460028401546003850154600486018054959693956001600160a01b0384169550600160a01b90930460ff16939192610a5890611a1b565b80601f0160208091040260200160405190810160405280929190818152602001828054610a8490611a1b565b8015610ad15780601f10610aa657610100808354040283529160200191610ad1565b820191906000526020600020905b815481529060010190602001808311610ab457829003601f168201915b5050505050905086565b61051e338383610dac565b610aee610c11565b6001600160a01b03166000818152600c6020526040902080546001600160a01b0319169091179055565b610b23848484610554565b6105de84848484610e4b565b606061045282610f74565b6001600160a01b03918216600090815260056020908152604080832093909416825291909152205460ff1690565b610b70610c11565b6001600160a01b038116610b9a57604051631e4fbdf760e01b81526000600482015260240161057a565b610ba381610d15565b50565b60006001600160e01b03198216632483248360e11b148061045257506104528261107d565b6000818152600260205260408120546001600160a01b03168061045257604051637e27328960e01b81526004810184905260240161057a565b61085e83838360016110cd565b6007546001600160a01b036101009091041633146108415760405163118cdaa760e01b815233600482015260240161057a565b6000610c518484846111d3565b949350505050565b61051e8282604051806020016040528060008152506111e8565b6000828152600660205260409020610c8b8282611aa5565b506040518281527ff8e1a15aba9398e019f0b49df1a4fde98ee17ae345cb5f6b5e2c27f5033e8ce79060200160405180910390a15050565b610ccb6111ff565b6007805460ff191690557f5db9ee0a495bf2e6ff9c91a7834c1ba4fdd244a5e8aa4e537bd38aeae4b073aa335b6040516001600160a01b03909116815260200160405180910390a1565b600780546001600160a01b03838116610100818102610100600160a81b031985161790945560405193909204169182907f8be0079c531659141344cd1fd0a4f28419497f9722a3daafe3b4186f6b6457e090600090a35050565b610d77611222565b6007805460ff191660011790557f62e78cea01bee320cd4e420270b5ea74000d11b0c9f74754ebdbfc544b05a258610cf83390565b6001600160a01b038216610dde57604051630b61174360e31b81526001600160a01b038316600482015260240161057a565b6001600160a01b03838116600081815260056020908152604080832094871680845294825291829020805460ff191686151590811790915591519182527f17307eab39ab6107e8899845ad3d59bd9653f200f220920489ca2b5937696c31910160405180910390a3505050565b6001600160a01b0383163b156105de57604051630a85bd0160e11b81526001600160a01b0384169063150b7a0290610e8d903390889087908790600401611bf5565b6020604051808303816000875af1925050508015610ec8575060408051601f3d908101601f19168201909252610ec591810190611c32565b60015b610f31573d808015610ef6576040519150601f19603f3d011682016040523d82523d6000602084013e610efb565b606091505b508051600003610f2957604051633250574960e11b81526001600160a01b038516600482015260240161057a565b805181602001fd5b6001600160e01b03198116630a85bd0160e11b14610f6d57604051633250574960e11b81526001600160a01b038516600482015260240161057a565b5050505050565b6060610f7f82610bcb565b5060008281526006602052604081208054610f9990611a1b565b80601f0160208091040260200160405190810160405280929190818152602001828054610fc590611a1b565b80156110125780601f10610fe757610100808354040283529160200191611012565b820191906000526020600020905b815481529060010190602001808311610ff557829003601f168201915b50505050509050600061103060408051602081019091526000815290565b90508051600003611042575092915050565b81511561107457808260405160200161105c929190611c4f565b60405160208183030381529060405292505050919050565b610c5184611246565b60006001600160e01b031982166380ac58cd60e01b14806110ae57506001600160e01b03198216635b5e139f60e01b145b8061045257506301ffc9a760e01b6001600160e01b0319831614610452565b80806110e157506001600160a01b03821615155b156111a35760006110f184610bcb565b90506001600160a01b0383161580159061111d5750826001600160a01b0316816001600160a01b031614155b8015611130575061112e8184610b3a565b155b156111595760405163a9fbf51f60e01b81526001600160a01b038416600482015260240161057a565b81156111a15783856001600160a01b0316826001600160a01b03167f8c5be1e5ebec7d5bd14f71427d1e84f3dd0314c0f7b2291e5b200ac8c7c3b92560405160405180910390a45b505b5050600090815260046020526040902080546001600160a01b0319166001600160a01b0392909216919091179055565b60006111dd611222565b610c518484846112bb565b6111f283836113b4565b61085e6000848484610e4b565b60075460ff1661084157604051638dfc202b60e01b815260040160405180910390fd5b60075460ff16156108415760405163d93c066560e01b815260040160405180910390fd5b606061125182610bcb565b50600061126960408051602081019091526000815290565b9050600081511161128957604051806020016040528060008152506112b4565b8061129384611419565b6040516020016112a4929190611c4f565b6040516020818303038152906040525b9392505050565b6000828152600260205260408120546001600160a01b03908116908316156112e8576112e88184866114ac565b6001600160a01b03811615611326576113056000856000806110cd565b6001600160a01b038116600090815260036020526040902080546000190190555b6001600160a01b03851615611355576001600160a01b0385166000908152600360205260409020805460010190555b60008481526002602052604080822080546001600160a01b0319166001600160a01b0389811691821790925591518793918516917fddf252ad1be2c89b69c2b068fc378daa952ba7f163c4a11628f55a4df523b3ef91a4949350505050565b6001600160a01b0382166113de57604051633250574960e11b81526000600482015260240161057a565b60006113ec83836000610c44565b90506001600160a01b0381161561085e576040516339e3563760e11b81526000600482015260240161057a565b6060600061142683611510565b600101905060008167ffffffffffffffff81111561144657611446611797565b6040519080825280601f01601f191660200182016040528015611470576020820181803683370190505b5090508181016020015b600019016f181899199a1a9b1b9c1cb0b131b232b360811b600a86061a8153600a850494508461147a57509392505050565b6114b78383836115e8565b61085e576001600160a01b0383166114e557604051637e27328960e01b81526004810182905260240161057a565b60405163177e802f60e01b81526001600160a01b03831660048201526024810182905260440161057a565b60008072184f03e93ff9f4daa797ed6e38ed64bf6a1f0160401b831061154f5772184f03e93ff9f4daa797ed6e38ed64bf6a1f0160401b830492506040015b6d04ee2d6d415b85acef8100000000831061157b576d04ee2d6d415b85acef8100000000830492506020015b662386f26fc10000831061159957662386f26fc10000830492506010015b6305f5e10083106115b1576305f5e100830492506008015b61271083106115c557612710830492506004015b606483106115d7576064830492506002015b600a83106104525760010192915050565b60006001600160a01b03831615801590610c515750826001600160a01b0316846001600160a01b0316148061162257506116228484610b3a565b80610c515750506000908152600460205260409020546001600160a01b03908116911614919050565b6001600160e01b031981168114610ba357600080fd5b60006020828403121561167357600080fd5b81356112b48161164b565b60005b83811015611699578181015183820152602001611681565b50506000910152565b600081518084526116ba81602086016020860161167e565b601f01601f19169290920160200192915050565b6020815260006112b460208301846116a2565b6000602082840312156116f357600080fd5b5035919050565b80356001600160a01b038116811461171157600080fd5b919050565b6000806040838503121561172957600080fd5b611732836116fa565b946020939093013593505050565b60006020828403121561175257600080fd5b6112b4826116fa565b60008060006060848603121561177057600080fd5b611779846116fa565b9250611787602085016116fa565b9150604084013590509250925092565b634e487b7160e01b600052604160045260246000fd5b600067ffffffffffffffff808411156117c8576117c8611797565b604051601f8501601f19908116603f011681019082821181831017156117f0576117f0611797565b8160405280935085815286868601111561180957600080fd5b858560208301376000602087830101525050509392505050565b600082601f83011261183457600080fd5b6112b4838335602085016117ad565b60008060006060848603121561185857600080fd5b611861846116fa565b9250602084013567ffffffffffffffff8082111561187e57600080fd5b61188a87838801611823565b935060408601359150808211156118a057600080fd5b506118ad86828701611823565b9150509250925092565b600080604083850312156118ca57600080fd5b50508035926020909101359150565b60c0815260006118ec60c08301896116a2565b602083018890526001600160a01b038716604084015285151560608401526080830185905282810360a084015261192381856116a2565b9998505050505050505050565b6000806040838503121561194357600080fd5b61194c836116fa565b91506020830135801515811461196157600080fd5b809150509250929050565b6000806000806080858703121561198257600080fd5b61198b856116fa565b9350611999602086016116fa565b925060408501359150606085013567ffffffffffffffff8111156119bc57600080fd5b8501601f810187136119cd57600080fd5b6119dc878235602084016117ad565b91505092959194509250565b600080604083850312156119fb57600080fd5b611a04836116fa565b9150611a12602084016116fa565b90509250929050565b600181811c90821680611a2f57607f821691505b602082108103611a4f57634e487b7160e01b600052602260045260246000fd5b50919050565b601f82111561085e576000816000526020600020601f850160051c81016020861015611a7e5750805b601f850160051c820191505b81811015611a9d57828155600101611a8a565b505050505050565b815167ffffffffffffffff811115611abf57611abf611797565b611ad381611acd8454611a1b565b84611a55565b602080601f831160018114611b085760008415611af05750858301515b600019600386901b1c1916600185901b178555611a9d565b600085815260208120601f198616915b82811015611b3757888601518255948401946001909101908401611b18565b5085821015611b555787850151600019600388901b60f8161c191681555b5050505050600190811b01905550565b6000602080835260008454611b7981611a1b565b8060208701526040600180841660008114611b9b5760018114611bb757611be7565b60ff19851660408a0152604084151560051b8a01019550611be7565b89600052602060002060005b85811015611bde5781548b8201860152908301908801611bc3565b8a016040019650505b509398975050505050505050565b6001600160a01b0385811682528416602082015260408101839052608060608201819052600090611c28908301846116a2565b9695505050505050565b600060208284031215611c4457600080fd5b81516112b48161164b565b60008351611c6181846020880161167e565b835190830190611c7581836020880161167e565b0194935050505056fea26469706673582212206945db1db9c4898501376700df5b6d7c6956357d78bc2cf946b82b16172230a264736f6c63430008170033","linkReferences":{}},"methodIdentifiers":{"FractionalizerFactory()":"15c64575","addAuditorTeam(address)":"a5858300","addLegalTeam(address)":"0a57cd50","approve(address,uint256)":"095ea7b3","assetList(uint256)":"a0b4b301","audtiorTeam(address)":"09876250","balanceOf(address)":"70a08231","burn(uint256)":"42966c68","createAsset(address,string,string)":"251f46e8","getApproved(uint256)":"081812fc","isApprovedForAll(address,address)":"e985e9c5","legalTeam(address)":"2ab8a3d0","name()":"06fdde03","owner()":"8da5cb5b","ownerOf(uint256)":"6352211e","pause()":"8456cb59","paused()":"5c975abb","renounceOwnership()":"715018a6","safeTransferFrom(address,address,uint256)":"42842e0e","safeTransferFrom(address,address,uint256,bytes)":"b88d4fde","setApprovalForAll(address,bool)":"a22cb465","setFactoryContractaddress(address)":"3e2ea398","supportsInterface(bytes4)":"01ffc9a7","symbol()":"95d89b41","tokenURI(uint256)":"c87b56dd","transferFrom(address,address,uint256)":"23b872dd","transferOwnership(address)":"f2fde38b","unpause()":"3f4ba83a","updateAsset(uint256,uint256)":"669b9008"},"id":44}