{"abi":[{"type":"constructor","inputs":[],"stateMutability":"nonpayable"},{"type":"function","name":"FractionalizerFactory","inputs":[],"outputs":[{"name":"","type":"address","internalType":"address"}],"stateMutability":"view"},{"type":"function","name":"addAuditorTeam","inputs":[{"name":"_auditorTeam","type":"address","internalType":"address"}],"outputs":[],"stateMutability":"nonpayable"},{"type":"function","name":"addLegalTeam","inputs":[{"name":"_legalTeam","type":"address","internalType":"address"}],"outputs":[],"stateMutability":"nonpayable"},{"type":"function","name":"approve","inputs":[{"name":"to","type":"address","internalType":"address"},{"name":"tokenId","type":"uint256","internalType":"uint256"}],"outputs":[],"stateMutability":"nonpayable"},{"type":"function","name":"assetList","inputs":[{"name":"","type":"uint256","internalType":"uint256"}],"outputs":[{"name":"name","type":"string","internalType":"string"},{"name":"value","type":"uint256","internalType":"uint256"},{"name":"owner","type":"address","internalType":"address"},{"name":"verify","type":"bool","internalType":"bool"},{"name":"tokenid","type":"uint256","internalType":"uint256"},{"name":"uri","type":"string","internalType":"string"},{"name":"description","type":"string","internalType":"string"}],"stateMutability":"view"},{"type":"function","name":"audtiorTeam","inputs":[{"name":"","type":"address","internalType":"address"}],"outputs":[{"name":"","type":"address","internalType":"address"}],"stateMutability":"view"},{"type":"function","name":"balanceOf","inputs":[{"name":"owner","type":"address","internalType":"address"}],"outputs":[{"name":"","type":"uint256","internalType":"uint256"}],"stateMutability":"view"},{"type":"function","name":"burn","inputs":[{"name":"tokenId","type":"uint256","internalType":"uint256"}],"outputs":[],"stateMutability":"nonpayable"},{"type":"function","name":"createAsset","inputs":[{"name":"_owner","type":"address","internalType":"address"},{"name":"_assetName","type":"string","internalType":"string"},{"name":"_description","type":"string","internalType":"string"},{"name":"_assertUri","type":"string","internalType":"string"}],"outputs":[{"name":"","type":"bool","internalType":"bool"}],"stateMutability":"nonpayable"},{"type":"function","name":"getApproved","inputs":[{"name":"tokenId","type":"uint256","internalType":"uint256"}],"outputs":[{"name":"","type":"address","internalType":"address"}],"stateMutability":"view"},{"type":"function","name":"getAsset","inputs":[{"name":"tokenId","type":"uint256","internalType":"uint256"}],"outputs":[{"name":"","type":"tuple","internalType":"struct AssetVerification.Asset","components":[{"name":"name","type":"string","internalType":"string"},{"name":"value","type":"uint256","internalType":"uint256"},{"name":"owner","type":"address","internalType":"address"},{"name":"verify","type":"bool","internalType":"bool"},{"name":"tokenid","type":"uint256","internalType":"uint256"},{"name":"uri","type":"string","internalType":"string"},{"name":"description","type":"string","internalType":"string"}]}],"stateMutability":"view"},{"type":"function","name":"isApprovedForAll","inputs":[{"name":"owner","type":"address","internalType":"address"},{"name":"operator","type":"address","internalType":"address"}],"outputs":[{"name":"","type":"bool","internalType":"bool"}],"stateMutability":"view"},{"type":"function","name":"legalTeam","inputs":[{"name":"","type":"address","internalType":"address"}],"outputs":[{"name":"","type":"address","internalType":"address"}],"stateMutability":"view"},{"type":"function","name":"name","inputs":[],"outputs":[{"name":"","type":"string","internalType":"string"}],"stateMutability":"view"},{"type":"function","name":"owner","inputs":[],"outputs":[{"name":"","type":"address","internalType":"address"}],"stateMutability":"view"},{"type":"function","name":"ownerOf","inputs":[{"name":"tokenId","type":"uint256","internalType":"uint256"}],"outputs":[{"name":"","type":"address","internalType":"address"}],"stateMutability":"view"},{"type":"function","name":"pause","inputs":[],"outputs":[],"stateMutability":"nonpayable"},{"type":"function","name":"paused","inputs":[],"outputs":[{"name":"","type":"bool","internalType":"bool"}],"stateMutability":"view"},{"type":"function","name":"renounceOwnership","inputs":[],"outputs":[],"stateMutability":"nonpayable"},{"type":"function","name":"safeTransferFrom","inputs":[{"name":"from","type":"address","internalType":"address"},{"name":"to","type":"address","internalType":"address"},{"name":"tokenId","type":"uint256","internalType":"uint256"}],"outputs":[],"stateMutability":"nonpayable"},{"type":"function","name":"safeTransferFrom","inputs":[{"name":"from","type":"address","internalType":"address"},{"name":"to","type":"address","internalType":"address"},{"name":"tokenId","type":"uint256","internalType":"uint256"},{"name":"data","type":"bytes","internalType":"bytes"}],"outputs":[],"stateMutability":"nonpayable"},{"type":"function","name":"setApprovalForAll","inputs":[{"name":"operator","type":"address","internalType":"address"},{"name":"approved","type":"bool","internalType":"bool"}],"outputs":[],"stateMutability":"nonpayable"},{"type":"function","name":"setFactoryContractaddress","inputs":[{"name":"_factoryContract","type":"address","internalType":"address"}],"outputs":[],"stateMutability":"nonpayable"},{"type":"function","name":"supportsInterface","inputs":[{"name":"interfaceId","type":"bytes4","internalType":"bytes4"}],"outputs":[{"name":"","type":"bool","internalType":"bool"}],"stateMutability":"view"},{"type":"function","name":"symbol","inputs":[],"outputs":[{"name":"","type":"string","internalType":"string"}],"stateMutability":"view"},{"type":"function","name":"tokenURI","inputs":[{"name":"tokenId","type":"uint256","internalType":"uint256"}],"outputs":[{"name":"","type":"string","internalType":"string"}],"stateMutability":"view"},{"type":"function","name":"transferFrom","inputs":[{"name":"from","type":"address","internalType":"address"},{"name":"to","type":"address","internalType":"address"},{"name":"tokenId","type":"uint256","internalType":"uint256"}],"outputs":[],"stateMutability":"nonpayable"},{"type":"function","name":"transferOwnership","inputs":[{"name":"newOwner","type":"address","internalType":"address"}],"outputs":[],"stateMutability":"nonpayable"},{"type":"function","name":"unpause","inputs":[],"outputs":[],"stateMutability":"nonpayable"},{"type":"function","name":"updateAsset","inputs":[{"name":"_tokenId","type":"uint256","internalType":"uint256"},{"name":"_value","type":"uint256","internalType":"uint256"}],"outputs":[{"name":"","type":"bool","internalType":"bool"}],"stateMutability":"nonpayable"},{"type":"event","name":"Approval","inputs":[{"name":"owner","type":"address","indexed":true,"internalType":"address"},{"name":"approved","type":"address","indexed":true,"internalType":"address"},{"name":"tokenId","type":"uint256","indexed":true,"internalType":"uint256"}],"anonymous":false},{"type":"event","name":"ApprovalForAll","inputs":[{"name":"owner","type":"address","indexed":true,"internalType":"address"},{"name":"operator","type":"address","indexed":true,"internalType":"address"},{"name":"approved","type":"bool","indexed":false,"internalType":"bool"}],"anonymous":false},{"type":"event","name":"AssetCreated","inputs":[{"name":"owner","type":"address","indexed":true,"internalType":"address"},{"name":"tokenId","type":"uint256","indexed":true,"internalType":"uint256"},{"name":"uri","type":"string","indexed":false,"internalType":"string"}],"anonymous":false},{"type":"event","name":"AssetUpdated","inputs":[{"name":"value","type":"uint256","indexed":true,"internalType":"uint256"},{"name":"owner","type":"address","indexed":true,"internalType":"address"}],"anonymous":false},{"type":"event","name":"BatchMetadataUpdate","inputs":[{"name":"_fromTokenId","type":"uint256","indexed":false,"internalType":"uint256"},{"name":"_toTokenId","type":"uint256","indexed":false,"internalType":"uint256"}],"anonymous":false},{"type":"event","name":"MetadataUpdate","inputs":[{"name":"_tokenId","type":"uint256","indexed":false,"internalType":"uint256"}],"anonymous":false},{"type":"event","name":"OwnershipTransferred","inputs":[{"name":"previousOwner","type":"address","indexed":true,"internalType":"address"},{"name":"newOwner","type":"address","indexed":true,"internalType":"address"}],"anonymous":false},{"type":"event","name":"Paused","inputs":[{"name":"account","type":"address","indexed":false,"internalType":"address"}],"anonymous":false},{"type":"event","name":"Transfer","inputs":[{"name":"from","type":"address","indexed":true,"internalType":"address"},{"name":"to","type":"address","indexed":true,"internalType":"address"},{"name":"tokenId","type":"uint256","indexed":true,"internalType":"uint256"}],"anonymous":false},{"type":"event","name":"Unpaused","inputs":[{"name":"account","type":"address","indexed":false,"internalType":"address"}],"anonymous":false},{"type":"error","name":"AssetVerification__AddressCanNotBeZero","inputs":[]},{"type":"error","name":"AssetVerification__OnlyAuditorTeamCanVerifyAssets","inputs":[]},{"type":"error","name":"AssetVerification__OnlyLegalTeamCanVerifyAssets","inputs":[]},{"type":"error","name":"ERC721IncorrectOwner","inputs":[{"name":"sender","type":"address","internalType":"address"},{"name":"tokenId","type":"uint256","internalType":"uint256"},{"name":"owner","type":"address","internalType":"address"}]},{"type":"error","name":"ERC721InsufficientApproval","inputs":[{"name":"operator","type":"address","internalType":"address"},{"name":"tokenId","type":"uint256","internalType":"uint256"}]},{"type":"error","name":"ERC721InvalidApprover","inputs":[{"name":"approver","type":"address","internalType":"address"}]},{"type":"error","name":"ERC721InvalidOperator","inputs":[{"name":"operator","type":"address","internalType":"address"}]},{"type":"error","name":"ERC721InvalidOwner","inputs":[{"name":"owner","type":"address","internalType":"address"}]},{"type":"error","name":"ERC721InvalidReceiver","inputs":[{"name":"receiver","type":"address","internalType":"address"}]},{"type":"error","name":"ERC721InvalidSender","inputs":[{"name":"sender","type":"address","internalType":"address"}]},{"type":"error","name":"ERC721NonexistentToken","inputs":[{"name":"tokenId","type":"uint256","internalType":"uint256"}]},{"type":"error","name":"EnforcedPause","inputs":[]},{"type":"error","name":"ExpectedPause","inputs":[]},{"type":"error","name":"OwnableInvalidOwner","inputs":[{"name":"owner","type":"address","internalType":"address"}]},{"type":"error","name":"OwnableUnauthorizedAccount","inputs":[{"name":"account","type":"address","internalType":"address"}]}],"bytecode":{"object":"0x608060405234801561001057600080fd5b50336040518060400160405280601081526020016f149150530815d3d49311081054d4d15560821b815250604051806040016040528060038152602001621415d160ea1b815250816000908161006691906101b8565b50600161007382826101b8565b50506007805460ff19169055506001600160a01b0381166100ae57604051631e4fbdf760e01b81526000600482015260240160405180910390fd5b6100b7816100bd565b50610277565b600780546001600160a01b03838116610100818102610100600160a81b031985161790945560405193909204169182907f8be0079c531659141344cd1fd0a4f28419497f9722a3daafe3b4186f6b6457e090600090a35050565b634e487b7160e01b600052604160045260246000fd5b600181811c9082168061014157607f821691505b60208210810361016157634e487b7160e01b600052602260045260246000fd5b50919050565b601f8211156101b3576000816000526020600020601f850160051c810160208610156101905750805b601f850160051c820191505b818110156101af5782815560010161019c565b5050505b505050565b81516001600160401b038111156101d1576101d1610117565b6101e5816101df845461012d565b84610167565b602080601f83116001811461021a57600084156102025750858301515b600019600386901b1c1916600185901b1785556101af565b600085815260208120601f198616915b828110156102495788860151825594840194600190910190840161022a565b50858210156102675787850151600019600388901b60f8161c191681555b5050505050600190811b01905550565b6120f3806102866000396000f3fe608060405234801561001057600080fd5b50600436106101da5760003560e01c80636352211e11610104578063a0b4b301116100a2578063c87b56dd11610071578063c87b56dd1461041a578063e985e9c51461042d578063eac8f5b814610440578063f2fde38b1461046057600080fd5b8063a0b4b301146103bb578063a22cb465146103e1578063a5858300146103f4578063b88d4fde1461040757600080fd5b8063715018a6116100de578063715018a61461038d5780638456cb59146103955780638da5cb5b1461039d57806395d89b41146103b357600080fd5b80636352211e14610346578063669b90081461035957806370a082311461036c57600080fd5b8063197461cd1161017c5780633f4ba83a1161014b5780633f4ba83a1461030d57806342842e0e1461031557806342966c68146103285780635c975abb1461033b57600080fd5b8063197461cd146102ab57806323b872dd146102be5780632ab8a3d0146102d15780633e2ea398146102fa57600080fd5b8063095ea7b3116101b8578063095ea7b314610247578063098762501461025c5780630a57cd501461028557806315c645751461029857600080fd5b806301ffc9a7146101df57806306fdde0314610207578063081812fc1461021c575b600080fd5b6101f26101ed3660046119de565b610473565b60405190151581526020015b60405180910390f35b61020f610484565b6040516101fe9190611a4b565b61022f61022a366004611a5e565b610516565b6040516001600160a01b0390911681526020016101fe565b61025a610255366004611a93565b61053f565b005b61022f61026a366004611abd565b600d602052600090815260409020546001600160a01b031681565b61025a610293366004611abd565b61054e565b60085461022f906001600160a01b031681565b6101f26102b9366004611b84565b610580565b61025a6102cc366004611c1d565b610792565b61022f6102df366004611abd565b600c602052600090815260409020546001600160a01b031681565b61025a610308366004611abd565b610822565b61025a6108c3565b61025a610323366004611c1d565b6108d5565b61025a610336366004611a5e565b6108f5565b60075460ff166101f2565b61022f610354366004611a5e565b610901565b6101f2610367366004611c59565b61090c565b61037f61037a366004611abd565b61099d565b6040519081526020016101fe565b61025a6109e5565b61025a6109f7565b60075461010090046001600160a01b031661022f565b61020f610a07565b6103ce6103c9366004611a5e565b610a16565b6040516101fe9796959493929190611c7b565b61025a6103ef366004611ce7565b610bfb565b61025a610402366004611abd565b610c06565b61025a610415366004611d23565b610c38565b61020f610428366004611a5e565b610c4f565b6101f261043b366004611d93565b610c5a565b61045361044e366004611a5e565b610c88565b6040516101fe9190611dc6565b61025a61046e366004611abd565b610ee5565b600061047e82610f23565b92915050565b60606000805461049390611e5a565b80601f01602080910402602001604051908101604052809291908181526020018280546104bf90611e5a565b801561050c5780601f106104e15761010080835404028352916020019161050c565b820191906000526020600020905b8154815290600101906020018083116104ef57829003601f168201915b5050505050905090565b600061052182610f48565b506000828152600460205260409020546001600160a01b031661047e565b61054a828233610f81565b5050565b610556610f8e565b6001600160a01b03166000818152600c6020526040902080546001600160a01b0319169091179055565b336000908152600c60205260408120546001600160a01b03166105b65760405163546cfb5d60e11b815260040160405180910390fd5b846001600160a01b0381166105de57604051634409b67360e11b815260040160405180910390fd5b6008546001600160a01b031661060757604051634409b67360e11b815260040160405180910390fd5b610615600980546001019055565b600061062060095490565b6000818152600b602052604090209091508061063c8882611ee4565b506008546002820180546001600160a81b0319166001600160a01b0390921691909117600160a01b179055600381018290556004810161067c8682611ee4565b506005810161068b8782611ee4565b506008546106a2906001600160a01b031683610fc1565b610738828260040180546106b590611e5a565b80601f01602080910402602001604051908101604052809291908181526020018280546106e190611e5a565b801561072e5780601f106107035761010080835404028352916020019161072e565b820191906000526020600020905b81548152906001019060200180831161071157829003601f168201915b5050505050610fdb565b600281015460405183916001600160a01b0316907f59b2e6618bc86b0b11c508924ed07eea4554c0772580d974c564ab4d446f7eab9061077c906004860190611fa4565b60405180910390a3506001979650505050505050565b6001600160a01b0382166107c157604051633250574960e11b8152600060048201526024015b60405180910390fd5b60006107ce83833361102b565b9050836001600160a01b0316816001600160a01b03161461081c576040516364283d7b60e01b81526001600160a01b03808616600483015260248201849052821660448201526064016107b8565b50505050565b806001600160a01b03811661084a57604051634409b67360e11b815260040160405180910390fd5b600a5460ff16156108935760405162461bcd60e51b8152602060048201526013602482015272119858dd1bdc9e48185b1c9958591e481cd95d606a1b60448201526064016107b8565b50600880546001600160a01b0319166001600160a01b0392909216919091179055600a805460ff19166001179055565b6108cb610f8e565b6108d3611040565b565b6108f083838360405180602001604052806000815250610c38565b505050565b61054a6000823361102b565b600061047e82610f48565b336000908152600d60205260408120546001600160a01b031661094257604051630e97e14f60e01b815260040160405180910390fd5b6000838152600b6020526040808220600181018590556002810154915190926001600160a01b039092169185917fc2df6c5a19f8e42206c974d00007ad34d98483a97c5218c3d9141aebf387678c9190a35060019392505050565b60006001600160a01b0382166109c9576040516322718ad960e21b8152600060048201526024016107b8565b506001600160a01b031660009081526003602052604090205490565b6109ed610f8e565b6108d36000611092565b6109ff610f8e565b6108d36110ec565b60606001805461049390611e5a565b600b60205260009081526040902080548190610a3190611e5a565b80601f0160208091040260200160405190810160405280929190818152602001828054610a5d90611e5a565b8015610aaa5780601f10610a7f57610100808354040283529160200191610aaa565b820191906000526020600020905b815481529060010190602001808311610a8d57829003601f168201915b50505050600183015460028401546003850154600486018054959693956001600160a01b0384169550600160a01b90930460ff16939192610aea90611e5a565b80601f0160208091040260200160405190810160405280929190818152602001828054610b1690611e5a565b8015610b635780601f10610b3857610100808354040283529160200191610b63565b820191906000526020600020905b815481529060010190602001808311610b4657829003601f168201915b505050505090806005018054610b7890611e5a565b80601f0160208091040260200160405190810160405280929190818152602001828054610ba490611e5a565b8015610bf15780601f10610bc657610100808354040283529160200191610bf1565b820191906000526020600020905b815481529060010190602001808311610bd457829003601f168201915b5050505050905087565b61054a338383611129565b610c0e610f8e565b6001600160a01b03166000818152600d6020526040902080546001600160a01b0319169091179055565b610c43848484610792565b61081c848484846111c8565b606061047e826112f1565b6001600160a01b03918216600090815260056020908152604080832093909416825291909152205460ff1690565b610cd36040518060e00160405280606081526020016000815260200160006001600160a01b031681526020016000151581526020016000815260200160608152602001606081525090565b6000828152600b602052604090819020815160e08101909252805482908290610cfb90611e5a565b80601f0160208091040260200160405190810160405280929190818152602001828054610d2790611e5a565b8015610d745780601f10610d4957610100808354040283529160200191610d74565b820191906000526020600020905b815481529060010190602001808311610d5757829003601f168201915b50505091835250506001820154602082015260028201546001600160a01b0381166040830152600160a01b900460ff16151560608201526003820154608082015260048201805460a090920191610dca90611e5a565b80601f0160208091040260200160405190810160405280929190818152602001828054610df690611e5a565b8015610e435780601f10610e1857610100808354040283529160200191610e43565b820191906000526020600020905b815481529060010190602001808311610e2657829003601f168201915b50505050508152602001600582018054610e5c90611e5a565b80601f0160208091040260200160405190810160405280929190818152602001828054610e8890611e5a565b8015610ed55780601f10610eaa57610100808354040283529160200191610ed5565b820191906000526020600020905b815481529060010190602001808311610eb857829003601f168201915b5050505050815250509050919050565b610eed610f8e565b6001600160a01b038116610f1757604051631e4fbdf760e01b8152600060048201526024016107b8565b610f2081611092565b50565b60006001600160e01b03198216632483248360e11b148061047e575061047e826113fa565b6000818152600260205260408120546001600160a01b03168061047e57604051637e27328960e01b8152600481018490526024016107b8565b6108f0838383600161144a565b6007546001600160a01b036101009091041633146108d35760405163118cdaa760e01b81523360048201526024016107b8565b61054a828260405180602001604052806000815250611550565b6000828152600660205260409020610ff38282611ee4565b506040518281527ff8e1a15aba9398e019f0b49df1a4fde98ee17ae345cb5f6b5e2c27f5033e8ce79060200160405180910390a15050565b6000611038848484611567565b949350505050565b61104861157c565b6007805460ff191690557f5db9ee0a495bf2e6ff9c91a7834c1ba4fdd244a5e8aa4e537bd38aeae4b073aa335b6040516001600160a01b03909116815260200160405180910390a1565b600780546001600160a01b03838116610100818102610100600160a81b031985161790945560405193909204169182907f8be0079c531659141344cd1fd0a4f28419497f9722a3daafe3b4186f6b6457e090600090a35050565b6110f461159f565b6007805460ff191660011790557f62e78cea01bee320cd4e420270b5ea74000d11b0c9f74754ebdbfc544b05a2586110753390565b6001600160a01b03821661115b57604051630b61174360e31b81526001600160a01b03831660048201526024016107b8565b6001600160a01b03838116600081815260056020908152604080832094871680845294825291829020805460ff191686151590811790915591519182527f17307eab39ab6107e8899845ad3d59bd9653f200f220920489ca2b5937696c31910160405180910390a3505050565b6001600160a01b0383163b1561081c57604051630a85bd0160e11b81526001600160a01b0384169063150b7a029061120a903390889087908790600401612034565b6020604051808303816000875af1925050508015611245575060408051601f3d908101601f1916820190925261124291810190612071565b60015b6112ae573d808015611273576040519150601f19603f3d011682016040523d82523d6000602084013e611278565b606091505b5080516000036112a657604051633250574960e11b81526001600160a01b03851660048201526024016107b8565b805181602001fd5b6001600160e01b03198116630a85bd0160e11b146112ea57604051633250574960e11b81526001600160a01b03851660048201526024016107b8565b5050505050565b60606112fc82610f48565b506000828152600660205260408120805461131690611e5a565b80601f016020809104026020016040519081016040528092919081815260200182805461134290611e5a565b801561138f5780601f106113645761010080835404028352916020019161138f565b820191906000526020600020905b81548152906001019060200180831161137257829003601f168201915b5050505050905060006113ad60408051602081019091526000815290565b905080516000036113bf575092915050565b8151156113f15780826040516020016113d992919061208e565b60405160208183030381529060405292505050919050565b611038846115c3565b60006001600160e01b031982166380ac58cd60e01b148061142b57506001600160e01b03198216635b5e139f60e01b145b8061047e57506301ffc9a760e01b6001600160e01b031983161461047e565b808061145e57506001600160a01b03821615155b1561152057600061146e84610f48565b90506001600160a01b0383161580159061149a5750826001600160a01b0316816001600160a01b031614155b80156114ad57506114ab8184610c5a565b155b156114d65760405163a9fbf51f60e01b81526001600160a01b03841660048201526024016107b8565b811561151e5783856001600160a01b0316826001600160a01b03167f8c5be1e5ebec7d5bd14f71427d1e84f3dd0314c0f7b2291e5b200ac8c7c3b92560405160405180910390a45b505b5050600090815260046020526040902080546001600160a01b0319166001600160a01b0392909216919091179055565b61155a8383611638565b6108f060008484846111c8565b600061157161159f565b61103884848461169d565b60075460ff166108d357604051638dfc202b60e01b815260040160405180910390fd5b60075460ff16156108d35760405163d93c066560e01b815260040160405180910390fd5b60606115ce82610f48565b5060006115e660408051602081019091526000815290565b905060008151116116065760405180602001604052806000815250611631565b8061161084611796565b60405160200161162192919061208e565b6040516020818303038152906040525b9392505050565b6001600160a01b03821661166257604051633250574960e11b8152600060048201526024016107b8565b60006116708383600061102b565b90506001600160a01b038116156108f0576040516339e3563760e11b8152600060048201526024016107b8565b6000828152600260205260408120546001600160a01b03908116908316156116ca576116ca818486611829565b6001600160a01b03811615611708576116e760008560008061144a565b6001600160a01b038116600090815260036020526040902080546000190190555b6001600160a01b03851615611737576001600160a01b0385166000908152600360205260409020805460010190555b60008481526002602052604080822080546001600160a01b0319166001600160a01b0389811691821790925591518793918516917fddf252ad1be2c89b69c2b068fc378daa952ba7f163c4a11628f55a4df523b3ef91a4949350505050565b606060006117a38361188d565b600101905060008167ffffffffffffffff8111156117c3576117c3611ad8565b6040519080825280601f01601f1916602001820160405280156117ed576020820181803683370190505b5090508181016020015b600019016f181899199a1a9b1b9c1cb0b131b232b360811b600a86061a8153600a85049450846117f757509392505050565b611834838383611965565b6108f0576001600160a01b03831661186257604051637e27328960e01b8152600481018290526024016107b8565b60405163177e802f60e01b81526001600160a01b0383166004820152602481018290526044016107b8565b60008072184f03e93ff9f4daa797ed6e38ed64bf6a1f0160401b83106118cc5772184f03e93ff9f4daa797ed6e38ed64bf6a1f0160401b830492506040015b6d04ee2d6d415b85acef810000000083106118f8576d04ee2d6d415b85acef8100000000830492506020015b662386f26fc10000831061191657662386f26fc10000830492506010015b6305f5e100831061192e576305f5e100830492506008015b612710831061194257612710830492506004015b60648310611954576064830492506002015b600a831061047e5760010192915050565b60006001600160a01b038316158015906110385750826001600160a01b0316846001600160a01b0316148061199f575061199f8484610c5a565b806110385750506000908152600460205260409020546001600160a01b03908116911614919050565b6001600160e01b031981168114610f2057600080fd5b6000602082840312156119f057600080fd5b8135611631816119c8565b60005b83811015611a165781810151838201526020016119fe565b50506000910152565b60008151808452611a378160208601602086016119fb565b601f01601f19169290920160200192915050565b6020815260006116316020830184611a1f565b600060208284031215611a7057600080fd5b5035919050565b80356001600160a01b0381168114611a8e57600080fd5b919050565b60008060408385031215611aa657600080fd5b611aaf83611a77565b946020939093013593505050565b600060208284031215611acf57600080fd5b61163182611a77565b634e487b7160e01b600052604160045260246000fd5b600067ffffffffffffffff80841115611b0957611b09611ad8565b604051601f8501601f19908116603f01168101908282118183101715611b3157611b31611ad8565b81604052809350858152868686011115611b4a57600080fd5b858560208301376000602087830101525050509392505050565b600082601f830112611b7557600080fd5b61163183833560208501611aee565b60008060008060808587031215611b9a57600080fd5b611ba385611a77565b9350602085013567ffffffffffffffff80821115611bc057600080fd5b611bcc88838901611b64565b94506040870135915080821115611be257600080fd5b611bee88838901611b64565b93506060870135915080821115611c0457600080fd5b50611c1187828801611b64565b91505092959194509250565b600080600060608486031215611c3257600080fd5b611c3b84611a77565b9250611c4960208501611a77565b9150604084013590509250925092565b60008060408385031215611c6c57600080fd5b50508035926020909101359150565b60e081526000611c8e60e083018a611a1f565b602083018990526001600160a01b038816604084015286151560608401526080830186905282810360a0840152611cc58186611a1f565b905082810360c0840152611cd98185611a1f565b9a9950505050505050505050565b60008060408385031215611cfa57600080fd5b611d0383611a77565b915060208301358015158114611d1857600080fd5b809150509250929050565b60008060008060808587031215611d3957600080fd5b611d4285611a77565b9350611d5060208601611a77565b925060408501359150606085013567ffffffffffffffff811115611d7357600080fd5b8501601f81018713611d8457600080fd5b611c1187823560208401611aee565b60008060408385031215611da657600080fd5b611daf83611a77565b9150611dbd60208401611a77565b90509250929050565b602081526000825160e06020840152611de3610100840182611a1f565b90506020840151604084015260018060a01b036040850151166060840152606084015115156080840152608084015160a084015260a0840151601f19808584030160c0860152611e338383611a1f565b925060c08601519150808584030160e086015250611e518282611a1f565b95945050505050565b600181811c90821680611e6e57607f821691505b602082108103611e8e57634e487b7160e01b600052602260045260246000fd5b50919050565b601f8211156108f0576000816000526020600020601f850160051c81016020861015611ebd5750805b601f850160051c820191505b81811015611edc57828155600101611ec9565b505050505050565b815167ffffffffffffffff811115611efe57611efe611ad8565b611f1281611f0c8454611e5a565b84611e94565b602080601f831160018114611f475760008415611f2f5750858301515b600019600386901b1c1916600185901b178555611edc565b600085815260208120601f198616915b82811015611f7657888601518255948401946001909101908401611f57565b5085821015611f945787850151600019600388901b60f8161c191681555b5050505050600190811b01905550565b6000602080835260008454611fb881611e5a565b8060208701526040600180841660008114611fda5760018114611ff657612026565b60ff19851660408a0152604084151560051b8a01019550612026565b89600052602060002060005b8581101561201d5781548b8201860152908301908801612002565b8a016040019650505b509398975050505050505050565b6001600160a01b038581168252841660208201526040810183905260806060820181905260009061206790830184611a1f565b9695505050505050565b60006020828403121561208357600080fd5b8151611631816119c8565b600083516120a08184602088016119fb565b8351908301906120b48183602088016119fb565b0194935050505056fea2646970667358221220f0d9c4827685498291d75df5cbfabbfbe5d4183fd0b9f94cfc3fe16ad97d4e9864736f6c63430008190033","linkReferences":{}},"methodIdentifiers":{"FractionalizerFactory()":"15c64575","addAuditorTeam(address)":"a5858300","addLegalTeam(address)":"0a57cd50","approve(address,uint256)":"095ea7b3","assetList(uint256)":"a0b4b301","audtiorTeam(address)":"09876250","balanceOf(address)":"70a08231","burn(uint256)":"42966c68","createAsset(address,string,string,string)":"197461cd","getApproved(uint256)":"081812fc","getAsset(uint256)":"eac8f5b8","isApprovedForAll(address,address)":"e985e9c5","legalTeam(address)":"2ab8a3d0","name()":"06fdde03","owner()":"8da5cb5b","ownerOf(uint256)":"6352211e","pause()":"8456cb59","paused()":"5c975abb","renounceOwnership()":"715018a6","safeTransferFrom(address,address,uint256)":"42842e0e","safeTransferFrom(address,address,uint256,bytes)":"b88d4fde","setApprovalForAll(address,bool)":"a22cb465","setFactoryContractaddress(address)":"3e2ea398","supportsInterface(bytes4)":"01ffc9a7","symbol()":"95d89b41","tokenURI(uint256)":"c87b56dd","transferFrom(address,address,uint256)":"23b872dd","transferOwnership(address)":"f2fde38b","unpause()":"3f4ba83a","updateAsset(uint256,uint256)":"669b9008"},"id":3}