{"abi":[{"type":"constructor","inputs":[],"stateMutability":"nonpayable"},{"type":"function","name":"FractionalizerFactory","inputs":[],"outputs":[{"name":"","type":"address","internalType":"address"}],"stateMutability":"view"},{"type":"function","name":"addAuditorTeam","inputs":[{"name":"_auditorTeam","type":"address","internalType":"address"}],"outputs":[],"stateMutability":"nonpayable"},{"type":"function","name":"addLegalTeam","inputs":[{"name":"_legalTeam","type":"address","internalType":"address"}],"outputs":[],"stateMutability":"nonpayable"},{"type":"function","name":"approve","inputs":[{"name":"to","type":"address","internalType":"address"},{"name":"tokenId","type":"uint256","internalType":"uint256"}],"outputs":[],"stateMutability":"nonpayable"},{"type":"function","name":"assetList","inputs":[{"name":"","type":"uint256","internalType":"uint256"}],"outputs":[{"name":"name","type":"string","internalType":"string"},{"name":"value","type":"uint256","internalType":"uint256"},{"name":"owner","type":"address","internalType":"address"},{"name":"verify","type":"bool","internalType":"bool"},{"name":"tokenid","type":"uint256","internalType":"uint256"},{"name":"uri","type":"string","internalType":"string"},{"name":"description","type":"string","internalType":"string"}],"stateMutability":"view"},{"type":"function","name":"audtiorTeam","inputs":[{"name":"","type":"address","internalType":"address"}],"outputs":[{"name":"","type":"address","internalType":"address"}],"stateMutability":"view"},{"type":"function","name":"balanceOf","inputs":[{"name":"owner","type":"address","internalType":"address"}],"outputs":[{"name":"","type":"uint256","internalType":"uint256"}],"stateMutability":"view"},{"type":"function","name":"burn","inputs":[{"name":"tokenId","type":"uint256","internalType":"uint256"}],"outputs":[],"stateMutability":"nonpayable"},{"type":"function","name":"createAsset","inputs":[{"name":"_owner","type":"address","internalType":"address"},{"name":"_assetName","type":"string","internalType":"string"},{"name":"_description","type":"string","internalType":"string"},{"name":"_assertUri","type":"string","internalType":"string"}],"outputs":[{"name":"","type":"bool","internalType":"bool"}],"stateMutability":"nonpayable"},{"type":"function","name":"getApproved","inputs":[{"name":"tokenId","type":"uint256","internalType":"uint256"}],"outputs":[{"name":"","type":"address","internalType":"address"}],"stateMutability":"view"},{"type":"function","name":"getAsset","inputs":[{"name":"tokenId","type":"uint256","internalType":"uint256"}],"outputs":[{"name":"","type":"tuple","internalType":"struct AssetVerification.Asset","components":[{"name":"name","type":"string","internalType":"string"},{"name":"value","type":"uint256","internalType":"uint256"},{"name":"owner","type":"address","internalType":"address"},{"name":"verify","type":"bool","internalType":"bool"},{"name":"tokenid","type":"uint256","internalType":"uint256"},{"name":"uri","type":"string","internalType":"string"},{"name":"description","type":"string","internalType":"string"}]}],"stateMutability":"view"},{"type":"function","name":"isApprovedForAll","inputs":[{"name":"owner","type":"address","internalType":"address"},{"name":"operator","type":"address","internalType":"address"}],"outputs":[{"name":"","type":"bool","internalType":"bool"}],"stateMutability":"view"},{"type":"function","name":"legalTeam","inputs":[{"name":"","type":"address","internalType":"address"}],"outputs":[{"name":"","type":"address","internalType":"address"}],"stateMutability":"view"},{"type":"function","name":"name","inputs":[],"outputs":[{"name":"","type":"string","internalType":"string"}],"stateMutability":"view"},{"type":"function","name":"owner","inputs":[],"outputs":[{"name":"","type":"address","internalType":"address"}],"stateMutability":"view"},{"type":"function","name":"ownerOf","inputs":[{"name":"tokenId","type":"uint256","internalType":"uint256"}],"outputs":[{"name":"","type":"address","internalType":"address"}],"stateMutability":"view"},{"type":"function","name":"pause","inputs":[],"outputs":[],"stateMutability":"nonpayable"},{"type":"function","name":"paused","inputs":[],"outputs":[{"name":"","type":"bool","internalType":"bool"}],"stateMutability":"view"},{"type":"function","name":"renounceOwnership","inputs":[],"outputs":[],"stateMutability":"nonpayable"},{"type":"function","name":"safeTransferFrom","inputs":[{"name":"from","type":"address","internalType":"address"},{"name":"to","type":"address","internalType":"address"},{"name":"tokenId","type":"uint256","internalType":"uint256"}],"outputs":[],"stateMutability":"nonpayable"},{"type":"function","name":"safeTransferFrom","inputs":[{"name":"from","type":"address","internalType":"address"},{"name":"to","type":"address","internalType":"address"},{"name":"tokenId","type":"uint256","internalType":"uint256"},{"name":"data","type":"bytes","internalType":"bytes"}],"outputs":[],"stateMutability":"nonpayable"},{"type":"function","name":"setApprovalForAll","inputs":[{"name":"operator","type":"address","internalType":"address"},{"name":"approved","type":"bool","internalType":"bool"}],"outputs":[],"stateMutability":"nonpayable"},{"type":"function","name":"setFactoryContractaddress","inputs":[{"name":"_factoryContract","type":"address","internalType":"address"}],"outputs":[],"stateMutability":"nonpayable"},{"type":"function","name":"supportsInterface","inputs":[{"name":"interfaceId","type":"bytes4","internalType":"bytes4"}],"outputs":[{"name":"","type":"bool","internalType":"bool"}],"stateMutability":"view"},{"type":"function","name":"symbol","inputs":[],"outputs":[{"name":"","type":"string","internalType":"string"}],"stateMutability":"view"},{"type":"function","name":"tokenURI","inputs":[{"name":"tokenId","type":"uint256","internalType":"uint256"}],"outputs":[{"name":"","type":"string","internalType":"string"}],"stateMutability":"view"},{"type":"function","name":"transferFrom","inputs":[{"name":"from","type":"address","internalType":"address"},{"name":"to","type":"address","internalType":"address"},{"name":"tokenId","type":"uint256","internalType":"uint256"}],"outputs":[],"stateMutability":"nonpayable"},{"type":"function","name":"transferOwnership","inputs":[{"name":"newOwner","type":"address","internalType":"address"}],"outputs":[],"stateMutability":"nonpayable"},{"type":"function","name":"unpause","inputs":[],"outputs":[],"stateMutability":"nonpayable"},{"type":"function","name":"updateAsset","inputs":[{"name":"_tokenId","type":"uint256","internalType":"uint256"},{"name":"_value","type":"uint256","internalType":"uint256"}],"outputs":[{"name":"","type":"bool","internalType":"bool"}],"stateMutability":"nonpayable"},{"type":"event","name":"Approval","inputs":[{"name":"owner","type":"address","indexed":true,"internalType":"address"},{"name":"approved","type":"address","indexed":true,"internalType":"address"},{"name":"tokenId","type":"uint256","indexed":true,"internalType":"uint256"}],"anonymous":false},{"type":"event","name":"ApprovalForAll","inputs":[{"name":"owner","type":"address","indexed":true,"internalType":"address"},{"name":"operator","type":"address","indexed":true,"internalType":"address"},{"name":"approved","type":"bool","indexed":false,"internalType":"bool"}],"anonymous":false},{"type":"event","name":"AssetCreated","inputs":[{"name":"owner","type":"address","indexed":true,"internalType":"address"},{"name":"tokenId","type":"uint256","indexed":true,"internalType":"uint256"},{"name":"uri","type":"string","indexed":false,"internalType":"string"}],"anonymous":false},{"type":"event","name":"AssetUpdated","inputs":[{"name":"value","type":"uint256","indexed":true,"internalType":"uint256"},{"name":"owner","type":"address","indexed":true,"internalType":"address"}],"anonymous":false},{"type":"event","name":"BatchMetadataUpdate","inputs":[{"name":"_fromTokenId","type":"uint256","indexed":false,"internalType":"uint256"},{"name":"_toTokenId","type":"uint256","indexed":false,"internalType":"uint256"}],"anonymous":false},{"type":"event","name":"MetadataUpdate","inputs":[{"name":"_tokenId","type":"uint256","indexed":false,"internalType":"uint256"}],"anonymous":false},{"type":"event","name":"OwnershipTransferred","inputs":[{"name":"previousOwner","type":"address","indexed":true,"internalType":"address"},{"name":"newOwner","type":"address","indexed":true,"internalType":"address"}],"anonymous":false},{"type":"event","name":"Paused","inputs":[{"name":"account","type":"address","indexed":false,"internalType":"address"}],"anonymous":false},{"type":"event","name":"Transfer","inputs":[{"name":"from","type":"address","indexed":true,"internalType":"address"},{"name":"to","type":"address","indexed":true,"internalType":"address"},{"name":"tokenId","type":"uint256","indexed":true,"internalType":"uint256"}],"anonymous":false},{"type":"event","name":"Unpaused","inputs":[{"name":"account","type":"address","indexed":false,"internalType":"address"}],"anonymous":false},{"type":"error","name":"AssetVerification__AddressCanNotBeZero","inputs":[]},{"type":"error","name":"AssetVerification__OnlyAuditorTeamCanVerifyAssets","inputs":[]},{"type":"error","name":"AssetVerification__OnlyLegalTeamCanVerifyAssets","inputs":[]},{"type":"error","name":"ERC721IncorrectOwner","inputs":[{"name":"sender","type":"address","internalType":"address"},{"name":"tokenId","type":"uint256","internalType":"uint256"},{"name":"owner","type":"address","internalType":"address"}]},{"type":"error","name":"ERC721InsufficientApproval","inputs":[{"name":"operator","type":"address","internalType":"address"},{"name":"tokenId","type":"uint256","internalType":"uint256"}]},{"type":"error","name":"ERC721InvalidApprover","inputs":[{"name":"approver","type":"address","internalType":"address"}]},{"type":"error","name":"ERC721InvalidOperator","inputs":[{"name":"operator","type":"address","internalType":"address"}]},{"type":"error","name":"ERC721InvalidOwner","inputs":[{"name":"owner","type":"address","internalType":"address"}]},{"type":"error","name":"ERC721InvalidReceiver","inputs":[{"name":"receiver","type":"address","internalType":"address"}]},{"type":"error","name":"ERC721InvalidSender","inputs":[{"name":"sender","type":"address","internalType":"address"}]},{"type":"error","name":"ERC721NonexistentToken","inputs":[{"name":"tokenId","type":"uint256","internalType":"uint256"}]},{"type":"error","name":"EnforcedPause","inputs":[]},{"type":"error","name":"ExpectedPause","inputs":[]},{"type":"error","name":"OwnableInvalidOwner","inputs":[{"name":"owner","type":"address","internalType":"address"}]},{"type":"error","name":"OwnableUnauthorizedAccount","inputs":[{"name":"account","type":"address","internalType":"address"}]}],"bytecode":{"object":"0x60806040523480156200001157600080fd5b50336040518060400160405280601081526020016f149150530815d3d49311081054d4d15560821b815250604051806040016040528060038152602001621415d160ea1b8152508160009081620000699190620001c7565b506001620000788282620001c7565b50506007805460ff19169055506001600160a01b038116620000b457604051631e4fbdf760e01b81526000600482015260240160405180910390fd5b620000bf81620000c6565b5062000293565b600780546001600160a01b03838116610100818102610100600160a81b031985161790945560405193909204169182907f8be0079c531659141344cd1fd0a4f28419497f9722a3daafe3b4186f6b6457e090600090a35050565b634e487b7160e01b600052604160045260246000fd5b600181811c908216806200014b57607f821691505b6020821081036200016c57634e487b7160e01b600052602260045260246000fd5b50919050565b601f821115620001c2576000816000526020600020601f850160051c810160208610156200019d5750805b601f850160051c820191505b81811015620001be57828155600101620001a9565b5050505b505050565b81516001600160401b03811115620001e357620001e362000120565b620001fb81620001f4845462000136565b8462000172565b602080601f8311600181146200023357600084156200021a5750858301515b600019600386901b1c1916600185901b178555620001be565b600085815260208120601f198616915b82811015620002645788860151825594840194600190910190840162000243565b5085821015620002835787850151600019600388901b60f8161c191681555b5050505050600190811b01905550565b61209d80620002a36000396000f3fe608060405234801561001057600080fd5b50600436106101da5760003560e01c80636352211e11610104578063a0b4b301116100a2578063c87b56dd11610071578063c87b56dd1461041a578063e985e9c51461042d578063eac8f5b814610440578063f2fde38b1461046057600080fd5b8063a0b4b301146103bb578063a22cb465146103e1578063a5858300146103f4578063b88d4fde1461040757600080fd5b8063715018a6116100de578063715018a61461038d5780638456cb59146103955780638da5cb5b1461039d57806395d89b41146103b357600080fd5b80636352211e14610346578063669b90081461035957806370a082311461036c57600080fd5b8063197461cd1161017c5780633f4ba83a1161014b5780633f4ba83a1461030d57806342842e0e1461031557806342966c68146103285780635c975abb1461033b57600080fd5b8063197461cd146102ab57806323b872dd146102be5780632ab8a3d0146102d15780633e2ea398146102fa57600080fd5b8063095ea7b3116101b8578063095ea7b314610247578063098762501461025c5780630a57cd501461028557806315c645751461029857600080fd5b806301ffc9a7146101df57806306fdde0314610207578063081812fc1461021c575b600080fd5b6101f26101ed366004611988565b610473565b60405190151581526020015b60405180910390f35b61020f610484565b6040516101fe91906119f5565b61022f61022a366004611a08565b610516565b6040516001600160a01b0390911681526020016101fe565b61025a610255366004611a3d565b61053f565b005b61022f61026a366004611a67565b600c602052600090815260409020546001600160a01b031681565b61025a610293366004611a67565b61054e565b60085461022f906001600160a01b031681565b6101f26102b9366004611b2e565b610580565b61025a6102cc366004611bc7565b610792565b61022f6102df366004611a67565b600b602052600090815260409020546001600160a01b031681565b61025a610308366004611a67565b610822565b61025a61086d565b61025a610323366004611bc7565b61087f565b61025a610336366004611a08565b61089f565b60075460ff166101f2565b61022f610354366004611a08565b6108ab565b6101f2610367366004611c03565b6108b6565b61037f61037a366004611a67565b610947565b6040519081526020016101fe565b61025a61098f565b61025a6109a1565b60075461010090046001600160a01b031661022f565b61020f6109b1565b6103ce6103c9366004611a08565b6109c0565b6040516101fe9796959493929190611c25565b61025a6103ef366004611c91565b610ba5565b61025a610402366004611a67565b610bb0565b61025a610415366004611ccd565b610be2565b61020f610428366004611a08565b610bf9565b6101f261043b366004611d3d565b610c04565b61045361044e366004611a08565b610c32565b6040516101fe9190611d70565b61025a61046e366004611a67565b610e8f565b600061047e82610ecd565b92915050565b60606000805461049390611e04565b80601f01602080910402602001604051908101604052809291908181526020018280546104bf90611e04565b801561050c5780601f106104e15761010080835404028352916020019161050c565b820191906000526020600020905b8154815290600101906020018083116104ef57829003601f168201915b5050505050905090565b600061052182610ef2565b506000828152600460205260409020546001600160a01b031661047e565b61054a828233610f2b565b5050565b610556610f38565b6001600160a01b03166000818152600b6020526040902080546001600160a01b0319169091179055565b336000908152600b60205260408120546001600160a01b03166105b65760405163546cfb5d60e11b815260040160405180910390fd5b846001600160a01b0381166105de57604051634409b67360e11b815260040160405180910390fd5b6008546001600160a01b031661060757604051634409b67360e11b815260040160405180910390fd5b610615600980546001019055565b600061062060095490565b6000818152600a602052604090209091508061063c8882611e8e565b506008546002820180546001600160a81b0319166001600160a01b0390921691909117600160a01b179055600381018290556004810161067c8682611e8e565b506005810161068b8782611e8e565b506008546106a2906001600160a01b031683610f6b565b610738828260040180546106b590611e04565b80601f01602080910402602001604051908101604052809291908181526020018280546106e190611e04565b801561072e5780601f106107035761010080835404028352916020019161072e565b820191906000526020600020905b81548152906001019060200180831161071157829003601f168201915b5050505050610f85565b600281015460405183916001600160a01b0316907f59b2e6618bc86b0b11c508924ed07eea4554c0772580d974c564ab4d446f7eab9061077c906004860190611f4e565b60405180910390a3506001979650505050505050565b6001600160a01b0382166107c157604051633250574960e11b8152600060048201526024015b60405180910390fd5b60006107ce838333610fd5565b9050836001600160a01b0316816001600160a01b03161461081c576040516364283d7b60e01b81526001600160a01b03808616600483015260248201849052821660448201526064016107b8565b50505050565b806001600160a01b03811661084a57604051634409b67360e11b815260040160405180910390fd5b50600880546001600160a01b0319166001600160a01b0392909216919091179055565b610875610f38565b61087d610fea565b565b61089a83838360405180602001604052806000815250610be2565b505050565b61054a60008233610fd5565b600061047e82610ef2565b336000908152600c60205260408120546001600160a01b03166108ec57604051630e97e14f60e01b815260040160405180910390fd5b6000838152600a6020526040808220600181018590556002810154915190926001600160a01b039092169185917fc2df6c5a19f8e42206c974d00007ad34d98483a97c5218c3d9141aebf387678c9190a35060019392505050565b60006001600160a01b038216610973576040516322718ad960e21b8152600060048201526024016107b8565b506001600160a01b031660009081526003602052604090205490565b610997610f38565b61087d600061103c565b6109a9610f38565b61087d611096565b60606001805461049390611e04565b600a602052600090815260409020805481906109db90611e04565b80601f0160208091040260200160405190810160405280929190818152602001828054610a0790611e04565b8015610a545780601f10610a2957610100808354040283529160200191610a54565b820191906000526020600020905b815481529060010190602001808311610a3757829003601f168201915b50505050600183015460028401546003850154600486018054959693956001600160a01b0384169550600160a01b90930460ff16939192610a9490611e04565b80601f0160208091040260200160405190810160405280929190818152602001828054610ac090611e04565b8015610b0d5780601f10610ae257610100808354040283529160200191610b0d565b820191906000526020600020905b815481529060010190602001808311610af057829003601f168201915b505050505090806005018054610b2290611e04565b80601f0160208091040260200160405190810160405280929190818152602001828054610b4e90611e04565b8015610b9b5780601f10610b7057610100808354040283529160200191610b9b565b820191906000526020600020905b815481529060010190602001808311610b7e57829003601f168201915b5050505050905087565b61054a3383836110d3565b610bb8610f38565b6001600160a01b03166000818152600c6020526040902080546001600160a01b0319169091179055565b610bed848484610792565b61081c84848484611172565b606061047e8261129b565b6001600160a01b03918216600090815260056020908152604080832093909416825291909152205460ff1690565b610c7d6040518060e00160405280606081526020016000815260200160006001600160a01b031681526020016000151581526020016000815260200160608152602001606081525090565b6000828152600a602052604090819020815160e08101909252805482908290610ca590611e04565b80601f0160208091040260200160405190810160405280929190818152602001828054610cd190611e04565b8015610d1e5780601f10610cf357610100808354040283529160200191610d1e565b820191906000526020600020905b815481529060010190602001808311610d0157829003601f168201915b50505091835250506001820154602082015260028201546001600160a01b0381166040830152600160a01b900460ff16151560608201526003820154608082015260048201805460a090920191610d7490611e04565b80601f0160208091040260200160405190810160405280929190818152602001828054610da090611e04565b8015610ded5780601f10610dc257610100808354040283529160200191610ded565b820191906000526020600020905b815481529060010190602001808311610dd057829003601f168201915b50505050508152602001600582018054610e0690611e04565b80601f0160208091040260200160405190810160405280929190818152602001828054610e3290611e04565b8015610e7f5780601f10610e5457610100808354040283529160200191610e7f565b820191906000526020600020905b815481529060010190602001808311610e6257829003601f168201915b5050505050815250509050919050565b610e97610f38565b6001600160a01b038116610ec157604051631e4fbdf760e01b8152600060048201526024016107b8565b610eca8161103c565b50565b60006001600160e01b03198216632483248360e11b148061047e575061047e826113a4565b6000818152600260205260408120546001600160a01b03168061047e57604051637e27328960e01b8152600481018490526024016107b8565b61089a83838360016113f4565b6007546001600160a01b0361010090910416331461087d5760405163118cdaa760e01b81523360048201526024016107b8565b61054a8282604051806020016040528060008152506114fa565b6000828152600660205260409020610f9d8282611e8e565b506040518281527ff8e1a15aba9398e019f0b49df1a4fde98ee17ae345cb5f6b5e2c27f5033e8ce79060200160405180910390a15050565b6000610fe2848484611511565b949350505050565b610ff2611526565b6007805460ff191690557f5db9ee0a495bf2e6ff9c91a7834c1ba4fdd244a5e8aa4e537bd38aeae4b073aa335b6040516001600160a01b03909116815260200160405180910390a1565b600780546001600160a01b03838116610100818102610100600160a81b031985161790945560405193909204169182907f8be0079c531659141344cd1fd0a4f28419497f9722a3daafe3b4186f6b6457e090600090a35050565b61109e611549565b6007805460ff191660011790557f62e78cea01bee320cd4e420270b5ea74000d11b0c9f74754ebdbfc544b05a25861101f3390565b6001600160a01b03821661110557604051630b61174360e31b81526001600160a01b03831660048201526024016107b8565b6001600160a01b03838116600081815260056020908152604080832094871680845294825291829020805460ff191686151590811790915591519182527f17307eab39ab6107e8899845ad3d59bd9653f200f220920489ca2b5937696c31910160405180910390a3505050565b6001600160a01b0383163b1561081c57604051630a85bd0160e11b81526001600160a01b0384169063150b7a02906111b4903390889087908790600401611fde565b6020604051808303816000875af19250505080156111ef575060408051601f3d908101601f191682019092526111ec9181019061201b565b60015b611258573d80801561121d576040519150601f19603f3d011682016040523d82523d6000602084013e611222565b606091505b50805160000361125057604051633250574960e11b81526001600160a01b03851660048201526024016107b8565b805181602001fd5b6001600160e01b03198116630a85bd0160e11b1461129457604051633250574960e11b81526001600160a01b03851660048201526024016107b8565b5050505050565b60606112a682610ef2565b50600082815260066020526040812080546112c090611e04565b80601f01602080910402602001604051908101604052809291908181526020018280546112ec90611e04565b80156113395780601f1061130e57610100808354040283529160200191611339565b820191906000526020600020905b81548152906001019060200180831161131c57829003601f168201915b50505050509050600061135760408051602081019091526000815290565b90508051600003611369575092915050565b81511561139b578082604051602001611383929190612038565b60405160208183030381529060405292505050919050565b610fe28461156d565b60006001600160e01b031982166380ac58cd60e01b14806113d557506001600160e01b03198216635b5e139f60e01b145b8061047e57506301ffc9a760e01b6001600160e01b031983161461047e565b808061140857506001600160a01b03821615155b156114ca57600061141884610ef2565b90506001600160a01b038316158015906114445750826001600160a01b0316816001600160a01b031614155b801561145757506114558184610c04565b155b156114805760405163a9fbf51f60e01b81526001600160a01b03841660048201526024016107b8565b81156114c85783856001600160a01b0316826001600160a01b03167f8c5be1e5ebec7d5bd14f71427d1e84f3dd0314c0f7b2291e5b200ac8c7c3b92560405160405180910390a45b505b5050600090815260046020526040902080546001600160a01b0319166001600160a01b0392909216919091179055565b61150483836115e2565b61089a6000848484611172565b600061151b611549565b610fe2848484611647565b60075460ff1661087d57604051638dfc202b60e01b815260040160405180910390fd5b60075460ff161561087d5760405163d93c066560e01b815260040160405180910390fd5b606061157882610ef2565b50600061159060408051602081019091526000815290565b905060008151116115b057604051806020016040528060008152506115db565b806115ba84611740565b6040516020016115cb929190612038565b6040516020818303038152906040525b9392505050565b6001600160a01b03821661160c57604051633250574960e11b8152600060048201526024016107b8565b600061161a83836000610fd5565b90506001600160a01b0381161561089a576040516339e3563760e11b8152600060048201526024016107b8565b6000828152600260205260408120546001600160a01b0390811690831615611674576116748184866117d3565b6001600160a01b038116156116b2576116916000856000806113f4565b6001600160a01b038116600090815260036020526040902080546000190190555b6001600160a01b038516156116e1576001600160a01b0385166000908152600360205260409020805460010190555b60008481526002602052604080822080546001600160a01b0319166001600160a01b0389811691821790925591518793918516917fddf252ad1be2c89b69c2b068fc378daa952ba7f163c4a11628f55a4df523b3ef91a4949350505050565b6060600061174d83611837565b600101905060008167ffffffffffffffff81111561176d5761176d611a82565b6040519080825280601f01601f191660200182016040528015611797576020820181803683370190505b5090508181016020015b600019016f181899199a1a9b1b9c1cb0b131b232b360811b600a86061a8153600a85049450846117a157509392505050565b6117de83838361190f565b61089a576001600160a01b03831661180c57604051637e27328960e01b8152600481018290526024016107b8565b60405163177e802f60e01b81526001600160a01b0383166004820152602481018290526044016107b8565b60008072184f03e93ff9f4daa797ed6e38ed64bf6a1f0160401b83106118765772184f03e93ff9f4daa797ed6e38ed64bf6a1f0160401b830492506040015b6d04ee2d6d415b85acef810000000083106118a2576d04ee2d6d415b85acef8100000000830492506020015b662386f26fc1000083106118c057662386f26fc10000830492506010015b6305f5e10083106118d8576305f5e100830492506008015b61271083106118ec57612710830492506004015b606483106118fe576064830492506002015b600a831061047e5760010192915050565b60006001600160a01b03831615801590610fe25750826001600160a01b0316846001600160a01b0316148061194957506119498484610c04565b80610fe25750506000908152600460205260409020546001600160a01b03908116911614919050565b6001600160e01b031981168114610eca57600080fd5b60006020828403121561199a57600080fd5b81356115db81611972565b60005b838110156119c05781810151838201526020016119a8565b50506000910152565b600081518084526119e18160208601602086016119a5565b601f01601f19169290920160200192915050565b6020815260006115db60208301846119c9565b600060208284031215611a1a57600080fd5b5035919050565b80356001600160a01b0381168114611a3857600080fd5b919050565b60008060408385031215611a5057600080fd5b611a5983611a21565b946020939093013593505050565b600060208284031215611a7957600080fd5b6115db82611a21565b634e487b7160e01b600052604160045260246000fd5b600067ffffffffffffffff80841115611ab357611ab3611a82565b604051601f8501601f19908116603f01168101908282118183101715611adb57611adb611a82565b81604052809350858152868686011115611af457600080fd5b858560208301376000602087830101525050509392505050565b600082601f830112611b1f57600080fd5b6115db83833560208501611a98565b60008060008060808587031215611b4457600080fd5b611b4d85611a21565b9350602085013567ffffffffffffffff80821115611b6a57600080fd5b611b7688838901611b0e565b94506040870135915080821115611b8c57600080fd5b611b9888838901611b0e565b93506060870135915080821115611bae57600080fd5b50611bbb87828801611b0e565b91505092959194509250565b600080600060608486031215611bdc57600080fd5b611be584611a21565b9250611bf360208501611a21565b9150604084013590509250925092565b60008060408385031215611c1657600080fd5b50508035926020909101359150565b60e081526000611c3860e083018a6119c9565b602083018990526001600160a01b038816604084015286151560608401526080830186905282810360a0840152611c6f81866119c9565b905082810360c0840152611c8381856119c9565b9a9950505050505050505050565b60008060408385031215611ca457600080fd5b611cad83611a21565b915060208301358015158114611cc257600080fd5b809150509250929050565b60008060008060808587031215611ce357600080fd5b611cec85611a21565b9350611cfa60208601611a21565b925060408501359150606085013567ffffffffffffffff811115611d1d57600080fd5b8501601f81018713611d2e57600080fd5b611bbb87823560208401611a98565b60008060408385031215611d5057600080fd5b611d5983611a21565b9150611d6760208401611a21565b90509250929050565b602081526000825160e06020840152611d8d6101008401826119c9565b90506020840151604084015260018060a01b036040850151166060840152606084015115156080840152608084015160a084015260a0840151601f19808584030160c0860152611ddd83836119c9565b925060c08601519150808584030160e086015250611dfb82826119c9565b95945050505050565b600181811c90821680611e1857607f821691505b602082108103611e3857634e487b7160e01b600052602260045260246000fd5b50919050565b601f82111561089a576000816000526020600020601f850160051c81016020861015611e675750805b601f850160051c820191505b81811015611e8657828155600101611e73565b505050505050565b815167ffffffffffffffff811115611ea857611ea8611a82565b611ebc81611eb68454611e04565b84611e3e565b602080601f831160018114611ef15760008415611ed95750858301515b600019600386901b1c1916600185901b178555611e86565b600085815260208120601f198616915b82811015611f2057888601518255948401946001909101908401611f01565b5085821015611f3e5787850151600019600388901b60f8161c191681555b5050505050600190811b01905550565b6000602080835260008454611f6281611e04565b8060208701526040600180841660008114611f845760018114611fa057611fd0565b60ff19851660408a0152604084151560051b8a01019550611fd0565b89600052602060002060005b85811015611fc75781548b8201860152908301908801611fac565b8a016040019650505b509398975050505050505050565b6001600160a01b0385811682528416602082015260408101839052608060608201819052600090612011908301846119c9565b9695505050505050565b60006020828403121561202d57600080fd5b81516115db81611972565b6000835161204a8184602088016119a5565b83519083019061205e8183602088016119a5565b0194935050505056fea2646970667358221220569f8ca9a7eba7f189196847686d42e9f42723aa4e83337a854d8b656a2ae5f864736f6c63430008170033","linkReferences":{}},"methodIdentifiers":{"FractionalizerFactory()":"15c64575","addAuditorTeam(address)":"a5858300","addLegalTeam(address)":"0a57cd50","approve(address,uint256)":"095ea7b3","assetList(uint256)":"a0b4b301","audtiorTeam(address)":"09876250","balanceOf(address)":"70a08231","burn(uint256)":"42966c68","createAsset(address,string,string,string)":"197461cd","getApproved(uint256)":"081812fc","getAsset(uint256)":"eac8f5b8","isApprovedForAll(address,address)":"e985e9c5","legalTeam(address)":"2ab8a3d0","name()":"06fdde03","owner()":"8da5cb5b","ownerOf(uint256)":"6352211e","pause()":"8456cb59","paused()":"5c975abb","renounceOwnership()":"715018a6","safeTransferFrom(address,address,uint256)":"42842e0e","safeTransferFrom(address,address,uint256,bytes)":"b88d4fde","setApprovalForAll(address,bool)":"a22cb465","setFactoryContractaddress(address)":"3e2ea398","supportsInterface(bytes4)":"01ffc9a7","symbol()":"95d89b41","tokenURI(uint256)":"c87b56dd","transferFrom(address,address,uint256)":"23b872dd","transferOwnership(address)":"f2fde38b","unpause()":"3f4ba83a","updateAsset(uint256,uint256)":"669b9008"},"id":56}