{"abi":[{"type":"constructor","inputs":[{"name":"_assetFactory","type":"address","internalType":"address"},{"name":"_paymentToken","type":"address","internalType":"address"}],"stateMutability":"nonpayable"},{"type":"function","name":"borrow","inputs":[{"name":"_fractionalizedToken","type":"address","internalType":"address"},{"name":"_unitToDeposit","type":"uint256","internalType":"uint256"},{"name":"_loanAmount","type":"uint256","internalType":"uint256"},{"name":"_time","type":"uint8","internalType":"enum LendingContract.TimePeriod"}],"outputs":[],"stateMutability":"nonpayable"},{"type":"function","name":"debt","inputs":[{"name":"","type":"address","internalType":"address"},{"name":"","type":"uint256","internalType":"uint256"}],"outputs":[{"name":"","type":"uint256","internalType":"uint256"}],"stateMutability":"view"},{"type":"function","name":"getLoanInfo","inputs":[{"name":"num","type":"uint256","internalType":"uint256"}],"outputs":[{"name":"","type":"tuple","internalType":"struct LendingContract.Loan","components":[{"name":"borrower","type":"address","internalType":"address"},{"name":"amount","type":"uint256","internalType":"uint256"},{"name":"dueDate","type":"uint256","internalType":"uint256"},{"name":"unit","type":"uint256","internalType":"uint256"},{"name":"fractonalizedToken","type":"address","internalType":"address"}]}],"stateMutability":"view"},{"type":"function","name":"getTimeInterpreter","inputs":[{"name":"_num","type":"uint8","internalType":"enum LendingContract.TimePeriod"}],"outputs":[{"name":"","type":"uint256","internalType":"uint256"}],"stateMutability":"pure"},{"type":"function","name":"getUserIdLoans","inputs":[{"name":"_user","type":"address","internalType":"address"}],"outputs":[{"name":"","type":"uint256[]","internalType":"uint256[]"}],"stateMutability":"view"},{"type":"function","name":"liquidate","inputs":[{"name":"_debtId","type":"uint256","internalType":"uint256"}],"outputs":[],"stateMutability":"nonpayable"},{"type":"function","name":"loanInfo","inputs":[{"name":"","type":"uint256","internalType":"uint256"}],"outputs":[{"name":"borrower","type":"address","internalType":"address"},{"name":"amount","type":"uint256","internalType":"uint256"},{"name":"dueDate","type":"uint256","internalType":"uint256"},{"name":"unit","type":"uint256","internalType":"uint256"},{"name":"fractonalizedToken","type":"address","internalType":"address"}],"stateMutability":"view"},{"type":"function","name":"paydebt","inputs":[{"name":"_debtId","type":"uint256","internalType":"uint256"}],"outputs":[],"stateMutability":"nonpayable"},{"type":"error","name":"AddressEmptyCode","inputs":[{"name":"target","type":"address","internalType":"address"}]},{"type":"error","name":"AddressInsufficientBalance","inputs":[{"name":"account","type":"address","internalType":"address"}]},{"type":"error","name":"FailedInnerCall","inputs":[]},{"type":"error","name":"SafeERC20FailedOperation","inputs":[{"name":"token","type":"address","internalType":"address"}]}],"bytecode":{"object":"0x608060405234801561001057600080fd5b50604051610f64380380610f6483398101604081905261002f9161007c565b600380546001600160a01b039384166001600160a01b031991821617909155600480549290931691161790556100af565b80516001600160a01b038116811461007757600080fd5b919050565b6000806040838503121561008f57600080fd5b61009883610060565b91506100a660208401610060565b90509250929050565b610ea6806100be6000396000f3fe608060405234801561001057600080fd5b50600436106100885760003560e01c806348f59d5f1161005b57806348f59d5f1461013a5780638349d6be1461014d578063c97899c6146101c9578063d0230e55146101ea57600080fd5b80630714012c1461008d5780630c740fae146100f25780632adfb21714610112578063415f124014610127575b600080fd5b6100a061009b366004610c36565b6101fd565b6040516100e9919081516001600160a01b039081168252602080840151908301526040808401519083015260608084015190830152608092830151169181019190915260a00190565b60405180910390f35b610105610100366004610c66565b610298565b6040516100e99190610c81565b610125610120366004610cd4565b610304565b005b610125610135366004610c36565b61064c565b610125610148366004610c36565b6107b3565b61019561015b366004610c36565b600060208190529081526040902080546001820154600283015460038401546004909401546001600160a01b039384169492939192911685565b604080516001600160a01b03968716815260208101959095528401929092526060830152909116608082015260a0016100e9565b6101dc6101d7366004610d1a565b6108f4565b6040519081526020016100e9565b6101dc6101f8366004610d44565b610925565b6102416040518060a0016040528060006001600160a01b0316815260200160008152602001600081526020016000815260200160006001600160a01b031681525090565b5060009081526020818152604091829020825160a08101845281546001600160a01b039081168252600183015493820193909352600282015493810193909352600381015460608401526004015416608082015290565b6001600160a01b0381166000908152600160209081526040918290208054835181840281018401909452808452606093928301828280156102f857602002820191906000526020600020905b8154815260200190600101908083116102e4575b50505050509050919050565b60035460405163bbeab0f360e01b81526001600160a01b0386811660048301529091169063bbeab0f390602401602060405180830381865afa15801561034e573d6000803e3d6000fd5b505050506040513d601f19601f820116820180604052508101906103729190610d5f565b15156001146103c85760405162461bcd60e51b815260206004820152601760248201527f746f6b656e206973206e6f74206672616374696f6e656400000000000000000060448201526064015b60405180910390fd5b6040516370a0823160e01b815233600482015283906001600160a01b038616906370a0823190602401602060405180830381865afa15801561040e573d6000803e3d6000fd5b505050506040513d601f19601f820116820180604052508101906104329190610d81565b10156104765760405162461bcd60e51b8152602060048201526013602482015272796f7520646f6e74206861766520756e69747360681b60448201526064016103bf565b8183856001600160a01b031663b49f4afd6040518163ffffffff1660e01b8152600401602060405180830381865afa1580156104b6573d6000803e3d6000fd5b505050506040513d601f19601f820116820180604052508101906104da9190610d81565b6104e49190610db0565b1461053d5760405162461bcd60e51b815260206004820152602360248201527f796f752063616e6e6f7420626f72726f77206d6f7265207468616e20796f752060448201526237bbb760e91b60648201526084016103bf565b6105526001600160a01b0385163330866109f5565b60006040518060a00160405280336001600160a01b0316815260200184815260200161057d84610925565b6105879042610dc7565b815260208082018790526001600160a01b0380891660409384015233600081815260018085528582206002805482548085018455928552878520909201919091558054835282865291869020875181549086166001600160a01b0319918216178255958801519181019190915594860151908501556060850151600385015560808501516004948501805491841691909416179092559154929350610630929091169085610a62565b6002805490600061064083610dda565b91905055505050505050565b6000818152602081905260409020600281015442101561069d5760405162461bcd60e51b815260206004820152600c60248201526b44656274206e6f742064756560a01b60448201526064016103bf565b6001810154600060646106b183600a610db0565b6106bb9190610df3565b90506106e633308386600101546106d29190610dc7565b6004546001600160a01b03169291906109f5565b336000908152600160205260408120905b815481101561074d578582828154811061071357610713610e15565b9060005260206000200154036107455781818154811061073557610735610e15565b600091825260208220015561074d565b6001016106f7565b506003840154600485015461076f916001600160a01b03909116903390610a62565b50505060009182525060208190526040812080546001600160a01b031990811682556001820183905560028201839055600382019290925560040180549091169055565b600081815260208190526040902060028101544211156108085760405162461bcd60e51b815260206004820152601060248201526f4465627420616c72656164792064756560801b60448201526064016103bf565b6001810154600454610829916001600160a01b0390911690339030906109f5565b336000908152600160205260408120905b8154811015610890578382828154811061085657610856610e15565b9060005260206000200154036108885781818154811061087857610878610e15565b6000918252602082200155610890565b60010161083a565b50600382015460048301546108b2916001600160a01b03909116903390610a62565b5050600090815260208190526040812080546001600160a01b031990811682556001820183905560028201839055600382019290925560040180549091169055565b6001602052816000526040600020818154811061091057600080fd5b90600052602060002001600091509150505481565b60008082600381111561093a5761093a610e2b565b03610949575062127500919050565b600182600381111561095d5761095d610e2b565b0361096c575062278d00919050565b600282600381111561098057610980610e2b565b0361098f5750624f1a00919050565b60038260038111156109a3576109a3610e2b565b036109b2575062ed4e00919050565b60405162461bcd60e51b8152602060048201526013602482015272125b9d985b1a59081d1a5b59481c195c9a5bd9606a1b60448201526064016103bf565b919050565b6040516001600160a01b038481166024830152838116604483015260648201839052610a5c9186918216906323b872dd906084015b604051602081830303815290604052915060e01b6020820180516001600160e01b038381831617835250505050610a98565b50505050565b6040516001600160a01b03838116602483015260448201839052610a9391859182169063a9059cbb90606401610a2a565b505050565b6000610aad6001600160a01b03841683610afb565b90508051600014158015610ad2575080806020019051810190610ad09190610d5f565b155b15610a9357604051635274afe760e01b81526001600160a01b03841660048201526024016103bf565b6060610b0983836000610b12565b90505b92915050565b606081471015610b375760405163cd78605960e01b81523060048201526024016103bf565b600080856001600160a01b03168486604051610b539190610e41565b60006040518083038185875af1925050503d8060008114610b90576040519150601f19603f3d011682016040523d82523d6000602084013e610b95565b606091505b5091509150610ba5868383610bb1565b925050505b9392505050565b606082610bc657610bc182610c0d565b610baa565b8151158015610bdd57506001600160a01b0384163b155b15610c0657604051639996b31560e01b81526001600160a01b03851660048201526024016103bf565b5080610baa565b805115610c1d5780518082602001fd5b604051630a12f52160e11b815260040160405180910390fd5b600060208284031215610c4857600080fd5b5035919050565b80356001600160a01b03811681146109f057600080fd5b600060208284031215610c7857600080fd5b610b0982610c4f565b6020808252825182820181905260009190848201906040850190845b81811015610cb957835183529284019291840191600101610c9d565b50909695505050505050565b8035600481106109f057600080fd5b60008060008060808587031215610cea57600080fd5b610cf385610c4f565b93506020850135925060408501359150610d0f60608601610cc5565b905092959194509250565b60008060408385031215610d2d57600080fd5b610d3683610c4f565b946020939093013593505050565b600060208284031215610d5657600080fd5b610b0982610cc5565b600060208284031215610d7157600080fd5b81518015158114610baa57600080fd5b600060208284031215610d9357600080fd5b5051919050565b634e487b7160e01b600052601160045260246000fd5b8082028115828204841417610b0c57610b0c610d9a565b80820180821115610b0c57610b0c610d9a565b600060018201610dec57610dec610d9a565b5060010190565b600082610e1057634e487b7160e01b600052601260045260246000fd5b500490565b634e487b7160e01b600052603260045260246000fd5b634e487b7160e01b600052602160045260246000fd5b6000825160005b81811015610e625760208186018101518583015201610e48565b50600092019182525091905056fea2646970667358221220221e05716b89d7f8d7257bab71834c032b4c1216daf272a2f23de615b2c90ee264736f6c63430008170033","linkReferences":{}},"methodIdentifiers":{"borrow(address,uint256,uint256,uint8)":"2adfb217","debt(address,uint256)":"c97899c6","getLoanInfo(uint256)":"0714012c","getTimeInterpreter(uint8)":"d0230e55","getUserIdLoans(address)":"0c740fae","liquidate(uint256)":"415f1240","loanInfo(uint256)":"8349d6be","paydebt(uint256)":"48f59d5f"},"id":58}