{"abi":[{"type":"constructor","inputs":[{"name":"_cofo","type":"address","internalType":"address"}],"stateMutability":"nonpayable"},{"type":"function","name":"cofo","inputs":[],"outputs":[{"name":"","type":"address","internalType":"address"}],"stateMutability":"view"},{"type":"function","name":"fractionalize","inputs":[{"name":"tokenId","type":"uint256","internalType":"uint256"},{"name":"assetManager","type":"address","internalType":"address"},{"name":"assetName","type":"string","internalType":"string"},{"name":"assetSymbol","type":"string","internalType":"string"},{"name":"_assetPrice","type":"uint256","internalType":"uint256"},{"name":"_paymentToken","type":"address","internalType":"address"},{"name":"_description","type":"string","internalType":"string"},{"name":"_uri","type":"string","internalType":"string"}],"outputs":[],"stateMutability":"nonpayable"},{"type":"function","name":"fractionalizerChekcer","inputs":[{"name":"","type":"uint256","internalType":"uint256"}],"outputs":[{"name":"","type":"bool","internalType":"bool"}],"stateMutability":"view"},{"type":"function","name":"fractionalizers","inputs":[{"name":"","type":"uint256","internalType":"uint256"}],"outputs":[{"name":"","type":"address","internalType":"address"}],"stateMutability":"view"},{"type":"event","name":"FractionalizerCreated","inputs":[{"name":"fractionalizer","type":"address","indexed":false,"internalType":"address"},{"name":"tokenId","type":"uint256","indexed":false,"internalType":"uint256"}],"anonymous":false}],"bytecode":{"object":"0x60a060405234801561001057600080fd5b5060405161235438038061235483398101604081905261002f91610040565b6001600160a01b0316608052610070565b60006020828403121561005257600080fd5b81516001600160a01b038116811461006957600080fd5b9392505050565b6080516122c36100916000396000818160bf01526101b601526122c36000f3fe60806040523480156200001157600080fd5b5060043610620000525760003560e01c806367deef241462000057578063b3bdc5c714620000a0578063e0ac02e414620000b9578063ef53cd6714620000e1575b600080fd5b620000836200006836600462000407565b6000602081905290815260409020546001600160a01b031681565b6040516001600160a01b0390911681526020015b60405180910390f35b620000b7620000b1366004620004f7565b62000118565b005b620000837f000000000000000000000000000000000000000000000000000000000000000081565b62000107620000f236600462000407565b60016020526000908152604090205460ff1681565b604051901515815260200162000097565b6000888152602081905260409020546001600160a01b031615620001a05760405162461bcd60e51b815260206004820152603460248201527f4672616374696f6e616c697a6572466163746f72793a206672616374696f6e616044820152736c697a657220616c72656164792065786973747360601b60648201526084015b60405180910390fd5b6040516331a9108f60e11b8152600481018990527f00000000000000000000000000000000000000000000000000000000000000006001600160a01b031690636352211e90602401602060405180830381865afa15801562000206573d6000803e3d6000fd5b505050506040513d601f19601f820116820180604052508101906200022c9190620005ea565b6001600160a01b0316336001600160a01b031614620002b45760405162461bcd60e51b815260206004820152603b60248201527f4672616374696f6e616c697a6572466163746f72793a2063616c6c657220697360448201527f206e6f7420746865206f776e6572206f662074686520746f6b656e0000000000606482015260840162000197565b60008881526001602052604090205460ff16156200032e5760405162461bcd60e51b815260206004820152603060248201527f4672616374696f6e6c697a6572466163746f72793a20746f6b656e20616c726560448201526f18591e48199c9858dd1a5bdb9a5e995960821b606482015260840162000197565b6000878787878787876040516200034590620003f9565b62000357979695949392919062000659565b604051809103906000f08015801562000374573d6000803e3d6000fd5b5060008a81526020818152604080832080546001600160a01b0319166001600160a01b038616908117909155600180845293829020805460ff191690941790935580519283529082018c90529192507fcb24d0b1b49f0fd474adce17491d3982ce9977d512031c3d06ae4647629d526d910160405180910390a1505050505050505050565b611bb380620006db83390190565b6000602082840312156200041a57600080fd5b5035919050565b6001600160a01b03811681146200043757600080fd5b50565b8035620004478162000421565b919050565b634e487b7160e01b600052604160045260246000fd5b600082601f8301126200047457600080fd5b813567ffffffffffffffff808211156200049257620004926200044c565b604051601f8301601f19908116603f01168101908282118183101715620004bd57620004bd6200044c565b81604052838152866020858801011115620004d757600080fd5b836020870160208301376000602085830101528094505050505092915050565b600080600080600080600080610100898b0312156200051557600080fd5b883597506200052760208a016200043a565b9650604089013567ffffffffffffffff808211156200054557600080fd5b620005538c838d0162000462565b975060608b01359150808211156200056a57600080fd5b620005788c838d0162000462565b965060808b013595506200058f60a08c016200043a565b945060c08b0135915080821115620005a657600080fd5b620005b48c838d0162000462565b935060e08b0135915080821115620005cb57600080fd5b50620005da8b828c0162000462565b9150509295985092959890939650565b600060208284031215620005fd57600080fd5b81516200060a8162000421565b9392505050565b6000815180845260005b8181101562000639576020818501810151868301820152016200061b565b506000602082860101526020601f19601f83011685010191505092915050565b600060018060a01b03808a16835260e060208401526200067d60e084018a62000611565b838103604085015262000691818a62000611565b9050876060850152818716608085015283810360a0850152620006b5818762000611565b91505082810360c0840152620006cc818562000611565b9a995050505050505050505056fe6101606040523480156200001257600080fd5b5060405162001bb338038062001bb38339810160408190526200003591620003ae565b6040805180820190915260018152603160f81b602082015286908190898289600362000062838262000528565b50600462000071828262000528565b50506005805460ff19169055506001600160a01b038116620000ae57604051631e4fbdf760e01b8152600060048201526024015b60405180910390fd5b620000b981620001ee565b50620000c782600662000248565b61012052620000d881600762000248565b61014052815160208084019190912060e052815190820120610100524660a0526200016660e05161010051604080517f8b73c3c69bb8fe3d512ecc4cf759cc79239f7b179b0ffacaa9a75d522b39400f60208201529081019290925260608201524660808201523060a082015260009060c00160405160208183030381529060405280519060200120905090565b60805250503060c052506009849055600a80546001600160a01b0319166001600160a01b0385161790556040805160608101825283815260208101839052600091810191909152600b80620001bc858262000528565b5060208201516001820190620001d3908262000528565b5060408201518160020155905050505050505050506200064e565b600580546001600160a01b03838116610100818102610100600160a81b031985161790945560405193909204169182907f8be0079c531659141344cd1fd0a4f28419497f9722a3daafe3b4186f6b6457e090600090a35050565b60006020835110156200026857620002608362000281565b90506200027b565b8162000275848262000528565b5060ff90505b92915050565b600080829050601f81511115620002af578260405163305a27a960e01b8152600401620000a59190620005f4565b8051620002bc8262000629565b179392505050565b80516001600160a01b0381168114620002dc57600080fd5b919050565b634e487b7160e01b600052604160045260246000fd5b60005b8381101562000314578181015183820152602001620002fa565b50506000910152565b600082601f8301126200032f57600080fd5b81516001600160401b03808211156200034c576200034c620002e1565b604051601f8301601f19908116603f01168101908282118183101715620003775762000377620002e1565b816040528381528660208588010111156200039157600080fd5b620003a4846020830160208901620002f7565b9695505050505050565b600080600080600080600060e0888a031215620003ca57600080fd5b620003d588620002c4565b60208901519097506001600160401b0380821115620003f357600080fd5b620004018b838c016200031d565b975060408a01519150808211156200041857600080fd5b620004268b838c016200031d565b965060608a015195506200043d60808b01620002c4565b945060a08a01519150808211156200045457600080fd5b620004628b838c016200031d565b935060c08a01519150808211156200047957600080fd5b50620004888a828b016200031d565b91505092959891949750929550565b600181811c90821680620004ac57607f821691505b602082108103620004cd57634e487b7160e01b600052602260045260246000fd5b50919050565b601f82111562000523576000816000526020600020601f850160051c81016020861015620004fe5750805b601f850160051c820191505b818110156200051f578281556001016200050a565b5050505b505050565b81516001600160401b03811115620005445762000544620002e1565b6200055c8162000555845462000497565b84620004d3565b602080601f8311600181146200059457600084156200057b5750858301515b600019600386901b1c1916600185901b1785556200051f565b600085815260208120601f198616915b82811015620005c557888601518255948401946001909101908401620005a4565b5085821015620005e45787850151600019600388901b60f8161c191681555b5050505050600190811b01905550565b602081526000825180602084015262000615816040850160208701620002f7565b601f01601f19169190910160400192915050565b80516020808301519190811015620004cd5760001960209190910360031b1b16919050565b60805160a05160c05160e05161010051610120516101405161150a620006a96000396000610c1401526000610be701526000610aa601526000610a7e015260006109d901526000610a0301526000610a2d015261150a6000f3fe608060405234801561001057600080fd5b506004361061014d5760003560e01c806370a08231116100c357806395d89b411161007c57806395d89b41146102b6578063a9059cbb146102be578063d24378eb146102d1578063d505accf146102da578063dd62ed3e146102ed578063f2fde38b1461032657600080fd5b806370a0823114610239578063715018a6146102625780637ecebe001461026a5780638456cb591461027d57806384b0196e146102855780638da5cb5b146102a057600080fd5b8063313ce56711610115578063313ce567146101e35780633604ef06146101f25780633644e51514610207578063392f37e91461020f5780633f4ba83a146102265780635c975abb1461022e57600080fd5b806306fdde0314610152578063095ea7b31461017057806318160ddd1461019357806323b872dd146101a55780633013ce29146101b8575b600080fd5b61015a610339565b60405161016791906111d9565b60405180910390f35b61018361017e36600461120f565b6103cb565b6040519015158152602001610167565b6002545b604051908152602001610167565b6101836101b3366004611239565b6103e5565b600a546101cb906001600160a01b031681565b6040516001600160a01b039091168152602001610167565b60405160128152602001610167565b610205610200366004611275565b610409565b005b610197610493565b6102176104a2565b604051610167939291906112b1565b6102056105c8565b60055460ff16610183565b6101976102473660046112e7565b6001600160a01b031660009081526020819052604090205490565b6102056105da565b6101976102783660046112e7565b6105ec565b61020561060a565b61028d61061a565b6040516101679796959493929190611302565b60055461010090046001600160a01b03166101cb565b61015a610660565b6101836102cc36600461120f565b61066f565b61019760095481565b6102056102e836600461139b565b61067d565b6101976102fb36600461140e565b6001600160a01b03918216600090815260016020908152604080832093909416825291909152205490565b6102056103343660046112e7565b6107b7565b60606003805461034890611441565b80601f016020809104026020016040519081016040528092919081815260200182805461037490611441565b80156103c15780601f10610396576101008083540402835291602001916103c1565b820191906000526020600020905b8154815290600101906020018083116103a457829003601f168201915b5050505050905090565b6000336103d98185856107f5565b60019150505b92915050565b6000336103f3858285610802565b6103fe858585610880565b506001949350505050565b6104116108df565b600e548261041e60025490565b610428919061147b565b111561047b5760405162461bcd60e51b815260206004820152601e60248201527f4672616374696f6e616c697a65723a20417373657420736f6c64206f7574000060448201526064015b60405180910390fd5b61048481610912565b61048e8383610996565b505050565b600061049d6109cc565b905090565b600b805481906104b190611441565b80601f01602080910402602001604051908101604052809291908181526020018280546104dd90611441565b801561052a5780601f106104ff5761010080835404028352916020019161052a565b820191906000526020600020905b81548152906001019060200180831161050d57829003601f168201915b50505050509080600101805461053f90611441565b80601f016020809104026020016040519081016040528092919081815260200182805461056b90611441565b80156105b85780601f1061058d576101008083540402835291602001916105b8565b820191906000526020600020905b81548152906001019060200180831161059b57829003601f168201915b5050505050908060020154905083565b6105d06108df565b6105d8610af7565b565b6105e26108df565b6105d86000610b49565b6001600160a01b0381166000908152600860205260408120546103df565b6106126108df565b6105d8610ba3565b60006060806000806000606061062e610be0565b610636610c0d565b60408051600080825260208201909252600f60f81b9b939a50919850469750309650945092509050565b60606004805461034890611441565b6000336103d9818585610880565b834211156106a15760405163313c898160e11b815260048101859052602401610472565b60007f6e71edae12b1b97f4d1f60370fef10105fa2faae0126114a169c64845d6126c98888886106ee8c6001600160a01b0316600090815260086020526040902080546001810190915590565b6040805160208101969096526001600160a01b0394851690860152929091166060840152608083015260a082015260c0810186905260e001604051602081830303815290604052805190602001209050600061074982610c3a565b9050600061075982878787610c67565b9050896001600160a01b0316816001600160a01b0316146107a0576040516325c0072360e11b81526001600160a01b0380831660048301528b166024820152604401610472565b6107ab8a8a8a6107f5565b50505050505050505050565b6107bf6108df565b6001600160a01b0381166107e957604051631e4fbdf760e01b815260006004820152602401610472565b6107f281610b49565b50565b61048e8383836001610c95565b6001600160a01b03838116600090815260016020908152604080832093861683529290522054600019811461087a578181101561086b57604051637dc7a0d960e11b81526001600160a01b03841660048201526024810182905260448101839052606401610472565b61087a84848484036000610c95565b50505050565b6001600160a01b0383166108aa57604051634b637e8f60e11b815260006004820152602401610472565b6001600160a01b0382166108d45760405163ec442f0560e01b815260006004820152602401610472565b61048e838383610d6a565b6005546001600160a01b036101009091041633146105d85760405163118cdaa760e01b8152336004820152602401610472565b600a546009546040516323b872dd60e01b81526001600160a01b03848116600483015230602483015260448201929092529116906323b872dd906064016020604051808303816000875af115801561096e573d6000803e3d6000fd5b505050506040513d601f19601f82011682018060405250810190610992919061149c565b5050565b6001600160a01b0382166109c05760405163ec442f0560e01b815260006004820152602401610472565b61099260008383610d6a565b6000306001600160a01b037f000000000000000000000000000000000000000000000000000000000000000016148015610a2557507f000000000000000000000000000000000000000000000000000000000000000046145b15610a4f57507f000000000000000000000000000000000000000000000000000000000000000090565b61049d604080517f8b73c3c69bb8fe3d512ecc4cf759cc79239f7b179b0ffacaa9a75d522b39400f60208201527f0000000000000000000000000000000000000000000000000000000000000000918101919091527f000000000000000000000000000000000000000000000000000000000000000060608201524660808201523060a082015260009060c00160405160208183030381529060405280519060200120905090565b610aff610d75565b6005805460ff191690557f5db9ee0a495bf2e6ff9c91a7834c1ba4fdd244a5e8aa4e537bd38aeae4b073aa335b6040516001600160a01b03909116815260200160405180910390a1565b600580546001600160a01b03838116610100818102610100600160a81b031985161790945560405193909204169182907f8be0079c531659141344cd1fd0a4f28419497f9722a3daafe3b4186f6b6457e090600090a35050565b610bab610d98565b6005805460ff191660011790557f62e78cea01bee320cd4e420270b5ea74000d11b0c9f74754ebdbfc544b05a258610b2c3390565b606061049d7f00000000000000000000000000000000000000000000000000000000000000006006610dbc565b606061049d7f00000000000000000000000000000000000000000000000000000000000000006007610dbc565b60006103df610c476109cc565b8360405161190160f01b8152600281019290925260228201526042902090565b600080600080610c7988888888610e67565b925092509250610c898282610f36565b50909695505050505050565b6001600160a01b038416610cbf5760405163e602df0560e01b815260006004820152602401610472565b6001600160a01b038316610ce957604051634a1406b160e11b815260006004820152602401610472565b6001600160a01b038085166000908152600160209081526040808320938716835292905220829055801561087a57826001600160a01b0316846001600160a01b03167f8c5be1e5ebec7d5bd14f71427d1e84f3dd0314c0f7b2291e5b200ac8c7c3b92584604051610d5c91815260200190565b60405180910390a350505050565b61048e838383610fef565b60055460ff166105d857604051638dfc202b60e01b815260040160405180910390fd5b60055460ff16156105d85760405163d93c066560e01b815260040160405180910390fd5b606060ff8314610dd657610dcf83611002565b90506103df565b818054610de290611441565b80601f0160208091040260200160405190810160405280929190818152602001828054610e0e90611441565b8015610e5b5780601f10610e3057610100808354040283529160200191610e5b565b820191906000526020600020905b815481529060010190602001808311610e3e57829003601f168201915b505050505090506103df565b600080807f7fffffffffffffffffffffffffffffff5d576e7357a4501ddfe92f46681b20a0841115610ea25750600091506003905082610f2c565b604080516000808252602082018084528a905260ff891692820192909252606081018790526080810186905260019060a0016020604051602081039080840390855afa158015610ef6573d6000803e3d6000fd5b5050604051601f1901519150506001600160a01b038116610f2257506000925060019150829050610f2c565b9250600091508190505b9450945094915050565b6000826003811115610f4a57610f4a6114be565b03610f53575050565b6001826003811115610f6757610f676114be565b03610f855760405163f645eedf60e01b815260040160405180910390fd5b6002826003811115610f9957610f996114be565b03610fba5760405163fce698f760e01b815260048101829052602401610472565b6003826003811115610fce57610fce6114be565b03610992576040516335e2f38360e21b815260048101829052602401610472565b610ff7610d98565b61048e838383611041565b6060600061100f8361116b565b604080516020808252818301909252919250600091906020820181803683375050509182525060208101929092525090565b6001600160a01b03831661106c578060026000828254611061919061147b565b909155506110de9050565b6001600160a01b038316600090815260208190526040902054818110156110bf5760405163391434e360e21b81526001600160a01b03851660048201526024810182905260448101839052606401610472565b6001600160a01b03841660009081526020819052604090209082900390555b6001600160a01b0382166110fa57600280548290039055611119565b6001600160a01b03821660009081526020819052604090208054820190555b816001600160a01b0316836001600160a01b03167fddf252ad1be2c89b69c2b068fc378daa952ba7f163c4a11628f55a4df523b3ef8360405161115e91815260200190565b60405180910390a3505050565b600060ff8216601f8111156103df57604051632cd44ac360e21b815260040160405180910390fd5b6000815180845260005b818110156111b95760208185018101518683018201520161119d565b506000602082860101526020601f19601f83011685010191505092915050565b6020815260006111ec6020830184611193565b9392505050565b80356001600160a01b038116811461120a57600080fd5b919050565b6000806040838503121561122257600080fd5b61122b836111f3565b946020939093013593505050565b60008060006060848603121561124e57600080fd5b611257846111f3565b9250611265602085016111f3565b9150604084013590509250925092565b60008060006060848603121561128a57600080fd5b611293846111f3565b9250602084013591506112a8604085016111f3565b90509250925092565b6060815260006112c46060830186611193565b82810360208401526112d68186611193565b915050826040830152949350505050565b6000602082840312156112f957600080fd5b6111ec826111f3565b60ff60f81b881681526000602060e0602084015261132360e084018a611193565b8381036040850152611335818a611193565b606085018990526001600160a01b038816608086015260a0850187905284810360c08601528551808252602080880193509091019060005b818110156113895783518352928401929184019160010161136d565b50909c9b505050505050505050505050565b600080600080600080600060e0888a0312156113b657600080fd5b6113bf886111f3565b96506113cd602089016111f3565b95506040880135945060608801359350608088013560ff811681146113f157600080fd5b9699959850939692959460a0840135945060c09093013592915050565b6000806040838503121561142157600080fd5b61142a836111f3565b9150611438602084016111f3565b90509250929050565b600181811c9082168061145557607f821691505b60208210810361147557634e487b7160e01b600052602260045260246000fd5b50919050565b808201808211156103df57634e487b7160e01b600052601160045260246000fd5b6000602082840312156114ae57600080fd5b815180151581146111ec57600080fd5b634e487b7160e01b600052602160045260246000fdfea2646970667358221220ad0aac2e49ca9fb929966a2b9f3de0893152a24693fa484eab711cde9fc3a97864736f6c63430008170033a26469706673582212204b07d3250ef88751b6e8bb517cda1f7e3a401d191d21e13238290102320d64ff64736f6c63430008170033","linkReferences":{}},"methodIdentifiers":{"cofo()":"e0ac02e4","fractionalize(uint256,address,string,string,uint256,address,string,string)":"b3bdc5c7","fractionalizerChekcer(uint256)":"ef53cd67","fractionalizers(uint256)":"67deef24"},"id":47}