{"abi":[{"type":"constructor","inputs":[{"name":"manager","type":"address","internalType":"address"}],"stateMutability":"nonpayable"},{"type":"function","name":"approve","inputs":[{"name":"to","type":"address","internalType":"address"},{"name":"tokenId","type":"uint256","internalType":"uint256"}],"outputs":[],"stateMutability":"nonpayable"},{"type":"function","name":"balanceOf","inputs":[{"name":"owner","type":"address","internalType":"address"}],"outputs":[{"name":"","type":"uint256","internalType":"uint256"}],"stateMutability":"view"},{"type":"function","name":"burn","inputs":[{"name":"tokenId","type":"uint256","internalType":"uint256"}],"outputs":[],"stateMutability":"nonpayable"},{"type":"function","name":"getApproved","inputs":[{"name":"tokenId","type":"uint256","internalType":"uint256"}],"outputs":[{"name":"","type":"address","internalType":"address"}],"stateMutability":"view"},{"type":"function","name":"isApprovedForAll","inputs":[{"name":"owner","type":"address","internalType":"address"},{"name":"operator","type":"address","internalType":"address"}],"outputs":[{"name":"","type":"bool","internalType":"bool"}],"stateMutability":"view"},{"type":"function","name":"issueCertificate","inputs":[{"name":"to","type":"address","internalType":"address"},{"name":"tokenId","type":"uint256","internalType":"uint256"},{"name":"meta","type":"tuple","internalType":"struct COFO.MetaData","components":[{"name":"metadataHash","type":"bytes32","internalType":"bytes32"},{"name":"name","type":"string","internalType":"string"},{"name":"symbol","type":"string","internalType":"string"},{"name":"description","type":"string","internalType":"string"},{"name":"uri","type":"string","internalType":"string"}]}],"outputs":[],"stateMutability":"nonpayable"},{"type":"function","name":"metadata","inputs":[{"name":"","type":"uint256","internalType":"uint256"}],"outputs":[{"name":"metadataHash","type":"bytes32","internalType":"bytes32"},{"name":"name","type":"string","internalType":"string"},{"name":"symbol","type":"string","internalType":"string"},{"name":"description","type":"string","internalType":"string"},{"name":"uri","type":"string","internalType":"string"}],"stateMutability":"view"},{"type":"function","name":"name","inputs":[],"outputs":[{"name":"","type":"string","internalType":"string"}],"stateMutability":"view"},{"type":"function","name":"owner","inputs":[],"outputs":[{"name":"","type":"address","internalType":"address"}],"stateMutability":"view"},{"type":"function","name":"ownerOf","inputs":[{"name":"tokenId","type":"uint256","internalType":"uint256"}],"outputs":[{"name":"","type":"address","internalType":"address"}],"stateMutability":"view"},{"type":"function","name":"pause","inputs":[],"outputs":[],"stateMutability":"nonpayable"},{"type":"function","name":"paused","inputs":[],"outputs":[{"name":"","type":"bool","internalType":"bool"}],"stateMutability":"view"},{"type":"function","name":"renounceOwnership","inputs":[],"outputs":[],"stateMutability":"nonpayable"},{"type":"function","name":"safeTransferFrom","inputs":[{"name":"from","type":"address","internalType":"address"},{"name":"to","type":"address","internalType":"address"},{"name":"tokenId","type":"uint256","internalType":"uint256"}],"outputs":[],"stateMutability":"nonpayable"},{"type":"function","name":"safeTransferFrom","inputs":[{"name":"from","type":"address","internalType":"address"},{"name":"to","type":"address","internalType":"address"},{"name":"tokenId","type":"uint256","internalType":"uint256"},{"name":"data","type":"bytes","internalType":"bytes"}],"outputs":[],"stateMutability":"nonpayable"},{"type":"function","name":"setApprovalForAll","inputs":[{"name":"operator","type":"address","internalType":"address"},{"name":"approved","type":"bool","internalType":"bool"}],"outputs":[],"stateMutability":"nonpayable"},{"type":"function","name":"supportsInterface","inputs":[{"name":"interfaceId","type":"bytes4","internalType":"bytes4"}],"outputs":[{"name":"","type":"bool","internalType":"bool"}],"stateMutability":"view"},{"type":"function","name":"symbol","inputs":[],"outputs":[{"name":"","type":"string","internalType":"string"}],"stateMutability":"view"},{"type":"function","name":"tokenURI","inputs":[{"name":"tokenId","type":"uint256","internalType":"uint256"}],"outputs":[{"name":"","type":"string","internalType":"string"}],"stateMutability":"view"},{"type":"function","name":"transferFrom","inputs":[{"name":"from","type":"address","internalType":"address"},{"name":"to","type":"address","internalType":"address"},{"name":"tokenId","type":"uint256","internalType":"uint256"}],"outputs":[],"stateMutability":"nonpayable"},{"type":"function","name":"transferOwnership","inputs":[{"name":"newOwner","type":"address","internalType":"address"}],"outputs":[],"stateMutability":"nonpayable"},{"type":"function","name":"unpause","inputs":[],"outputs":[],"stateMutability":"nonpayable"},{"type":"event","name":"Approval","inputs":[{"name":"owner","type":"address","indexed":true,"internalType":"address"},{"name":"approved","type":"address","indexed":true,"internalType":"address"},{"name":"tokenId","type":"uint256","indexed":true,"internalType":"uint256"}],"anonymous":false},{"type":"event","name":"ApprovalForAll","inputs":[{"name":"owner","type":"address","indexed":true,"internalType":"address"},{"name":"operator","type":"address","indexed":true,"internalType":"address"},{"name":"approved","type":"bool","indexed":false,"internalType":"bool"}],"anonymous":false},{"type":"event","name":"BatchMetadataUpdate","inputs":[{"name":"_fromTokenId","type":"uint256","indexed":false,"internalType":"uint256"},{"name":"_toTokenId","type":"uint256","indexed":false,"internalType":"uint256"}],"anonymous":false},{"type":"event","name":"MetadataUpdate","inputs":[{"name":"_tokenId","type":"uint256","indexed":false,"internalType":"uint256"}],"anonymous":false},{"type":"event","name":"OwnershipTransferred","inputs":[{"name":"previousOwner","type":"address","indexed":true,"internalType":"address"},{"name":"newOwner","type":"address","indexed":true,"internalType":"address"}],"anonymous":false},{"type":"event","name":"Paused","inputs":[{"name":"account","type":"address","indexed":false,"internalType":"address"}],"anonymous":false},{"type":"event","name":"Transfer","inputs":[{"name":"from","type":"address","indexed":true,"internalType":"address"},{"name":"to","type":"address","indexed":true,"internalType":"address"},{"name":"tokenId","type":"uint256","indexed":true,"internalType":"uint256"}],"anonymous":false},{"type":"event","name":"Unpaused","inputs":[{"name":"account","type":"address","indexed":false,"internalType":"address"}],"anonymous":false},{"type":"error","name":"ERC721IncorrectOwner","inputs":[{"name":"sender","type":"address","internalType":"address"},{"name":"tokenId","type":"uint256","internalType":"uint256"},{"name":"owner","type":"address","internalType":"address"}]},{"type":"error","name":"ERC721InsufficientApproval","inputs":[{"name":"operator","type":"address","internalType":"address"},{"name":"tokenId","type":"uint256","internalType":"uint256"}]},{"type":"error","name":"ERC721InvalidApprover","inputs":[{"name":"approver","type":"address","internalType":"address"}]},{"type":"error","name":"ERC721InvalidOperator","inputs":[{"name":"operator","type":"address","internalType":"address"}]},{"type":"error","name":"ERC721InvalidOwner","inputs":[{"name":"owner","type":"address","internalType":"address"}]},{"type":"error","name":"ERC721InvalidReceiver","inputs":[{"name":"receiver","type":"address","internalType":"address"}]},{"type":"error","name":"ERC721InvalidSender","inputs":[{"name":"sender","type":"address","internalType":"address"}]},{"type":"error","name":"ERC721NonexistentToken","inputs":[{"name":"tokenId","type":"uint256","internalType":"uint256"}]},{"type":"error","name":"EnforcedPause","inputs":[]},{"type":"error","name":"ExpectedPause","inputs":[]},{"type":"error","name":"OwnableInvalidOwner","inputs":[{"name":"owner","type":"address","internalType":"address"}]},{"type":"error","name":"OwnableUnauthorizedAccount","inputs":[{"name":"account","type":"address","internalType":"address"}]}],"bytecode":{"object":"0x608060405234801561001057600080fd5b50604051611cff380380611cff83398101604081905261002f91610144565b806040518060400160405280601781526020017f43657269666963617465204f66204f776e65727368697000000000000000000081525060405180604001604052806004815260200163434f464f60e01b81525081600090816100929190610215565b50600161009f8282610215565b50506007805460ff19169055506001600160a01b0381166100da57604051631e4fbdf760e01b81526000600482015260240160405180910390fd5b6100e3816100ea565b50506102d4565b600780546001600160a01b03838116610100818102610100600160a81b031985161790945560405193909204169182907f8be0079c531659141344cd1fd0a4f28419497f9722a3daafe3b4186f6b6457e090600090a35050565b60006020828403121561015657600080fd5b81516001600160a01b038116811461016d57600080fd5b9392505050565b634e487b7160e01b600052604160045260246000fd5b600181811c9082168061019e57607f821691505b6020821081036101be57634e487b7160e01b600052602260045260246000fd5b50919050565b601f821115610210576000816000526020600020601f850160051c810160208610156101ed5750805b601f850160051c820191505b8181101561020c578281556001016101f9565b5050505b505050565b81516001600160401b0381111561022e5761022e610174565b6102428161023c845461018a565b846101c4565b602080601f831160018114610277576000841561025f5750858301515b600019600386901b1c1916600185901b17855561020c565b600085815260208120601f198616915b828110156102a657888601518255948401946001909101908401610287565b50858210156102c45787850151600019600388901b60f8161c191681555b5050505050600190811b01905550565b611a1c806102e36000396000f3fe608060405234801561001057600080fd5b50600436106101425760003560e01c8063715018a6116100b8578063a54b5dcb1161007c578063a54b5dcb14610285578063b88d4fde14610298578063c87b56dd146102ab578063e3684e39146102be578063e985e9c5146102e2578063f2fde38b146102f557600080fd5b8063715018a6146102445780638456cb591461024c5780638da5cb5b1461025457806395d89b411461026a578063a22cb4651461027257600080fd5b80633f4ba83a1161010a5780633f4ba83a146101d757806342842e0e146101df57806342966c68146101f25780635c975abb146102055780636352211e1461021057806370a082311461022357600080fd5b806301ffc9a71461014757806306fdde031461016f578063081812fc14610184578063095ea7b3146101af57806323b872dd146101c4575b600080fd5b61015a6101553660046113bf565b610308565b60405190151581526020015b60405180910390f35b610177610319565b604051610166919061142c565b61019761019236600461143f565b6103ab565b6040516001600160a01b039091168152602001610166565b6101c26101bd366004611474565b6103d4565b005b6101c26101d236600461149e565b6103e3565b6101c2610473565b6101c26101ed36600461149e565b610485565b6101c261020036600461143f565b6104a5565b60075460ff1661015a565b61019761021e36600461143f565b6104b1565b6102366102313660046114da565b6104bc565b604051908152602001610166565b6101c2610504565b6101c2610516565b60075461010090046001600160a01b0316610197565b610177610526565b6101c26102803660046114f5565b610535565b6101c2610293366004611606565b610540565b6101c26102a6366004611705565b61056a565b6101776102b936600461143f565b610581565b6102d16102cc36600461143f565b61058c565b604051610166959493929190611781565b61015a6102f03660046117e0565b6107db565b6101c26103033660046114da565b610809565b600061031382610847565b92915050565b60606000805461032890611813565b80601f016020809104026020016040519081016040528092919081815260200182805461035490611813565b80156103a15780601f10610376576101008083540402835291602001916103a1565b820191906000526020600020905b81548152906001019060200180831161038457829003601f168201915b5050505050905090565b60006103b68261086c565b506000828152600460205260409020546001600160a01b0316610313565b6103df8282336108a5565b5050565b6001600160a01b03821661041257604051633250574960e11b8152600060048201526024015b60405180910390fd5b600061041f8383336108b2565b9050836001600160a01b0316816001600160a01b03161461046d576040516364283d7b60e01b81526001600160a01b0380861660048301526024820184905282166044820152606401610409565b50505050565b61047b6108c7565b6104836108fa565b565b6104a08383836040518060200160405280600081525061056a565b505050565b6103df600082336108b2565b60006103138261086c565b60006001600160a01b0382166104e8576040516322718ad960e21b815260006004820152602401610409565b506001600160a01b031660009081526003602052604090205490565b61050c6108c7565b610483600061094c565b61051e6108c7565b6104836109a6565b60606001805461032890611813565b6103df3383836109e3565b6105486108c7565b6105528383610a82565b610560828260800151610a9c565b6104a08282610aec565b6105758484846103e3565b61046d84848484610bb0565b606061031382610cd2565b600860205260009081526040902080546001820180549192916105ae90611813565b80601f01602080910402602001604051908101604052809291908181526020018280546105da90611813565b80156106275780601f106105fc57610100808354040283529160200191610627565b820191906000526020600020905b81548152906001019060200180831161060a57829003601f168201915b50505050509080600201805461063c90611813565b80601f016020809104026020016040519081016040528092919081815260200182805461066890611813565b80156106b55780601f1061068a576101008083540402835291602001916106b5565b820191906000526020600020905b81548152906001019060200180831161069857829003601f168201915b5050505050908060030180546106ca90611813565b80601f01602080910402602001604051908101604052809291908181526020018280546106f690611813565b80156107435780601f1061071857610100808354040283529160200191610743565b820191906000526020600020905b81548152906001019060200180831161072657829003601f168201915b50505050509080600401805461075890611813565b80601f016020809104026020016040519081016040528092919081815260200182805461078490611813565b80156107d15780601f106107a6576101008083540402835291602001916107d1565b820191906000526020600020905b8154815290600101906020018083116107b457829003601f168201915b5050505050905085565b6001600160a01b03918216600090815260056020908152604080832093909416825291909152205460ff1690565b6108116108c7565b6001600160a01b03811661083b57604051631e4fbdf760e01b815260006004820152602401610409565b6108448161094c565b50565b60006001600160e01b03198216632483248360e11b1480610313575061031382610ddb565b6000818152600260205260408120546001600160a01b03168061031357604051637e27328960e01b815260048101849052602401610409565b6104a08383836001610e2b565b60006108bf848484610f31565b949350505050565b6007546001600160a01b036101009091041633146104835760405163118cdaa760e01b8152336004820152602401610409565b610902610f46565b6007805460ff191690557f5db9ee0a495bf2e6ff9c91a7834c1ba4fdd244a5e8aa4e537bd38aeae4b073aa335b6040516001600160a01b03909116815260200160405180910390a1565b600780546001600160a01b03838116610100818102610100600160a81b031985161790945560405193909204169182907f8be0079c531659141344cd1fd0a4f28419497f9722a3daafe3b4186f6b6457e090600090a35050565b6109ae610f69565b6007805460ff191660011790557f62e78cea01bee320cd4e420270b5ea74000d11b0c9f74754ebdbfc544b05a25861092f3390565b6001600160a01b038216610a1557604051630b61174360e31b81526001600160a01b0383166004820152602401610409565b6001600160a01b03838116600081815260056020908152604080832094871680845294825291829020805460ff191686151590811790915591519182527f17307eab39ab6107e8899845ad3d59bd9653f200f220920489ca2b5937696c31910160405180910390a3505050565b6103df828260405180602001604052806000815250610f8d565b6000828152600660205260409020610ab4828261189d565b506040518281527ff8e1a15aba9398e019f0b49df1a4fde98ee17ae345cb5f6b5e2c27f5033e8ce79060200160405180910390a15050565b60008281526008602052604090205415610b3f5760405162461bcd60e51b815260206004820152601460248201527313595d1859185d1848185b1c9958591d081cd95d60621b6044820152606401610409565b600082815260086020908152604090912082518155908201518291906001820190610b6a908261189d565b5060408201516002820190610b7f908261189d565b5060608201516003820190610b94908261189d565b5060808201516004820190610ba9908261189d565b5050505050565b6001600160a01b0383163b1561046d57604051630a85bd0160e11b81526001600160a01b0384169063150b7a0290610bf290339088908790879060040161195d565b6020604051808303816000875af1925050508015610c2d575060408051601f3d908101601f19168201909252610c2a9181019061199a565b60015b610c96573d808015610c5b576040519150601f19603f3d011682016040523d82523d6000602084013e610c60565b606091505b508051600003610c8e57604051633250574960e11b81526001600160a01b0385166004820152602401610409565b805181602001fd5b6001600160e01b03198116630a85bd0160e11b14610ba957604051633250574960e11b81526001600160a01b0385166004820152602401610409565b6060610cdd8261086c565b5060008281526006602052604081208054610cf790611813565b80601f0160208091040260200160405190810160405280929190818152602001828054610d2390611813565b8015610d705780601f10610d4557610100808354040283529160200191610d70565b820191906000526020600020905b815481529060010190602001808311610d5357829003601f168201915b505050505090506000610d8e60408051602081019091526000815290565b90508051600003610da0575092915050565b815115610dd2578082604051602001610dba9291906119b7565b60405160208183030381529060405292505050919050565b6108bf84610fa4565b60006001600160e01b031982166380ac58cd60e01b1480610e0c57506001600160e01b03198216635b5e139f60e01b145b8061031357506301ffc9a760e01b6001600160e01b0319831614610313565b8080610e3f57506001600160a01b03821615155b15610f01576000610e4f8461086c565b90506001600160a01b03831615801590610e7b5750826001600160a01b0316816001600160a01b031614155b8015610e8e5750610e8c81846107db565b155b15610eb75760405163a9fbf51f60e01b81526001600160a01b0384166004820152602401610409565b8115610eff5783856001600160a01b0316826001600160a01b03167f8c5be1e5ebec7d5bd14f71427d1e84f3dd0314c0f7b2291e5b200ac8c7c3b92560405160405180910390a45b505b5050600090815260046020526040902080546001600160a01b0319166001600160a01b0392909216919091179055565b6000610f3b610f69565b6108bf848484611019565b60075460ff1661048357604051638dfc202b60e01b815260040160405180910390fd5b60075460ff16156104835760405163d93c066560e01b815260040160405180910390fd5b610f978383611112565b6104a06000848484610bb0565b6060610faf8261086c565b506000610fc760408051602081019091526000815290565b90506000815111610fe75760405180602001604052806000815250611012565b80610ff184611177565b6040516020016110029291906119b7565b6040516020818303038152906040525b9392505050565b6000828152600260205260408120546001600160a01b03908116908316156110465761104681848661120a565b6001600160a01b0381161561108457611063600085600080610e2b565b6001600160a01b038116600090815260036020526040902080546000190190555b6001600160a01b038516156110b3576001600160a01b0385166000908152600360205260409020805460010190555b60008481526002602052604080822080546001600160a01b0319166001600160a01b0389811691821790925591518793918516917fddf252ad1be2c89b69c2b068fc378daa952ba7f163c4a11628f55a4df523b3ef91a4949350505050565b6001600160a01b03821661113c57604051633250574960e11b815260006004820152602401610409565b600061114a838360006108b2565b90506001600160a01b038116156104a0576040516339e3563760e11b815260006004820152602401610409565b606060006111848361126e565b600101905060008167ffffffffffffffff8111156111a4576111a4611531565b6040519080825280601f01601f1916602001820160405280156111ce576020820181803683370190505b5090508181016020015b600019016f181899199a1a9b1b9c1cb0b131b232b360811b600a86061a8153600a85049450846111d857509392505050565b611215838383611346565b6104a0576001600160a01b03831661124357604051637e27328960e01b815260048101829052602401610409565b60405163177e802f60e01b81526001600160a01b038316600482015260248101829052604401610409565b60008072184f03e93ff9f4daa797ed6e38ed64bf6a1f0160401b83106112ad5772184f03e93ff9f4daa797ed6e38ed64bf6a1f0160401b830492506040015b6d04ee2d6d415b85acef810000000083106112d9576d04ee2d6d415b85acef8100000000830492506020015b662386f26fc1000083106112f757662386f26fc10000830492506010015b6305f5e100831061130f576305f5e100830492506008015b612710831061132357612710830492506004015b60648310611335576064830492506002015b600a83106103135760010192915050565b60006001600160a01b038316158015906108bf5750826001600160a01b0316846001600160a01b03161480611380575061138084846107db565b806108bf5750506000908152600460205260409020546001600160a01b03908116911614919050565b6001600160e01b03198116811461084457600080fd5b6000602082840312156113d157600080fd5b8135611012816113a9565b60005b838110156113f75781810151838201526020016113df565b50506000910152565b600081518084526114188160208601602086016113dc565b601f01601f19169290920160200192915050565b6020815260006110126020830184611400565b60006020828403121561145157600080fd5b5035919050565b80356001600160a01b038116811461146f57600080fd5b919050565b6000806040838503121561148757600080fd5b61149083611458565b946020939093013593505050565b6000806000606084860312156114b357600080fd5b6114bc84611458565b92506114ca60208501611458565b9150604084013590509250925092565b6000602082840312156114ec57600080fd5b61101282611458565b6000806040838503121561150857600080fd5b61151183611458565b91506020830135801515811461152657600080fd5b809150509250929050565b634e487b7160e01b600052604160045260246000fd5b60405160a0810167ffffffffffffffff8111828210171561156a5761156a611531565b60405290565b600067ffffffffffffffff8084111561158b5761158b611531565b604051601f8501601f19908116603f011681019082821181831017156115b3576115b3611531565b816040528093508581528686860111156115cc57600080fd5b858560208301376000602087830101525050509392505050565b600082601f8301126115f757600080fd5b61101283833560208501611570565b60008060006060848603121561161b57600080fd5b61162484611458565b925060208401359150604084013567ffffffffffffffff8082111561164857600080fd5b9085019060a0828803121561165c57600080fd5b611664611547565b8235815260208301358281111561167a57600080fd5b611686898286016115e6565b60208301525060408301358281111561169e57600080fd5b6116aa898286016115e6565b6040830152506060830135828111156116c257600080fd5b6116ce898286016115e6565b6060830152506080830135828111156116e657600080fd5b6116f2898286016115e6565b6080830152508093505050509250925092565b6000806000806080858703121561171b57600080fd5b61172485611458565b935061173260208601611458565b925060408501359150606085013567ffffffffffffffff81111561175557600080fd5b8501601f8101871361176657600080fd5b61177587823560208401611570565b91505092959194509250565b85815260a06020820152600061179a60a0830187611400565b82810360408401526117ac8187611400565b905082810360608401526117c08186611400565b905082810360808401526117d48185611400565b98975050505050505050565b600080604083850312156117f357600080fd5b6117fc83611458565b915061180a60208401611458565b90509250929050565b600181811c9082168061182757607f821691505b60208210810361184757634e487b7160e01b600052602260045260246000fd5b50919050565b601f8211156104a0576000816000526020600020601f850160051c810160208610156118765750805b601f850160051c820191505b8181101561189557828155600101611882565b505050505050565b815167ffffffffffffffff8111156118b7576118b7611531565b6118cb816118c58454611813565b8461184d565b602080601f83116001811461190057600084156118e85750858301515b600019600386901b1c1916600185901b178555611895565b600085815260208120601f198616915b8281101561192f57888601518255948401946001909101908401611910565b508582101561194d5787850151600019600388901b60f8161c191681555b5050505050600190811b01905550565b6001600160a01b038581168252841660208201526040810183905260806060820181905260009061199090830184611400565b9695505050505050565b6000602082840312156119ac57600080fd5b8151611012816113a9565b600083516119c98184602088016113dc565b8351908301906119dd8183602088016113dc565b0194935050505056fea26469706673582212208d48da386ea28eee0a476b8c55e866db7dd39fc22422908651f505ece0a94d7a64736f6c63430008190033","linkReferences":{}},"methodIdentifiers":{"approve(address,uint256)":"095ea7b3","balanceOf(address)":"70a08231","burn(uint256)":"42966c68","getApproved(uint256)":"081812fc","isApprovedForAll(address,address)":"e985e9c5","issueCertificate(address,uint256,(bytes32,string,string,string,string))":"a54b5dcb","metadata(uint256)":"e3684e39","name()":"06fdde03","owner()":"8da5cb5b","ownerOf(uint256)":"6352211e","pause()":"8456cb59","paused()":"5c975abb","renounceOwnership()":"715018a6","safeTransferFrom(address,address,uint256)":"42842e0e","safeTransferFrom(address,address,uint256,bytes)":"b88d4fde","setApprovalForAll(address,bool)":"a22cb465","supportsInterface(bytes4)":"01ffc9a7","symbol()":"95d89b41","tokenURI(uint256)":"c87b56dd","transferFrom(address,address,uint256)":"23b872dd","transferOwnership(address)":"f2fde38b","unpause()":"3f4ba83a"},"id":44}