{"abi":[{"type":"constructor","inputs":[{"name":"assetName","type":"string","internalType":"string"},{"name":"assetSymbol","type":"string","internalType":"string"},{"name":"_assetPrice","type":"uint256","internalType":"uint256"},{"name":"_paymentToken","type":"address","internalType":"address"},{"name":"_description","type":"string","internalType":"string"},{"name":"_uri","type":"string","internalType":"string"},{"name":"_totalSupply","type":"uint256","internalType":"uint256"}],"stateMutability":"nonpayable"},{"type":"function","name":"DOMAIN_SEPARATOR","inputs":[],"outputs":[{"name":"","type":"bytes32","internalType":"bytes32"}],"stateMutability":"view"},{"type":"function","name":"allowance","inputs":[{"name":"owner","type":"address","internalType":"address"},{"name":"spender","type":"address","internalType":"address"}],"outputs":[{"name":"","type":"uint256","internalType":"uint256"}],"stateMutability":"view"},{"type":"function","name":"approve","inputs":[{"name":"spender","type":"address","internalType":"address"},{"name":"value","type":"uint256","internalType":"uint256"}],"outputs":[{"name":"","type":"bool","internalType":"bool"}],"stateMutability":"nonpayable"},{"type":"function","name":"assetPrice","inputs":[],"outputs":[{"name":"","type":"uint256","internalType":"uint256"}],"stateMutability":"view"},{"type":"function","name":"balanceOf","inputs":[{"name":"account","type":"address","internalType":"address"}],"outputs":[{"name":"","type":"uint256","internalType":"uint256"}],"stateMutability":"view"},{"type":"function","name":"buyFraction","inputs":[{"name":"to","type":"address","internalType":"address"},{"name":"amount","type":"uint256","internalType":"uint256"}],"outputs":[],"stateMutability":"nonpayable"},{"type":"function","name":"decimals","inputs":[],"outputs":[{"name":"","type":"uint8","internalType":"uint8"}],"stateMutability":"view"},{"type":"function","name":"eip712Domain","inputs":[],"outputs":[{"name":"fields","type":"bytes1","internalType":"bytes1"},{"name":"name","type":"string","internalType":"string"},{"name":"version","type":"string","internalType":"string"},{"name":"chainId","type":"uint256","internalType":"uint256"},{"name":"verifyingContract","type":"address","internalType":"address"},{"name":"salt","type":"bytes32","internalType":"bytes32"},{"name":"extensions","type":"uint256[]","internalType":"uint256[]"}],"stateMutability":"view"},{"type":"function","name":"getBasePrice","inputs":[],"outputs":[{"name":"","type":"uint256","internalType":"uint256"}],"stateMutability":"view"},{"type":"function","name":"metadata","inputs":[],"outputs":[{"name":"description","type":"string","internalType":"string"},{"name":"uri","type":"string","internalType":"string"},{"name":"metadataHash","type":"bytes32","internalType":"bytes32"}],"stateMutability":"view"},{"type":"function","name":"name","inputs":[],"outputs":[{"name":"","type":"string","internalType":"string"}],"stateMutability":"view"},{"type":"function","name":"nonces","inputs":[{"name":"owner","type":"address","internalType":"address"}],"outputs":[{"name":"","type":"uint256","internalType":"uint256"}],"stateMutability":"view"},{"type":"function","name":"pause","inputs":[],"outputs":[],"stateMutability":"nonpayable"},{"type":"function","name":"paused","inputs":[],"outputs":[{"name":"","type":"bool","internalType":"bool"}],"stateMutability":"view"},{"type":"function","name":"paymentToken","inputs":[],"outputs":[{"name":"","type":"address","internalType":"address"}],"stateMutability":"view"},{"type":"function","name":"permit","inputs":[{"name":"owner","type":"address","internalType":"address"},{"name":"spender","type":"address","internalType":"address"},{"name":"value","type":"uint256","internalType":"uint256"},{"name":"deadline","type":"uint256","internalType":"uint256"},{"name":"v","type":"uint8","internalType":"uint8"},{"name":"r","type":"bytes32","internalType":"bytes32"},{"name":"s","type":"bytes32","internalType":"bytes32"}],"outputs":[],"stateMutability":"nonpayable"},{"type":"function","name":"setPoolAddress","inputs":[{"name":"_poolAddress","type":"address","internalType":"address"}],"outputs":[],"stateMutability":"nonpayable"},{"type":"function","name":"symbol","inputs":[],"outputs":[{"name":"","type":"string","internalType":"string"}],"stateMutability":"view"},{"type":"function","name":"totalSupply","inputs":[],"outputs":[{"name":"","type":"uint256","internalType":"uint256"}],"stateMutability":"view"},{"type":"function","name":"transfer","inputs":[{"name":"to","type":"address","internalType":"address"},{"name":"value","type":"uint256","internalType":"uint256"}],"outputs":[{"name":"","type":"bool","internalType":"bool"}],"stateMutability":"nonpayable"},{"type":"function","name":"transferFrom","inputs":[{"name":"from","type":"address","internalType":"address"},{"name":"to","type":"address","internalType":"address"},{"name":"value","type":"uint256","internalType":"uint256"}],"outputs":[{"name":"","type":"bool","internalType":"bool"}],"stateMutability":"nonpayable"},{"type":"function","name":"unpause","inputs":[],"outputs":[],"stateMutability":"nonpayable"},{"type":"event","name":"Approval","inputs":[{"name":"owner","type":"address","indexed":true,"internalType":"address"},{"name":"spender","type":"address","indexed":true,"internalType":"address"},{"name":"value","type":"uint256","indexed":false,"internalType":"uint256"}],"anonymous":false},{"type":"event","name":"EIP712DomainChanged","inputs":[],"anonymous":false},{"type":"event","name":"Paused","inputs":[{"name":"account","type":"address","indexed":false,"internalType":"address"}],"anonymous":false},{"type":"event","name":"Transfer","inputs":[{"name":"from","type":"address","indexed":true,"internalType":"address"},{"name":"to","type":"address","indexed":true,"internalType":"address"},{"name":"value","type":"uint256","indexed":false,"internalType":"uint256"}],"anonymous":false},{"type":"event","name":"Unpaused","inputs":[{"name":"account","type":"address","indexed":false,"internalType":"address"}],"anonymous":false},{"type":"error","name":"AddressEmptyCode","inputs":[{"name":"target","type":"address","internalType":"address"}]},{"type":"error","name":"AddressInsufficientBalance","inputs":[{"name":"account","type":"address","internalType":"address"}]},{"type":"error","name":"ECDSAInvalidSignature","inputs":[]},{"type":"error","name":"ECDSAInvalidSignatureLength","inputs":[{"name":"length","type":"uint256","internalType":"uint256"}]},{"type":"error","name":"ECDSAInvalidSignatureS","inputs":[{"name":"s","type":"bytes32","internalType":"bytes32"}]},{"type":"error","name":"ERC20InsufficientAllowance","inputs":[{"name":"spender","type":"address","internalType":"address"},{"name":"allowance","type":"uint256","internalType":"uint256"},{"name":"needed","type":"uint256","internalType":"uint256"}]},{"type":"error","name":"ERC20InsufficientBalance","inputs":[{"name":"sender","type":"address","internalType":"address"},{"name":"balance","type":"uint256","internalType":"uint256"},{"name":"needed","type":"uint256","internalType":"uint256"}]},{"type":"error","name":"ERC20InvalidApprover","inputs":[{"name":"approver","type":"address","internalType":"address"}]},{"type":"error","name":"ERC20InvalidReceiver","inputs":[{"name":"receiver","type":"address","internalType":"address"}]},{"type":"error","name":"ERC20InvalidSender","inputs":[{"name":"sender","type":"address","internalType":"address"}]},{"type":"error","name":"ERC20InvalidSpender","inputs":[{"name":"spender","type":"address","internalType":"address"}]},{"type":"error","name":"ERC2612ExpiredSignature","inputs":[{"name":"deadline","type":"uint256","internalType":"uint256"}]},{"type":"error","name":"ERC2612InvalidSigner","inputs":[{"name":"signer","type":"address","internalType":"address"},{"name":"owner","type":"address","internalType":"address"}]},{"type":"error","name":"EnforcedPause","inputs":[]},{"type":"error","name":"ExpectedPause","inputs":[]},{"type":"error","name":"FailedInnerCall","inputs":[]},{"type":"error","name":"InvalidAccountNonce","inputs":[{"name":"account","type":"address","internalType":"address"},{"name":"currentNonce","type":"uint256","internalType":"uint256"}]},{"type":"error","name":"InvalidShortString","inputs":[]},{"type":"error","name":"SafeERC20FailedOperation","inputs":[{"name":"token","type":"address","internalType":"address"}]},{"type":"error","name":"StringTooLong","inputs":[{"name":"str","type":"string","internalType":"string"}]}],"bytecode":{"object":"0x6101606040523480156200001257600080fd5b5060405162001b7538038062001b75833981016040819052620000359162000323565b6040805180820190915260018152603160f81b6020820152879081908189600362000061838262000493565b50600462000070828262000493565b50506005805460ff19169055506200008a826006620001b4565b610120526200009b816007620001b4565b61014052815160208084019190912060e052815190820120610100524660a0526200012960e05161010051604080517f8b73c3c69bb8fe3d512ecc4cf759cc79239f7b179b0ffacaa9a75d522b39400f60208201529081019290925260608201524660808201523060a082015260009060c00160405160208183030381529060405280519060200120905090565b60805250503060c052506009859055600a80546001600160a01b0319166001600160a01b0386161790556040805160608101825284815260208101849052600091810191909152600b806200017f868262000493565b506020820151600182019062000196908262000493565b5060409190910151600290910155600e5550620005b9945050505050565b6000602083511015620001d457620001cc83620001ed565b9050620001e7565b81620001e1848262000493565b5060ff90505b92915050565b600080829050601f8151111562000224578260405163305a27a960e01b81526004016200021b91906200055f565b60405180910390fd5b8051620002318262000594565b179392505050565b634e487b7160e01b600052604160045260246000fd5b60005b838110156200026c57818101518382015260200162000252565b50506000910152565b600082601f8301126200028757600080fd5b81516001600160401b0380821115620002a457620002a462000239565b604051601f8301601f19908116603f01168101908282118183101715620002cf57620002cf62000239565b81604052838152866020858801011115620002e957600080fd5b620002fc8460208301602089016200024f565b9695505050505050565b80516001600160a01b03811681146200031e57600080fd5b919050565b600080600080600080600060e0888a0312156200033f57600080fd5b87516001600160401b03808211156200035757600080fd5b620003658b838c0162000275565b985060208a01519150808211156200037c57600080fd5b6200038a8b838c0162000275565b975060408a01519650620003a160608b0162000306565b955060808a0151915080821115620003b857600080fd5b620003c68b838c0162000275565b945060a08a0151915080821115620003dd57600080fd5b50620003ec8a828b0162000275565b92505060c0880151905092959891949750929550565b600181811c908216806200041757607f821691505b6020821081036200043857634e487b7160e01b600052602260045260246000fd5b50919050565b601f8211156200048e576000816000526020600020601f850160051c81016020861015620004695750805b601f850160051c820191505b818110156200048a5782815560010162000475565b5050505b505050565b81516001600160401b03811115620004af57620004af62000239565b620004c781620004c0845462000402565b846200043e565b602080601f831160018114620004ff5760008415620004e65750858301515b600019600386901b1c1916600185901b1785556200048a565b600085815260208120601f198616915b8281101562000530578886015182559484019460019091019084016200050f565b50858210156200054f5787850151600019600388901b60f8161c191681555b5050505050600190811b01905550565b6020815260008251806020840152620005808160408501602087016200024f565b601f01601f19169190910160400192915050565b80516020808301519190811015620004385760001960209190910360031b1b16919050565b60805160a05160c05160e051610100516101205161014051611561620006146000396000610a6701526000610a3a015260006109530152600061092b01526000610886015260006108b0015260006108da01526115616000f3fe608060405234801561001057600080fd5b50600436106101425760003560e01c80637ecebe00116100b8578063b2fdd8091161007c578063b2fdd80914610295578063b49f4afd146102a8578063d24378eb146102b0578063d505accf146102b9578063dd62ed3e146102cc578063e9e15b4f1461030557600080fd5b80637ecebe00146102445780638456cb591461025757806384b0196e1461025f57806395d89b411461027a578063a9059cbb1461028257600080fd5b8063313ce5671161010a578063313ce567146101d85780633644e515146101e7578063392f37e9146101ef5780633f4ba83a146102065780635c975abb1461021057806370a082311461021b57600080fd5b806306fdde0314610147578063095ea7b31461016557806318160ddd1461018857806323b872dd1461019a5780633013ce29146101ad575b600080fd5b61014f610335565b60405161015c9190611257565b60405180910390f35b610178610173366004611286565b6103c7565b604051901515815260200161015c565b6002545b60405190815260200161015c565b6101786101a83660046112b0565b6103e1565b600a546101c0906001600160a01b031681565b6040516001600160a01b03909116815260200161015c565b6040516012815260200161015c565b61018c610407565b6101f7610416565b60405161015c939291906112ec565b61020e61053c565b005b60055460ff16610178565b61018c610229366004611322565b6001600160a01b031660009081526020819052604090205490565b61018c610252366004611322565b610546565b61020e610564565b61026761056c565b60405161015c979695949392919061133d565b61014f6105b2565b610178610290366004611286565b6105c1565b61020e6102a3366004611286565b6105cf565b60095461018c565b61018c60095481565b61020e6102c73660046113d6565b610650565b61018c6102da366004611449565b6001600160a01b03918216600090815260016020908152604080832093909416825291909152205490565b61020e610313366004611322565b600f80546001600160a01b0319166001600160a01b0392909216919091179055565b6060600380546103449061147c565b80601f01602080910402602001604051908101604052809291908181526020018280546103709061147c565b80156103bd5780601f10610392576101008083540402835291602001916103bd565b820191906000526020600020905b8154815290600101906020018083116103a057829003601f168201915b5050505050905090565b6000336103d581858561078a565b60019150505b92915050565b6000336103ef85828561079c565b6103fa85858561081a565b60019150505b9392505050565b6000610411610879565b905090565b600b805481906104259061147c565b80601f01602080910402602001604051908101604052809291908181526020018280546104519061147c565b801561049e5780601f106104735761010080835404028352916020019161049e565b820191906000526020600020905b81548152906001019060200180831161048157829003601f168201915b5050505050908060010180546104b39061147c565b80601f01602080910402602001604051908101604052809291908181526020018280546104df9061147c565b801561052c5780601f106105015761010080835404028352916020019161052c565b820191906000526020600020905b81548152906001019060200180831161050f57829003601f168201915b5050505050908060020154905083565b6105446109a4565b565b6001600160a01b0381166000908152600860205260408120546103db565b6105446109f6565b600060608060008060006060610580610a33565b610588610a60565b60408051600080825260208201909252600f60f81b9b939a50919850469750309650945092509050565b6060600480546103449061147c565b6000336103d581858561081a565b600e54816105dc60025490565b6105e691906114b6565b11156106395760405162461bcd60e51b815260206004820152601e60248201527f4672616374696f6e616c697a65723a20417373657420736f6c64206f7574000060448201526064015b60405180910390fd5b61064233610a8d565b61064c8282610ab4565b5050565b834211156106745760405163313c898160e11b815260048101859052602401610630565b60007f6e71edae12b1b97f4d1f60370fef10105fa2faae0126114a169c64845d6126c98888886106c18c6001600160a01b0316600090815260086020526040902080546001810190915590565b6040805160208101969096526001600160a01b0394851690860152929091166060840152608083015260a082015260c0810186905260e001604051602081830303815290604052805190602001209050600061071c82610aea565b9050600061072c82878787610b17565b9050896001600160a01b0316816001600160a01b031614610773576040516325c0072360e11b81526001600160a01b0380831660048301528b166024820152604401610630565b61077e8a8a8a61078a565b50505050505050505050565b6107978383836001610b45565b505050565b6001600160a01b038381166000908152600160209081526040808320938616835292905220546000198114610814578181101561080557604051637dc7a0d960e11b81526001600160a01b03841660048201526024810182905260448101839052606401610630565b61081484848484036000610b45565b50505050565b6001600160a01b03831661084457604051634b637e8f60e11b815260006004820152602401610630565b6001600160a01b03821661086e5760405163ec442f0560e01b815260006004820152602401610630565b610797838383610c1a565b6000306001600160a01b037f0000000000000000000000000000000000000000000000000000000000000000161480156108d257507f000000000000000000000000000000000000000000000000000000000000000046145b156108fc57507f000000000000000000000000000000000000000000000000000000000000000090565b610411604080517f8b73c3c69bb8fe3d512ecc4cf759cc79239f7b179b0ffacaa9a75d522b39400f60208201527f0000000000000000000000000000000000000000000000000000000000000000918101919091527f000000000000000000000000000000000000000000000000000000000000000060608201524660808201523060a082015260009060c00160405160208183030381529060405280519060200120905090565b6109ac610c25565b6005805460ff191690557f5db9ee0a495bf2e6ff9c91a7834c1ba4fdd244a5e8aa4e537bd38aeae4b073aa335b6040516001600160a01b03909116815260200160405180910390a1565b6109fe610c48565b6005805460ff191660011790557f62e78cea01bee320cd4e420270b5ea74000d11b0c9f74754ebdbfc544b05a2586109d93390565b60606104117f00000000000000000000000000000000000000000000000000000000000000006006610c6c565b60606104117f00000000000000000000000000000000000000000000000000000000000000006007610c6c565b600f54600954600a54610ab1926001600160a01b0391821692859290911690610d17565b50565b6001600160a01b038216610ade5760405163ec442f0560e01b815260006004820152602401610630565b61064c60008383610c1a565b60006103db610af7610879565b8360405161190160f01b8152600281019290925260228201526042902090565b600080600080610b2988888888610d71565b925092509250610b398282610e40565b50909695505050505050565b6001600160a01b038416610b6f5760405163e602df0560e01b815260006004820152602401610630565b6001600160a01b038316610b9957604051634a1406b160e11b815260006004820152602401610630565b6001600160a01b038085166000908152600160209081526040808320938716835292905220829055801561081457826001600160a01b0316846001600160a01b03167f8c5be1e5ebec7d5bd14f71427d1e84f3dd0314c0f7b2291e5b200ac8c7c3b92584604051610c0c91815260200190565b60405180910390a350505050565b610797838383610ef9565b60055460ff1661054457604051638dfc202b60e01b815260040160405180910390fd5b60055460ff16156105445760405163d93c066560e01b815260040160405180910390fd5b606060ff8314610c8657610c7f83610f0c565b90506103db565b818054610c929061147c565b80601f0160208091040260200160405190810160405280929190818152602001828054610cbe9061147c565b8015610d0b5780601f10610ce057610100808354040283529160200191610d0b565b820191906000526020600020905b815481529060010190602001808311610cee57829003601f168201915b505050505090506103db565b604080516001600160a01b0385811660248301528416604482015260648082018490528251808303909101815260849091019091526020810180516001600160e01b03166323b872dd60e01b179052610814908590610f4b565b600080807f7fffffffffffffffffffffffffffffff5d576e7357a4501ddfe92f46681b20a0841115610dac5750600091506003905082610e36565b604080516000808252602082018084528a905260ff891692820192909252606081018790526080810186905260019060a0016020604051602081039080840390855afa158015610e00573d6000803e3d6000fd5b5050604051601f1901519150506001600160a01b038116610e2c57506000925060019150829050610e36565b9250600091508190505b9450945094915050565b6000826003811115610e5457610e546114d7565b03610e5d575050565b6001826003811115610e7157610e716114d7565b03610e8f5760405163f645eedf60e01b815260040160405180910390fd5b6002826003811115610ea357610ea36114d7565b03610ec45760405163fce698f760e01b815260048101829052602401610630565b6003826003811115610ed857610ed86114d7565b0361064c576040516335e2f38360e21b815260048101829052602401610630565b610f01610c48565b610797838383610fae565b60606000610f19836110d8565b604080516020808252818301909252919250600091906020820181803683375050509182525060208101929092525090565b6000610f606001600160a01b03841683611100565b90508051600014158015610f85575080806020019051810190610f8391906114ed565b155b1561079757604051635274afe760e01b81526001600160a01b0384166004820152602401610630565b6001600160a01b038316610fd9578060026000828254610fce91906114b6565b9091555061104b9050565b6001600160a01b0383166000908152602081905260409020548181101561102c5760405163391434e360e21b81526001600160a01b03851660048201526024810182905260448101839052606401610630565b6001600160a01b03841660009081526020819052604090209082900390555b6001600160a01b03821661106757600280548290039055611086565b6001600160a01b03821660009081526020819052604090208054820190555b816001600160a01b0316836001600160a01b03167fddf252ad1be2c89b69c2b068fc378daa952ba7f163c4a11628f55a4df523b3ef836040516110cb91815260200190565b60405180910390a3505050565b600060ff8216601f8111156103db57604051632cd44ac360e21b815260040160405180910390fd5b60606104008383600084600080856001600160a01b03168486604051611126919061150f565b60006040518083038185875af1925050503d8060008114611163576040519150601f19603f3d011682016040523d82523d6000602084013e611168565b606091505b5091509150611178868383611182565b9695505050505050565b60608261119757611192826111de565b610400565b81511580156111ae57506001600160a01b0384163b155b156111d757604051639996b31560e01b81526001600160a01b0385166004820152602401610630565b5080610400565b8051156111ee5780518082602001fd5b604051630a12f52160e11b815260040160405180910390fd5b60005b8381101561122257818101518382015260200161120a565b50506000910152565b60008151808452611243816020860160208601611207565b601f01601f19169290920160200192915050565b602081526000610400602083018461122b565b80356001600160a01b038116811461128157600080fd5b919050565b6000806040838503121561129957600080fd5b6112a28361126a565b946020939093013593505050565b6000806000606084860312156112c557600080fd5b6112ce8461126a565b92506112dc6020850161126a565b9150604084013590509250925092565b6060815260006112ff606083018661122b565b8281036020840152611311818661122b565b915050826040830152949350505050565b60006020828403121561133457600080fd5b6104008261126a565b60ff60f81b881681526000602060e0602084015261135e60e084018a61122b565b8381036040850152611370818a61122b565b606085018990526001600160a01b038816608086015260a0850187905284810360c08601528551808252602080880193509091019060005b818110156113c4578351835292840192918401916001016113a8565b50909c9b505050505050505050505050565b600080600080600080600060e0888a0312156113f157600080fd5b6113fa8861126a565b96506114086020890161126a565b95506040880135945060608801359350608088013560ff8116811461142c57600080fd5b9699959850939692959460a0840135945060c09093013592915050565b6000806040838503121561145c57600080fd5b6114658361126a565b91506114736020840161126a565b90509250929050565b600181811c9082168061149057607f821691505b6020821081036114b057634e487b7160e01b600052602260045260246000fd5b50919050565b808201808211156103db57634e487b7160e01b600052601160045260246000fd5b634e487b7160e01b600052602160045260246000fd5b6000602082840312156114ff57600080fd5b8151801515811461040057600080fd5b60008251611521818460208701611207565b919091019291505056fea2646970667358221220121445bdf5be96df6014ab726d1f1f4728126f5e0d621789f74d4029f3df35f764736f6c63430008170033","linkReferences":{}},"methodIdentifiers":{"DOMAIN_SEPARATOR()":"3644e515","allowance(address,address)":"dd62ed3e","approve(address,uint256)":"095ea7b3","assetPrice()":"d24378eb","balanceOf(address)":"70a08231","buyFraction(address,uint256)":"b2fdd809","decimals()":"313ce567","eip712Domain()":"84b0196e","getBasePrice()":"b49f4afd","metadata()":"392f37e9","name()":"06fdde03","nonces(address)":"7ecebe00","pause()":"8456cb59","paused()":"5c975abb","paymentToken()":"3013ce29","permit(address,address,uint256,uint256,uint8,bytes32,bytes32)":"d505accf","setPoolAddress(address)":"e9e15b4f","symbol()":"95d89b41","totalSupply()":"18160ddd","transfer(address,uint256)":"a9059cbb","transferFrom(address,address,uint256)":"23b872dd","unpause()":"3f4ba83a"},"id":43}