{"abi":[{"type":"constructor","inputs":[{"name":"_paymentToken","type":"address","internalType":"address"}],"stateMutability":"nonpayable"},{"type":"function","name":"allSellersInfo","inputs":[{"name":"","type":"uint256","internalType":"uint256"}],"outputs":[{"name":"","type":"address","internalType":"address"}],"stateMutability":"view"},{"type":"function","name":"basePrice","inputs":[],"outputs":[{"name":"","type":"uint256","internalType":"uint256"}],"stateMutability":"view"},{"type":"function","name":"getAllOrders","inputs":[],"outputs":[{"name":"","type":"tuple[]","internalType":"struct OrderBook.Order[]","components":[{"name":"fractionalizer","type":"address","internalType":"address"},{"name":"user","type":"address","internalType":"address"},{"name":"unit","type":"uint256","internalType":"uint256"},{"name":"price","type":"uint256","internalType":"uint256"},{"name":"canSell","type":"bool","internalType":"bool"}]}],"stateMutability":"view"},{"type":"function","name":"getNumberOfOrders","inputs":[],"outputs":[{"name":"","type":"uint256","internalType":"uint256"}],"stateMutability":"view"},{"type":"function","name":"listAsset","inputs":[{"name":"_token","type":"address","internalType":"contract AssetFractionaliser"},{"name":"unitToSell","type":"uint256","internalType":"uint256"},{"name":"price","type":"uint256","internalType":"uint256"},{"name":"_isSell","type":"bool","internalType":"bool"}],"outputs":[],"stateMutability":"nonpayable"},{"type":"function","name":"orderBookFullInfo","inputs":[{"name":"","type":"uint256","internalType":"uint256"}],"outputs":[{"name":"fractionalizer","type":"address","internalType":"address"},{"name":"owner","type":"address","internalType":"address"},{"name":"unitToBeSold","type":"uint256","internalType":"uint256"},{"name":"priceForAllUnits","type":"uint256","internalType":"uint256"},{"name":"canSell","type":"bool","internalType":"bool"}],"stateMutability":"view"},{"type":"function","name":"orderIdCounter","inputs":[],"outputs":[{"name":"","type":"uint256","internalType":"uint256"}],"stateMutability":"view"},{"type":"function","name":"orders","inputs":[{"name":"","type":"address","internalType":"address"}],"outputs":[{"name":"fractionalizer","type":"address","internalType":"address"},{"name":"user","type":"address","internalType":"address"},{"name":"unit","type":"uint256","internalType":"uint256"},{"name":"price","type":"uint256","internalType":"uint256"},{"name":"canSell","type":"bool","internalType":"bool"}],"stateMutability":"view"},{"type":"function","name":"placeOrderToBuy","inputs":[{"name":"_token","type":"address","internalType":"contract AssetFractionaliser"},{"name":"seller","type":"address","internalType":"address"},{"name":"price","type":"uint256","internalType":"uint256"},{"name":"unit","type":"uint256","internalType":"uint256"}],"outputs":[],"stateMutability":"nonpayable"},{"type":"function","name":"terminateOrder","inputs":[{"name":"_token","type":"address","internalType":"contract AssetFractionaliser"}],"outputs":[],"stateMutability":"nonpayable"},{"type":"function","name":"token","inputs":[],"outputs":[{"name":"","type":"address","internalType":"contract ERC20"}],"stateMutability":"view"},{"type":"event","name":"BasePriceUpdated","inputs":[{"name":"newBasePrice","type":"uint256","indexed":false,"internalType":"uint256"}],"anonymous":false},{"type":"event","name":"Bought","inputs":[{"name":"buyer","type":"address","indexed":false,"internalType":"address"},{"name":"seller","type":"address","indexed":false,"internalType":"address"},{"name":"unit","type":"uint256","indexed":false,"internalType":"uint256"},{"name":"price","type":"uint256","indexed":false,"internalType":"uint256"}],"anonymous":false},{"type":"event","name":"OrderPlaced","inputs":[{"name":"orderId","type":"uint256","indexed":false,"internalType":"uint256"},{"name":"user","type":"address","indexed":true,"internalType":"address"},{"name":"amount","type":"uint256","indexed":false,"internalType":"uint256"},{"name":"price","type":"uint256","indexed":false,"internalType":"uint256"},{"name":"canSell","type":"bool","indexed":false,"internalType":"bool"}],"anonymous":false},{"type":"event","name":"OrderTerminated","inputs":[{"name":"user","type":"address","indexed":false,"internalType":"address"}],"anonymous":false},{"type":"error","name":"AddressEmptyCode","inputs":[{"name":"target","type":"address","internalType":"address"}]},{"type":"error","name":"AddressInsufficientBalance","inputs":[{"name":"account","type":"address","internalType":"address"}]},{"type":"error","name":"FailedInnerCall","inputs":[]},{"type":"error","name":"SafeERC20FailedOperation","inputs":[{"name":"token","type":"address","internalType":"address"}]}],"bytecode":{"object":"0x608060405234801561001057600080fd5b5060405161104638038061104683398101604081905261002f91610054565b600380546001600160a01b0319166001600160a01b0392909216919091179055610084565b60006020828403121561006657600080fd5b81516001600160a01b038116811461007d57600080fd5b9392505050565b610fb3806100936000396000f3fe608060405234801561001057600080fd5b50600436106100a95760003560e01c80638e582014116100715780638e5820141461012d578063be37442314610140578063c7876ea414610149578063c7f5eca214610152578063f40e8471146101d3578063fc0c546a1461021f57600080fd5b80630e84751d146100ae5780631ddae677146100c55780631e8477d1146100f057806369699eab146101055780637bea0d1c14610118575b600080fd5b6002545b6040519081526020015b60405180910390f35b6100d86100d3366004610cf5565b610232565b6040516001600160a01b0390911681526020016100bc565b6101036100fe366004610d23565b61025c565b005b610103610113366004610d40565b6103b9565b610120610615565b6040516100bc9190610d86565b61010361013b366004610e10565b610772565b6100b260025481565b6100b260015481565b61019e610160366004610cf5565b600660205260009081526040902080546001820154600283015460038401546004909401546001600160a01b03938416949390921692909160ff1685565b604080516001600160a01b0396871681529590941660208601529284019190915260608301521515608082015260a0016100bc565b61019e6101e1366004610d23565b600560205260009081526040902080546001820154600283015460038401546004909401546001600160a01b03938416949390921692909160ff1685565b6000546100d8906001600160a01b031681565b6004818154811061024257600080fd5b6000918252602090912001546001600160a01b0316905081565b336000908152600560205260409020600101546001600160a01b03166102c05760405162461bcd60e51b815260206004820152601460248201527313dc99195c88191bd95cc81b9bdd08195e1a5cdd60621b60448201526064015b60405180910390fd5b33600081815260056020908152604091829020825160a08101845281546001600160a01b039081168252600183015481169382019390935260028201549381018490526003820154606082015260049091015460ff16151560808201529261032b9291851691610a9d565b33600090815260056020526040812080546001600160a01b0319908116825560018201805490911690556002808201839055600382018390556004909101805460ff1916905580549161037d83610e70565b90915550506040513381527f411da71551fa2733df5f642378232b4b0a7de0343ed41d84fdd4ac56e3068aa39060200160405180910390a15050565b6001600160a01b03808416600090815260056020908152604091829020825160a081018452815485168152600180830154909516928101929092526002810154928201929092526003820154606082015260049091015460ff1615156080820181905290911461045f5760405162461bcd60e51b81526020600482015260116024820152706275796572206e6f742073656c6c696e6760781b60448201526064016102b7565b828282606001516104709190610e87565b11156104be5760405162461bcd60e51b815260206004820152601c60248201527f7072696365206973206c6f776572207468616e2065787065637465640000000060448201526064016102b7565b81816040018181516104d09190610ea9565b9052506001600160a01b038481166000908152600560209081526040808320855181546001600160a01b031990811691871691909117825592860151600182018054909416951694909417909155830151600283018190556060840151600384015560808401516004909301805460ff1916931515939093179092550361059f576001600160a01b038416600090815260056020526040812080546001600160a01b031990811682556001820180549091169055600281018290556003810191909155600401805460ff191690555b6105b36001600160a01b0386163384610a9d565b6105be338585610b01565b604080513381526001600160a01b0386166020820152908101839052606081018490527fbf77fd13a39d14dc0da779342c14105c38d9a5d0c60f2caa22f5fd1d5525416d9060800160405180910390a15050505050565b60025460609060008167ffffffffffffffff81111561063657610636610ebc565b60405190808252806020026020018201604052801561068f57816020015b6040805160a0810182526000808252602080830182905292820181905260608201819052608082015282526000199092019101816106545790505b50905060005b60045481101561076b576000600482815481106106b4576106b4610ed2565b60009182526020808320909101546001600160a01b0316808352600590915260409091206002015490915015610762576001600160a01b03808216600090815260056020908152604091829020825160a081018452815485168152600182015490941691840191909152600281015491830191909152600381015460608301526004015460ff1615156080820152835184908490811061075657610756610ed2565b60200260200101819052505b50600101610695565b5092915050565b600083116107c25760405162461bcd60e51b815260206004820152601b60248201527f756e6974206d7573742062652067726561746572207468616e2030000000000060448201526064016102b7565b82846001600160a01b031663b49f4afd6040518163ffffffff1660e01b8152600401602060405180830381865afa158015610801573d6000803e3d6000fd5b505050506040513d601f19601f820116820180604052508101906108259190610ee8565b61082f9190610f01565b6108398484610f01565b10156108955760405162461bcd60e51b815260206004820152602560248201527f5072696365206d7573742062652067726561746572207468616e206261736520604482015264507269636560d81b60648201526084016102b7565b6000546040516370a0823160e01b815233600482015284916001600160a01b0316906370a0823190602401602060405180830381865afa1580156108dd573d6000803e3d6000fd5b505050506040513d601f19601f820116820180604052508101906109019190610ee8565b101561094f5760405162461bcd60e51b815260206004820152601a60248201527f496e73756666696369656e7420746f6b656e2062616c616e636500000000000060448201526064016102b7565b6109646001600160a01b038516333085610b15565b6040805160a081018252600080546001600160a01b0390811683523360208085018281528587018a815260608088018b81528a15156080808b01828152888b52600588528c8b209b518c546001600160a01b0319908116918c16919091178d5596516001808e0180548a1692909c1691909117909a5594516002808d0191909155925160038c0155935160049a8b01805460ff191691151591909117905589549788018a55989097527f8a35acfbc15ff81a39ae7d344fd709f28e8600b4aa8c65c6b64bfe7fe36bd19b90950180549092168417909155935486519081529081018990529485018790529084019290925290917f1ad1a5ae4ffda7ac4728a3f999d312ee8c3bf93f8f9bec6ea55609ec2980c0d7910160405180910390a260028054906000610a9283610f18565b919050555050505050565b6040516001600160a01b03838116602483015260448201839052610afc91859182169063a9059cbb906064015b604051602081830303815290604052915060e01b6020820180516001600160e01b038381831617835250505050610b54565b505050565b600354610afc906001600160a01b03168484845b6040516001600160a01b038481166024830152838116604483015260648201839052610b4e9186918216906323b872dd90608401610aca565b50505050565b6000610b696001600160a01b03841683610bb7565b90508051600014158015610b8e575080806020019051810190610b8c9190610f31565b155b15610afc57604051635274afe760e01b81526001600160a01b03841660048201526024016102b7565b6060610bc583836000610bce565b90505b92915050565b606081471015610bf35760405163cd78605960e01b81523060048201526024016102b7565b600080856001600160a01b03168486604051610c0f9190610f4e565b60006040518083038185875af1925050503d8060008114610c4c576040519150601f19603f3d011682016040523d82523d6000602084013e610c51565b606091505b5091509150610c61868383610c6d565b925050505b9392505050565b606082610c8257610c7d82610cc9565b610c66565b8151158015610c9957506001600160a01b0384163b155b15610cc257604051639996b31560e01b81526001600160a01b03851660048201526024016102b7565b5080610c66565b805115610cd95780518082602001fd5b604051630a12f52160e11b815260040160405180910390fd5b50565b600060208284031215610d0757600080fd5b5035919050565b6001600160a01b0381168114610cf257600080fd5b600060208284031215610d3557600080fd5b8135610c6681610d0e565b60008060008060808587031215610d5657600080fd5b8435610d6181610d0e565b93506020850135610d7181610d0e565b93969395505050506040820135916060013590565b602080825282518282018190526000919060409081850190868401855b82811015610df557815180516001600160a01b03908116865287820151168786015285810151868601526060808201519086015260809081015115159085015260a09093019290850190600101610da3565b5091979650505050505050565b8015158114610cf257600080fd5b60008060008060808587031215610e2657600080fd5b8435610e3181610d0e565b935060208501359250604085013591506060850135610e4f81610e02565b939692955090935050565b634e487b7160e01b600052601160045260246000fd5b600081610e7f57610e7f610e5a565b506000190190565b600082610ea457634e487b7160e01b600052601260045260246000fd5b500490565b81810381811115610bc857610bc8610e5a565b634e487b7160e01b600052604160045260246000fd5b634e487b7160e01b600052603260045260246000fd5b600060208284031215610efa57600080fd5b5051919050565b8082028115828204841417610bc857610bc8610e5a565b600060018201610f2a57610f2a610e5a565b5060010190565b600060208284031215610f4357600080fd5b8151610c6681610e02565b6000825160005b81811015610f6f5760208186018101518583015201610f55565b50600092019182525091905056fea2646970667358221220fd13999efc4b95671a3b4ea77c17e40026e0feb98eddb4b19fb31b652f10a73264736f6c63430008170033","linkReferences":{}},"methodIdentifiers":{"allSellersInfo(uint256)":"1ddae677","basePrice()":"c7876ea4","getAllOrders()":"7bea0d1c","getNumberOfOrders()":"0e84751d","listAsset(address,uint256,uint256,bool)":"8e582014","orderBookFullInfo(uint256)":"c7f5eca2","orderIdCounter()":"be374423","orders(address)":"f40e8471","placeOrderToBuy(address,address,uint256,uint256)":"69699eab","terminateOrder(address)":"1e8477d1","token()":"fc0c546a"},"id":59}