{"abi":[{"type":"constructor","inputs":[],"stateMutability":"nonpayable"},{"type":"function","name":"DOMAIN_SEPARATOR","inputs":[],"outputs":[{"name":"","type":"bytes32","internalType":"bytes32"}],"stateMutability":"view"},{"type":"function","name":"allowance","inputs":[{"name":"owner","type":"address","internalType":"address"},{"name":"spender","type":"address","internalType":"address"}],"outputs":[{"name":"","type":"uint256","internalType":"uint256"}],"stateMutability":"view"},{"type":"function","name":"approve","inputs":[{"name":"spender","type":"address","internalType":"address"},{"name":"value","type":"uint256","internalType":"uint256"}],"outputs":[{"name":"","type":"bool","internalType":"bool"}],"stateMutability":"nonpayable"},{"type":"function","name":"balanceOf","inputs":[{"name":"account","type":"address","internalType":"address"}],"outputs":[{"name":"","type":"uint256","internalType":"uint256"}],"stateMutability":"view"},{"type":"function","name":"burn","inputs":[{"name":"amount","type":"uint256","internalType":"uint256"}],"outputs":[],"stateMutability":"nonpayable"},{"type":"function","name":"decimals","inputs":[],"outputs":[{"name":"","type":"uint8","internalType":"uint8"}],"stateMutability":"view"},{"type":"function","name":"eip712Domain","inputs":[],"outputs":[{"name":"fields","type":"bytes1","internalType":"bytes1"},{"name":"name","type":"string","internalType":"string"},{"name":"version","type":"string","internalType":"string"},{"name":"chainId","type":"uint256","internalType":"uint256"},{"name":"verifyingContract","type":"address","internalType":"address"},{"name":"salt","type":"bytes32","internalType":"bytes32"},{"name":"extensions","type":"uint256[]","internalType":"uint256[]"}],"stateMutability":"view"},{"type":"function","name":"mint","inputs":[{"name":"to","type":"address","internalType":"address"},{"name":"amount","type":"uint256","internalType":"uint256"}],"outputs":[],"stateMutability":"nonpayable"},{"type":"function","name":"name","inputs":[],"outputs":[{"name":"","type":"string","internalType":"string"}],"stateMutability":"view"},{"type":"function","name":"nonces","inputs":[{"name":"owner","type":"address","internalType":"address"}],"outputs":[{"name":"","type":"uint256","internalType":"uint256"}],"stateMutability":"view"},{"type":"function","name":"permit","inputs":[{"name":"owner","type":"address","internalType":"address"},{"name":"spender","type":"address","internalType":"address"},{"name":"value","type":"uint256","internalType":"uint256"},{"name":"deadline","type":"uint256","internalType":"uint256"},{"name":"v","type":"uint8","internalType":"uint8"},{"name":"r","type":"bytes32","internalType":"bytes32"},{"name":"s","type":"bytes32","internalType":"bytes32"}],"outputs":[],"stateMutability":"nonpayable"},{"type":"function","name":"symbol","inputs":[],"outputs":[{"name":"","type":"string","internalType":"string"}],"stateMutability":"view"},{"type":"function","name":"totalSupply","inputs":[],"outputs":[{"name":"","type":"uint256","internalType":"uint256"}],"stateMutability":"view"},{"type":"function","name":"transfer","inputs":[{"name":"to","type":"address","internalType":"address"},{"name":"value","type":"uint256","internalType":"uint256"}],"outputs":[{"name":"","type":"bool","internalType":"bool"}],"stateMutability":"nonpayable"},{"type":"function","name":"transferFrom","inputs":[{"name":"from","type":"address","internalType":"address"},{"name":"to","type":"address","internalType":"address"},{"name":"value","type":"uint256","internalType":"uint256"}],"outputs":[{"name":"","type":"bool","internalType":"bool"}],"stateMutability":"nonpayable"},{"type":"event","name":"Approval","inputs":[{"name":"owner","type":"address","indexed":true,"internalType":"address"},{"name":"spender","type":"address","indexed":true,"internalType":"address"},{"name":"value","type":"uint256","indexed":false,"internalType":"uint256"}],"anonymous":false},{"type":"event","name":"EIP712DomainChanged","inputs":[],"anonymous":false},{"type":"event","name":"Transfer","inputs":[{"name":"from","type":"address","indexed":true,"internalType":"address"},{"name":"to","type":"address","indexed":true,"internalType":"address"},{"name":"value","type":"uint256","indexed":false,"internalType":"uint256"}],"anonymous":false},{"type":"error","name":"ECDSAInvalidSignature","inputs":[]},{"type":"error","name":"ECDSAInvalidSignatureLength","inputs":[{"name":"length","type":"uint256","internalType":"uint256"}]},{"type":"error","name":"ECDSAInvalidSignatureS","inputs":[{"name":"s","type":"bytes32","internalType":"bytes32"}]},{"type":"error","name":"ERC20InsufficientAllowance","inputs":[{"name":"spender","type":"address","internalType":"address"},{"name":"allowance","type":"uint256","internalType":"uint256"},{"name":"needed","type":"uint256","internalType":"uint256"}]},{"type":"error","name":"ERC20InsufficientBalance","inputs":[{"name":"sender","type":"address","internalType":"address"},{"name":"balance","type":"uint256","internalType":"uint256"},{"name":"needed","type":"uint256","internalType":"uint256"}]},{"type":"error","name":"ERC20InvalidApprover","inputs":[{"name":"approver","type":"address","internalType":"address"}]},{"type":"error","name":"ERC20InvalidReceiver","inputs":[{"name":"receiver","type":"address","internalType":"address"}]},{"type":"error","name":"ERC20InvalidSender","inputs":[{"name":"sender","type":"address","internalType":"address"}]},{"type":"error","name":"ERC20InvalidSpender","inputs":[{"name":"spender","type":"address","internalType":"address"}]},{"type":"error","name":"ERC2612ExpiredSignature","inputs":[{"name":"deadline","type":"uint256","internalType":"uint256"}]},{"type":"error","name":"ERC2612InvalidSigner","inputs":[{"name":"signer","type":"address","internalType":"address"},{"name":"owner","type":"address","internalType":"address"}]},{"type":"error","name":"InvalidAccountNonce","inputs":[{"name":"account","type":"address","internalType":"address"},{"name":"currentNonce","type":"uint256","internalType":"uint256"}]},{"type":"error","name":"InvalidShortString","inputs":[]},{"type":"error","name":"StringTooLong","inputs":[{"name":"str","type":"string","internalType":"string"}]}],"bytecode":{"object":"0x61016060405234801561001157600080fd5b506040518060400160405280600781526020016626bcaa37b5b2b760c91b81525080604051806040016040528060018152602001603160f81b8152506040518060400160405280600781526020016626bcaa37b5b2b760c91b815250604051806040016040528060038152602001624d544b60e81b8152508160039081610098919061027b565b5060046100a5828261027b565b506100b591508390506005610160565b610120526100c4816006610160565b61014052815160208084019190912060e052815190820120610100524660a05261015160e05161010051604080517f8b73c3c69bb8fe3d512ecc4cf759cc79239f7b179b0ffacaa9a75d522b39400f60208201529081019290925260608201524660808201523060a082015260009060c00160405160208183030381529060405280519060200120905090565b60805250503060c052506103ad565b600060208351101561017c5761017583610193565b905061018d565b81610187848261027b565b5060ff90505b92915050565b600080829050601f815111156101c7578260405163305a27a960e01b81526004016101be919061033a565b60405180910390fd5b80516101d282610389565b179392505050565b634e487b7160e01b600052604160045260246000fd5b600181811c9082168061020457607f821691505b60208210810361022457634e487b7160e01b600052602260045260246000fd5b50919050565b601f821115610276576000816000526020600020601f850160051c810160208610156102535750805b601f850160051c820191505b818110156102725782815560010161025f565b5050505b505050565b81516001600160401b03811115610294576102946101da565b6102a8816102a284546101f0565b8461022a565b602080601f8311600181146102dd57600084156102c55750858301515b600019600386901b1c1916600185901b178555610272565b600085815260208120601f198616915b8281101561030c578886015182559484019460019091019084016102ed565b508582101561032a5787850151600019600388901b60f8161c191681555b5050505050600190811b01905550565b60006020808352835180602085015260005b818110156103685785810183015185820160400152820161034c565b506000604082860101526040601f19601f8301168501019250505092915050565b805160208083015191908110156102245760001960209190910360031b1b16919050565b60805160a05160c05160e051610100516101205161014051610fe761040760003960006107d1015260006107a4015260006106e0015260006106b8015260006106130152600061063d015260006106670152610fe76000f3fe608060405234801561001057600080fd5b50600436106100f55760003560e01c806342966c681161009757806395d89b411161006657806395d89b41146101f6578063a9059cbb146101fe578063d505accf14610211578063dd62ed3e1461022457600080fd5b806342966c681461018c57806370a082311461019f5780637ecebe00146101c857806384b0196e146101db57600080fd5b806323b872dd116100d357806323b872dd1461014d578063313ce567146101605780633644e5151461016f57806340c10f191461017757600080fd5b806306fdde03146100fa578063095ea7b31461011857806318160ddd1461013b575b600080fd5b61010261025d565b60405161010f9190610d31565b60405180910390f35b61012b610126366004610d67565b6102ef565b604051901515815260200161010f565b6002545b60405190815260200161010f565b61012b61015b366004610d91565b610309565b6040516012815260200161010f565b61013f61032d565b61018a610185366004610d67565b61033c565b005b61018a61019a366004610dcd565b61034a565b61013f6101ad366004610de6565b6001600160a01b031660009081526020819052604090205490565b61013f6101d6366004610de6565b610357565b6101e3610375565b60405161010f9796959493929190610e01565b6101026103bb565b61012b61020c366004610d67565b6103ca565b61018a61021f366004610e9a565b6103d8565b61013f610232366004610f0d565b6001600160a01b03918216600090815260016020908152604080832093909416825291909152205490565b60606003805461026c90610f40565b80601f016020809104026020016040519081016040528092919081815260200182805461029890610f40565b80156102e55780601f106102ba576101008083540402835291602001916102e5565b820191906000526020600020905b8154815290600101906020018083116102c857829003601f168201915b5050505050905090565b6000336102fd818585610517565b60019150505b92915050565b600033610317858285610529565b6103228585856105a7565b506001949350505050565b6000610337610606565b905090565b6103468282610731565b5050565b6103543382610767565b50565b6001600160a01b038116600090815260076020526040812054610303565b60006060806000806000606061038961079d565b6103916107ca565b60408051600080825260208201909252600f60f81b9b939a50919850469750309650945092509050565b60606004805461026c90610f40565b6000336102fd8185856105a7565b834211156104015760405163313c898160e11b8152600481018590526024015b60405180910390fd5b60007f6e71edae12b1b97f4d1f60370fef10105fa2faae0126114a169c64845d6126c988888861044e8c6001600160a01b0316600090815260076020526040902080546001810190915590565b6040805160208101969096526001600160a01b0394851690860152929091166060840152608083015260a082015260c0810186905260e00160405160208183030381529060405280519060200120905060006104a9826107f7565b905060006104b982878787610824565b9050896001600160a01b0316816001600160a01b031614610500576040516325c0072360e11b81526001600160a01b0380831660048301528b1660248201526044016103f8565b61050b8a8a8a610517565b50505050505050505050565b6105248383836001610852565b505050565b6001600160a01b0383811660009081526001602090815260408083209386168352929052205460001981146105a1578181101561059257604051637dc7a0d960e11b81526001600160a01b038416600482015260248101829052604481018390526064016103f8565b6105a184848484036000610852565b50505050565b6001600160a01b0383166105d157604051634b637e8f60e11b8152600060048201526024016103f8565b6001600160a01b0382166105fb5760405163ec442f0560e01b8152600060048201526024016103f8565b610524838383610927565b6000306001600160a01b037f00000000000000000000000000000000000000000000000000000000000000001614801561065f57507f000000000000000000000000000000000000000000000000000000000000000046145b1561068957507f000000000000000000000000000000000000000000000000000000000000000090565b610337604080517f8b73c3c69bb8fe3d512ecc4cf759cc79239f7b179b0ffacaa9a75d522b39400f60208201527f0000000000000000000000000000000000000000000000000000000000000000918101919091527f000000000000000000000000000000000000000000000000000000000000000060608201524660808201523060a082015260009060c00160405160208183030381529060405280519060200120905090565b6001600160a01b03821661075b5760405163ec442f0560e01b8152600060048201526024016103f8565b61034660008383610927565b6001600160a01b03821661079157604051634b637e8f60e11b8152600060048201526024016103f8565b61034682600083610927565b60606103377f00000000000000000000000000000000000000000000000000000000000000006005610a51565b60606103377f00000000000000000000000000000000000000000000000000000000000000006006610a51565b6000610303610804610606565b8360405161190160f01b8152600281019290925260228201526042902090565b60008060008061083688888888610afc565b9250925092506108468282610bcb565b50909695505050505050565b6001600160a01b03841661087c5760405163e602df0560e01b8152600060048201526024016103f8565b6001600160a01b0383166108a657604051634a1406b160e11b8152600060048201526024016103f8565b6001600160a01b03808516600090815260016020908152604080832093871683529290522082905580156105a157826001600160a01b0316846001600160a01b03167f8c5be1e5ebec7d5bd14f71427d1e84f3dd0314c0f7b2291e5b200ac8c7c3b9258460405161091991815260200190565b60405180910390a350505050565b6001600160a01b0383166109525780600260008282546109479190610f7a565b909155506109c49050565b6001600160a01b038316600090815260208190526040902054818110156109a55760405163391434e360e21b81526001600160a01b038516600482015260248101829052604481018390526064016103f8565b6001600160a01b03841660009081526020819052604090209082900390555b6001600160a01b0382166109e0576002805482900390556109ff565b6001600160a01b03821660009081526020819052604090208054820190555b816001600160a01b0316836001600160a01b03167fddf252ad1be2c89b69c2b068fc378daa952ba7f163c4a11628f55a4df523b3ef83604051610a4491815260200190565b60405180910390a3505050565b606060ff8314610a6b57610a6483610c84565b9050610303565b818054610a7790610f40565b80601f0160208091040260200160405190810160405280929190818152602001828054610aa390610f40565b8015610af05780601f10610ac557610100808354040283529160200191610af0565b820191906000526020600020905b815481529060010190602001808311610ad357829003601f168201915b50505050509050610303565b600080807f7fffffffffffffffffffffffffffffff5d576e7357a4501ddfe92f46681b20a0841115610b375750600091506003905082610bc1565b604080516000808252602082018084528a905260ff891692820192909252606081018790526080810186905260019060a0016020604051602081039080840390855afa158015610b8b573d6000803e3d6000fd5b5050604051601f1901519150506001600160a01b038116610bb757506000925060019150829050610bc1565b9250600091508190505b9450945094915050565b6000826003811115610bdf57610bdf610f9b565b03610be8575050565b6001826003811115610bfc57610bfc610f9b565b03610c1a5760405163f645eedf60e01b815260040160405180910390fd5b6002826003811115610c2e57610c2e610f9b565b03610c4f5760405163fce698f760e01b8152600481018290526024016103f8565b6003826003811115610c6357610c63610f9b565b03610346576040516335e2f38360e21b8152600481018290526024016103f8565b60606000610c9183610cc3565b604080516020808252818301909252919250600091906020820181803683375050509182525060208101929092525090565b600060ff8216601f81111561030357604051632cd44ac360e21b815260040160405180910390fd5b6000815180845260005b81811015610d1157602081850181015186830182015201610cf5565b506000602082860101526020601f19601f83011685010191505092915050565b602081526000610d446020830184610ceb565b9392505050565b80356001600160a01b0381168114610d6257600080fd5b919050565b60008060408385031215610d7a57600080fd5b610d8383610d4b565b946020939093013593505050565b600080600060608486031215610da657600080fd5b610daf84610d4b565b9250610dbd60208501610d4b565b9150604084013590509250925092565b600060208284031215610ddf57600080fd5b5035919050565b600060208284031215610df857600080fd5b610d4482610d4b565b60ff60f81b881681526000602060e06020840152610e2260e084018a610ceb565b8381036040850152610e34818a610ceb565b606085018990526001600160a01b038816608086015260a0850187905284810360c08601528551808252602080880193509091019060005b81811015610e8857835183529284019291840191600101610e6c565b50909c9b505050505050505050505050565b600080600080600080600060e0888a031215610eb557600080fd5b610ebe88610d4b565b9650610ecc60208901610d4b565b95506040880135945060608801359350608088013560ff81168114610ef057600080fd5b9699959850939692959460a0840135945060c09093013592915050565b60008060408385031215610f2057600080fd5b610f2983610d4b565b9150610f3760208401610d4b565b90509250929050565b600181811c90821680610f5457607f821691505b602082108103610f7457634e487b7160e01b600052602260045260246000fd5b50919050565b8082018082111561030357634e487b7160e01b600052601160045260246000fd5b634e487b7160e01b600052602160045260246000fdfea264697066735822122097da1538138381b6e0bc753800c1dcad5b0273380da6d054418d627b5228530e64736f6c63430008190033","linkReferences":{}},"methodIdentifiers":{"DOMAIN_SEPARATOR()":"3644e515","allowance(address,address)":"dd62ed3e","approve(address,uint256)":"095ea7b3","balanceOf(address)":"70a08231","burn(uint256)":"42966c68","decimals()":"313ce567","eip712Domain()":"84b0196e","mint(address,uint256)":"40c10f19","name()":"06fdde03","nonces(address)":"7ecebe00","permit(address,address,uint256,uint256,uint8,bytes32,bytes32)":"d505accf","symbol()":"95d89b41","totalSupply()":"18160ddd","transfer(address,uint256)":"a9059cbb","transferFrom(address,address,uint256)":"23b872dd"},"id":48}