{"abi":[{"type":"constructor","inputs":[{"name":"assetManager","type":"address","internalType":"address"},{"name":"assetName","type":"string","internalType":"string"},{"name":"assetSymbol","type":"string","internalType":"string"},{"name":"_assetPrice","type":"uint256","internalType":"uint256"},{"name":"_paymentToken","type":"address","internalType":"address"},{"name":"_description","type":"string","internalType":"string"},{"name":"_uri","type":"string","internalType":"string"}],"stateMutability":"nonpayable"},{"type":"function","name":"DOMAIN_SEPARATOR","inputs":[],"outputs":[{"name":"","type":"bytes32","internalType":"bytes32"}],"stateMutability":"view"},{"type":"function","name":"allowance","inputs":[{"name":"owner","type":"address","internalType":"address"},{"name":"spender","type":"address","internalType":"address"}],"outputs":[{"name":"","type":"uint256","internalType":"uint256"}],"stateMutability":"view"},{"type":"function","name":"approve","inputs":[{"name":"spender","type":"address","internalType":"address"},{"name":"value","type":"uint256","internalType":"uint256"}],"outputs":[{"name":"","type":"bool","internalType":"bool"}],"stateMutability":"nonpayable"},{"type":"function","name":"assetPrice","inputs":[],"outputs":[{"name":"","type":"uint256","internalType":"uint256"}],"stateMutability":"view"},{"type":"function","name":"balanceOf","inputs":[{"name":"account","type":"address","internalType":"address"}],"outputs":[{"name":"","type":"uint256","internalType":"uint256"}],"stateMutability":"view"},{"type":"function","name":"buyFraction","inputs":[{"name":"to","type":"address","internalType":"address"},{"name":"amount","type":"uint256","internalType":"uint256"},{"name":"payer","type":"address","internalType":"address"}],"outputs":[],"stateMutability":"nonpayable"},{"type":"function","name":"decimals","inputs":[],"outputs":[{"name":"","type":"uint8","internalType":"uint8"}],"stateMutability":"view"},{"type":"function","name":"eip712Domain","inputs":[],"outputs":[{"name":"fields","type":"bytes1","internalType":"bytes1"},{"name":"name","type":"string","internalType":"string"},{"name":"version","type":"string","internalType":"string"},{"name":"chainId","type":"uint256","internalType":"uint256"},{"name":"verifyingContract","type":"address","internalType":"address"},{"name":"salt","type":"bytes32","internalType":"bytes32"},{"name":"extensions","type":"uint256[]","internalType":"uint256[]"}],"stateMutability":"view"},{"type":"function","name":"metadata","inputs":[],"outputs":[{"name":"description","type":"string","internalType":"string"},{"name":"uri","type":"string","internalType":"string"},{"name":"metadataHash","type":"bytes32","internalType":"bytes32"}],"stateMutability":"view"},{"type":"function","name":"name","inputs":[],"outputs":[{"name":"","type":"string","internalType":"string"}],"stateMutability":"view"},{"type":"function","name":"nonces","inputs":[{"name":"owner","type":"address","internalType":"address"}],"outputs":[{"name":"","type":"uint256","internalType":"uint256"}],"stateMutability":"view"},{"type":"function","name":"owner","inputs":[],"outputs":[{"name":"","type":"address","internalType":"address"}],"stateMutability":"view"},{"type":"function","name":"pause","inputs":[],"outputs":[],"stateMutability":"nonpayable"},{"type":"function","name":"paused","inputs":[],"outputs":[{"name":"","type":"bool","internalType":"bool"}],"stateMutability":"view"},{"type":"function","name":"paymentToken","inputs":[],"outputs":[{"name":"","type":"address","internalType":"address"}],"stateMutability":"view"},{"type":"function","name":"permit","inputs":[{"name":"owner","type":"address","internalType":"address"},{"name":"spender","type":"address","internalType":"address"},{"name":"value","type":"uint256","internalType":"uint256"},{"name":"deadline","type":"uint256","internalType":"uint256"},{"name":"v","type":"uint8","internalType":"uint8"},{"name":"r","type":"bytes32","internalType":"bytes32"},{"name":"s","type":"bytes32","internalType":"bytes32"}],"outputs":[],"stateMutability":"nonpayable"},{"type":"function","name":"renounceOwnership","inputs":[],"outputs":[],"stateMutability":"nonpayable"},{"type":"function","name":"symbol","inputs":[],"outputs":[{"name":"","type":"string","internalType":"string"}],"stateMutability":"view"},{"type":"function","name":"totalSupply","inputs":[],"outputs":[{"name":"","type":"uint256","internalType":"uint256"}],"stateMutability":"view"},{"type":"function","name":"transfer","inputs":[{"name":"to","type":"address","internalType":"address"},{"name":"value","type":"uint256","internalType":"uint256"}],"outputs":[{"name":"","type":"bool","internalType":"bool"}],"stateMutability":"nonpayable"},{"type":"function","name":"transferFrom","inputs":[{"name":"from","type":"address","internalType":"address"},{"name":"to","type":"address","internalType":"address"},{"name":"value","type":"uint256","internalType":"uint256"}],"outputs":[{"name":"","type":"bool","internalType":"bool"}],"stateMutability":"nonpayable"},{"type":"function","name":"transferOwnership","inputs":[{"name":"newOwner","type":"address","internalType":"address"}],"outputs":[],"stateMutability":"nonpayable"},{"type":"function","name":"unpause","inputs":[],"outputs":[],"stateMutability":"nonpayable"},{"type":"event","name":"Approval","inputs":[{"name":"owner","type":"address","indexed":true,"internalType":"address"},{"name":"spender","type":"address","indexed":true,"internalType":"address"},{"name":"value","type":"uint256","indexed":false,"internalType":"uint256"}],"anonymous":false},{"type":"event","name":"EIP712DomainChanged","inputs":[],"anonymous":false},{"type":"event","name":"OwnershipTransferred","inputs":[{"name":"previousOwner","type":"address","indexed":true,"internalType":"address"},{"name":"newOwner","type":"address","indexed":true,"internalType":"address"}],"anonymous":false},{"type":"event","name":"Paused","inputs":[{"name":"account","type":"address","indexed":false,"internalType":"address"}],"anonymous":false},{"type":"event","name":"Transfer","inputs":[{"name":"from","type":"address","indexed":true,"internalType":"address"},{"name":"to","type":"address","indexed":true,"internalType":"address"},{"name":"value","type":"uint256","indexed":false,"internalType":"uint256"}],"anonymous":false},{"type":"event","name":"Unpaused","inputs":[{"name":"account","type":"address","indexed":false,"internalType":"address"}],"anonymous":false},{"type":"error","name":"ECDSAInvalidSignature","inputs":[]},{"type":"error","name":"ECDSAInvalidSignatureLength","inputs":[{"name":"length","type":"uint256","internalType":"uint256"}]},{"type":"error","name":"ECDSAInvalidSignatureS","inputs":[{"name":"s","type":"bytes32","internalType":"bytes32"}]},{"type":"error","name":"ERC20InsufficientAllowance","inputs":[{"name":"spender","type":"address","internalType":"address"},{"name":"allowance","type":"uint256","internalType":"uint256"},{"name":"needed","type":"uint256","internalType":"uint256"}]},{"type":"error","name":"ERC20InsufficientBalance","inputs":[{"name":"sender","type":"address","internalType":"address"},{"name":"balance","type":"uint256","internalType":"uint256"},{"name":"needed","type":"uint256","internalType":"uint256"}]},{"type":"error","name":"ERC20InvalidApprover","inputs":[{"name":"approver","type":"address","internalType":"address"}]},{"type":"error","name":"ERC20InvalidReceiver","inputs":[{"name":"receiver","type":"address","internalType":"address"}]},{"type":"error","name":"ERC20InvalidSender","inputs":[{"name":"sender","type":"address","internalType":"address"}]},{"type":"error","name":"ERC20InvalidSpender","inputs":[{"name":"spender","type":"address","internalType":"address"}]},{"type":"error","name":"ERC2612ExpiredSignature","inputs":[{"name":"deadline","type":"uint256","internalType":"uint256"}]},{"type":"error","name":"ERC2612InvalidSigner","inputs":[{"name":"signer","type":"address","internalType":"address"},{"name":"owner","type":"address","internalType":"address"}]},{"type":"error","name":"EnforcedPause","inputs":[]},{"type":"error","name":"ExpectedPause","inputs":[]},{"type":"error","name":"InvalidAccountNonce","inputs":[{"name":"account","type":"address","internalType":"address"},{"name":"currentNonce","type":"uint256","internalType":"uint256"}]},{"type":"error","name":"InvalidShortString","inputs":[]},{"type":"error","name":"OwnableInvalidOwner","inputs":[{"name":"owner","type":"address","internalType":"address"}]},{"type":"error","name":"OwnableUnauthorizedAccount","inputs":[{"name":"account","type":"address","internalType":"address"}]},{"type":"error","name":"StringTooLong","inputs":[{"name":"str","type":"string","internalType":"string"}]}],"bytecode":{"object":"0x61016060405234801561001157600080fd5b50604051611b5d380380611b5d83398101604081905261003091610380565b6040805180820190915260018152603160f81b602082015286908190898289600361005b83826104e3565b50600461006882826104e3565b50506005805460ff19169055506001600160a01b0381166100a457604051631e4fbdf760e01b8152600060048201526024015b60405180910390fd5b6100ad816101d8565b506100b9826006610232565b610120526100c8816007610232565b61014052815160208084019190912060e052815190820120610100524660a05261015560e05161010051604080517f8b73c3c69bb8fe3d512ecc4cf759cc79239f7b179b0ffacaa9a75d522b39400f60208201529081019290925260608201524660808201523060a082015260009060c00160405160208183030381529060405280519060200120905090565b60805250503060c052506009849055600a80546001600160a01b0319166001600160a01b0385161790556040805160608101825283815260208101839052600091810191909152600b806101a985826104e3565b50602082015160018201906101be90826104e3565b5060408201518160020155905050505050505050506105f9565b600580546001600160a01b03838116610100818102610100600160a81b031985161790945560405193909204169182907f8be0079c531659141344cd1fd0a4f28419497f9722a3daafe3b4186f6b6457e090600090a35050565b600060208351101561024e5761024783610265565b905061025f565b8161025984826104e3565b5060ff90505b92915050565b600080829050601f81511115610290578260405163305a27a960e01b815260040161009b91906105a2565b805161029b826105d5565b179392505050565b80516001600160a01b03811681146102ba57600080fd5b919050565b634e487b7160e01b600052604160045260246000fd5b60005b838110156102f05781810151838201526020016102d8565b50506000910152565b600082601f83011261030a57600080fd5b81516001600160401b0380821115610324576103246102bf565b604051601f8301601f19908116603f0116810190828211818310171561034c5761034c6102bf565b8160405283815286602085880101111561036557600080fd5b6103768460208301602089016102d5565b9695505050505050565b600080600080600080600060e0888a03121561039b57600080fd5b6103a4886102a3565b60208901519097506001600160401b03808211156103c157600080fd5b6103cd8b838c016102f9565b975060408a01519150808211156103e357600080fd5b6103ef8b838c016102f9565b965060608a0151955061040460808b016102a3565b945060a08a015191508082111561041a57600080fd5b6104268b838c016102f9565b935060c08a015191508082111561043c57600080fd5b506104498a828b016102f9565b91505092959891949750929550565b600181811c9082168061046c57607f821691505b60208210810361048c57634e487b7160e01b600052602260045260246000fd5b50919050565b601f8211156104de576000816000526020600020601f850160051c810160208610156104bb5750805b601f850160051c820191505b818110156104da578281556001016104c7565b5050505b505050565b81516001600160401b038111156104fc576104fc6102bf565b6105108161050a8454610458565b84610492565b602080601f831160018114610545576000841561052d5750858301515b600019600386901b1c1916600185901b1785556104da565b600085815260208120601f198616915b8281101561057457888601518255948401946001909101908401610555565b50858210156105925787850151600019600388901b60f8161c191681555b5050505050600190811b01905550565b60208152600082518060208401526105c18160408501602087016102d5565b601f01601f19169190910160400192915050565b8051602080830151919081101561048c5760001960209190910360031b1b16919050565b60805160a05160c05160e05161010051610120516101405161150a6106536000396000610c1401526000610be701526000610aa601526000610a7e015260006109d901526000610a0301526000610a2d015261150a6000f3fe608060405234801561001057600080fd5b506004361061014d5760003560e01c806370a08231116100c357806395d89b411161007c57806395d89b41146102b6578063a9059cbb146102be578063d24378eb146102d1578063d505accf146102da578063dd62ed3e146102ed578063f2fde38b1461032657600080fd5b806370a0823114610239578063715018a6146102625780637ecebe001461026a5780638456cb591461027d57806384b0196e146102855780638da5cb5b146102a057600080fd5b8063313ce56711610115578063313ce567146101e35780633604ef06146101f25780633644e51514610207578063392f37e91461020f5780633f4ba83a146102265780635c975abb1461022e57600080fd5b806306fdde0314610152578063095ea7b31461017057806318160ddd1461019357806323b872dd146101a55780633013ce29146101b8575b600080fd5b61015a610339565b60405161016791906111d9565b60405180910390f35b61018361017e36600461120f565b6103cb565b6040519015158152602001610167565b6002545b604051908152602001610167565b6101836101b3366004611239565b6103e5565b600a546101cb906001600160a01b031681565b6040516001600160a01b039091168152602001610167565b60405160128152602001610167565b610205610200366004611275565b610409565b005b610197610493565b6102176104a2565b604051610167939291906112b1565b6102056105c8565b60055460ff16610183565b6101976102473660046112e7565b6001600160a01b031660009081526020819052604090205490565b6102056105da565b6101976102783660046112e7565b6105ec565b61020561060a565b61028d61061a565b6040516101679796959493929190611302565b60055461010090046001600160a01b03166101cb565b61015a610660565b6101836102cc36600461120f565b61066f565b61019760095481565b6102056102e836600461139b565b61067d565b6101976102fb36600461140e565b6001600160a01b03918216600090815260016020908152604080832093909416825291909152205490565b6102056103343660046112e7565b6107b7565b60606003805461034890611441565b80601f016020809104026020016040519081016040528092919081815260200182805461037490611441565b80156103c15780601f10610396576101008083540402835291602001916103c1565b820191906000526020600020905b8154815290600101906020018083116103a457829003601f168201915b5050505050905090565b6000336103d98185856107f5565b60019150505b92915050565b6000336103f3858285610802565b6103fe858585610880565b506001949350505050565b6104116108df565b600e548261041e60025490565b610428919061147b565b111561047b5760405162461bcd60e51b815260206004820152601e60248201527f4672616374696f6e616c697a65723a20417373657420736f6c64206f7574000060448201526064015b60405180910390fd5b61048481610912565b61048e8383610996565b505050565b600061049d6109cc565b905090565b600b805481906104b190611441565b80601f01602080910402602001604051908101604052809291908181526020018280546104dd90611441565b801561052a5780601f106104ff5761010080835404028352916020019161052a565b820191906000526020600020905b81548152906001019060200180831161050d57829003601f168201915b50505050509080600101805461053f90611441565b80601f016020809104026020016040519081016040528092919081815260200182805461056b90611441565b80156105b85780601f1061058d576101008083540402835291602001916105b8565b820191906000526020600020905b81548152906001019060200180831161059b57829003601f168201915b5050505050908060020154905083565b6105d06108df565b6105d8610af7565b565b6105e26108df565b6105d86000610b49565b6001600160a01b0381166000908152600860205260408120546103df565b6106126108df565b6105d8610ba3565b60006060806000806000606061062e610be0565b610636610c0d565b60408051600080825260208201909252600f60f81b9b939a50919850469750309650945092509050565b60606004805461034890611441565b6000336103d9818585610880565b834211156106a15760405163313c898160e11b815260048101859052602401610472565b60007f6e71edae12b1b97f4d1f60370fef10105fa2faae0126114a169c64845d6126c98888886106ee8c6001600160a01b0316600090815260086020526040902080546001810190915590565b6040805160208101969096526001600160a01b0394851690860152929091166060840152608083015260a082015260c0810186905260e001604051602081830303815290604052805190602001209050600061074982610c3a565b9050600061075982878787610c67565b9050896001600160a01b0316816001600160a01b0316146107a0576040516325c0072360e11b81526001600160a01b0380831660048301528b166024820152604401610472565b6107ab8a8a8a6107f5565b50505050505050505050565b6107bf6108df565b6001600160a01b0381166107e957604051631e4fbdf760e01b815260006004820152602401610472565b6107f281610b49565b50565b61048e8383836001610c95565b6001600160a01b03838116600090815260016020908152604080832093861683529290522054600019811461087a578181101561086b57604051637dc7a0d960e11b81526001600160a01b03841660048201526024810182905260448101839052606401610472565b61087a84848484036000610c95565b50505050565b6001600160a01b0383166108aa57604051634b637e8f60e11b815260006004820152602401610472565b6001600160a01b0382166108d45760405163ec442f0560e01b815260006004820152602401610472565b61048e838383610d6a565b6005546001600160a01b036101009091041633146105d85760405163118cdaa760e01b8152336004820152602401610472565b600a546009546040516323b872dd60e01b81526001600160a01b03848116600483015230602483015260448201929092529116906323b872dd906064016020604051808303816000875af115801561096e573d6000803e3d6000fd5b505050506040513d601f19601f82011682018060405250810190610992919061149c565b5050565b6001600160a01b0382166109c05760405163ec442f0560e01b815260006004820152602401610472565b61099260008383610d6a565b6000306001600160a01b037f000000000000000000000000000000000000000000000000000000000000000016148015610a2557507f000000000000000000000000000000000000000000000000000000000000000046145b15610a4f57507f000000000000000000000000000000000000000000000000000000000000000090565b61049d604080517f8b73c3c69bb8fe3d512ecc4cf759cc79239f7b179b0ffacaa9a75d522b39400f60208201527f0000000000000000000000000000000000000000000000000000000000000000918101919091527f000000000000000000000000000000000000000000000000000000000000000060608201524660808201523060a082015260009060c00160405160208183030381529060405280519060200120905090565b610aff610d75565b6005805460ff191690557f5db9ee0a495bf2e6ff9c91a7834c1ba4fdd244a5e8aa4e537bd38aeae4b073aa335b6040516001600160a01b03909116815260200160405180910390a1565b600580546001600160a01b03838116610100818102610100600160a81b031985161790945560405193909204169182907f8be0079c531659141344cd1fd0a4f28419497f9722a3daafe3b4186f6b6457e090600090a35050565b610bab610d98565b6005805460ff191660011790557f62e78cea01bee320cd4e420270b5ea74000d11b0c9f74754ebdbfc544b05a258610b2c3390565b606061049d7f00000000000000000000000000000000000000000000000000000000000000006006610dbc565b606061049d7f00000000000000000000000000000000000000000000000000000000000000006007610dbc565b60006103df610c476109cc565b8360405161190160f01b8152600281019290925260228201526042902090565b600080600080610c7988888888610e67565b925092509250610c898282610f36565b50909695505050505050565b6001600160a01b038416610cbf5760405163e602df0560e01b815260006004820152602401610472565b6001600160a01b038316610ce957604051634a1406b160e11b815260006004820152602401610472565b6001600160a01b038085166000908152600160209081526040808320938716835292905220829055801561087a57826001600160a01b0316846001600160a01b03167f8c5be1e5ebec7d5bd14f71427d1e84f3dd0314c0f7b2291e5b200ac8c7c3b92584604051610d5c91815260200190565b60405180910390a350505050565b61048e838383610fef565b60055460ff166105d857604051638dfc202b60e01b815260040160405180910390fd5b60055460ff16156105d85760405163d93c066560e01b815260040160405180910390fd5b606060ff8314610dd657610dcf83611002565b90506103df565b818054610de290611441565b80601f0160208091040260200160405190810160405280929190818152602001828054610e0e90611441565b8015610e5b5780601f10610e3057610100808354040283529160200191610e5b565b820191906000526020600020905b815481529060010190602001808311610e3e57829003601f168201915b505050505090506103df565b600080807f7fffffffffffffffffffffffffffffff5d576e7357a4501ddfe92f46681b20a0841115610ea25750600091506003905082610f2c565b604080516000808252602082018084528a905260ff891692820192909252606081018790526080810186905260019060a0016020604051602081039080840390855afa158015610ef6573d6000803e3d6000fd5b5050604051601f1901519150506001600160a01b038116610f2257506000925060019150829050610f2c565b9250600091508190505b9450945094915050565b6000826003811115610f4a57610f4a6114be565b03610f53575050565b6001826003811115610f6757610f676114be565b03610f855760405163f645eedf60e01b815260040160405180910390fd5b6002826003811115610f9957610f996114be565b03610fba5760405163fce698f760e01b815260048101829052602401610472565b6003826003811115610fce57610fce6114be565b03610992576040516335e2f38360e21b815260048101829052602401610472565b610ff7610d98565b61048e838383611041565b6060600061100f8361116b565b604080516020808252818301909252919250600091906020820181803683375050509182525060208101929092525090565b6001600160a01b03831661106c578060026000828254611061919061147b565b909155506110de9050565b6001600160a01b038316600090815260208190526040902054818110156110bf5760405163391434e360e21b81526001600160a01b03851660048201526024810182905260448101839052606401610472565b6001600160a01b03841660009081526020819052604090209082900390555b6001600160a01b0382166110fa57600280548290039055611119565b6001600160a01b03821660009081526020819052604090208054820190555b816001600160a01b0316836001600160a01b03167fddf252ad1be2c89b69c2b068fc378daa952ba7f163c4a11628f55a4df523b3ef8360405161115e91815260200190565b60405180910390a3505050565b600060ff8216601f8111156103df57604051632cd44ac360e21b815260040160405180910390fd5b6000815180845260005b818110156111b95760208185018101518683018201520161119d565b506000602082860101526020601f19601f83011685010191505092915050565b6020815260006111ec6020830184611193565b9392505050565b80356001600160a01b038116811461120a57600080fd5b919050565b6000806040838503121561122257600080fd5b61122b836111f3565b946020939093013593505050565b60008060006060848603121561124e57600080fd5b611257846111f3565b9250611265602085016111f3565b9150604084013590509250925092565b60008060006060848603121561128a57600080fd5b611293846111f3565b9250602084013591506112a8604085016111f3565b90509250925092565b6060815260006112c46060830186611193565b82810360208401526112d68186611193565b915050826040830152949350505050565b6000602082840312156112f957600080fd5b6111ec826111f3565b60ff60f81b881681526000602060e0602084015261132360e084018a611193565b8381036040850152611335818a611193565b606085018990526001600160a01b038816608086015260a0850187905284810360c08601528551808252602080880193509091019060005b818110156113895783518352928401929184019160010161136d565b50909c9b505050505050505050505050565b600080600080600080600060e0888a0312156113b657600080fd5b6113bf886111f3565b96506113cd602089016111f3565b95506040880135945060608801359350608088013560ff811681146113f157600080fd5b9699959850939692959460a0840135945060c09093013592915050565b6000806040838503121561142157600080fd5b61142a836111f3565b9150611438602084016111f3565b90509250929050565b600181811c9082168061145557607f821691505b60208210810361147557634e487b7160e01b600052602260045260246000fd5b50919050565b808201808211156103df57634e487b7160e01b600052601160045260246000fd5b6000602082840312156114ae57600080fd5b815180151581146111ec57600080fd5b634e487b7160e01b600052602160045260246000fdfea2646970667358221220a76a4a3eb3d3e00433f0029635669164e715c44b7cbaf6836f9f2f0654175e7764736f6c63430008190033","linkReferences":{}},"methodIdentifiers":{"DOMAIN_SEPARATOR()":"3644e515","allowance(address,address)":"dd62ed3e","approve(address,uint256)":"095ea7b3","assetPrice()":"d24378eb","balanceOf(address)":"70a08231","buyFraction(address,uint256,address)":"3604ef06","decimals()":"313ce567","eip712Domain()":"84b0196e","metadata()":"392f37e9","name()":"06fdde03","nonces(address)":"7ecebe00","owner()":"8da5cb5b","pause()":"8456cb59","paused()":"5c975abb","paymentToken()":"3013ce29","permit(address,address,uint256,uint256,uint8,bytes32,bytes32)":"d505accf","renounceOwnership()":"715018a6","symbol()":"95d89b41","totalSupply()":"18160ddd","transfer(address,uint256)":"a9059cbb","transferFrom(address,address,uint256)":"23b872dd","transferOwnership(address)":"f2fde38b","unpause()":"3f4ba83a"},"id":46}